:1000000047C500007CC500007AC5000078C5000027
:1000100076C5000074C5000072C5000070C5000000
:100020006EC500006CC500000C94BA260C94FE2529
:100030000C940C2C64C5000062C5000060C5000073
:100040005EC500005CC500005AC5000058C5000030
:1000500056C500000C94BF2B52C5000050C50000CF
:100060004EC500004CC500004AC5000048C5000050
:1000700046C5000044C5000042C5000040C5000060
:100080003EC500003CC500003AC5000038C5000070
:1000900036C5000034C5000032C5000030C5000080
:1000A0002EC500002CC500002AC50000810C970C4D
:1000B0009D0C3E0E3E0ED50CE70CFA0C480D4D0D76
:1000C0003E0E3E0E3E0E550D610D6C0D840DBC0DA9
:1000D000CE0DF40D160ECE11D411BF11C511DA11CB
:1000E000E011E6114112B5124912131217124D1206
:1000F0001A1250125B122512AB1229125F122D1226
:1001000063128D1231126712971237126D12771225
:100110001E125412211257123C1272128312A31291
:10012000A5120F124512BE12E9123F1344134913D0
:100130004E13531358135D13621367136C13731329
:1001400078137B137E130513811305138413051392
:100150000513ED13ED131C141C14A914C514CF15AD
:10016000CF15CA143E154F154F15B81DAE1DCD1D28
:100170001F1E211E211E1F1E211E211EEE1D211EBF
:10018000F81D021E211E211E211E211E1F1E211EC2
:10019000211E1F1E211EDB1D211E211E121E121ECE
:1001A000121E121E121E121E121E121E121E1A1EC7
:1001B000211EB81DAC1D211E211E211E211E211E27
:1001C000211E211E211E211E211E1A1E211E211E3E
:1001D0001F1E211E101E101E101E101E101E101E8F
:1001E000101E101E101E1A1E12243924E625392452
:1001F000E6258424A624E625A625B6257F3F1F6490
:100200003214783C1E1E140A05FD377A585A000035
:1002100004E6D6B4460200210116000000742FE562
:10022000A3E003C801425D003D8889C65436C31768
:100230004FE4F1896B0625C60ABAE181B541B9E2FE
:100240002F07C54983DAE6A77ABE83642742A14A0D
:100250007F8732FC2B9918615F9E515AC7ABFB2EEA
:100260004C479137A8FB8EB512DA97573FA546C683
:1002700050B4588828083313B51028E29E90121FF6
:1002800011BA82E778C8208E186821B87A8CE520E8
:10029000E432E158B2B7C4773701EC782A8CAEBAB1
:1002A000021C21F325D41BE5C4D86F196917124528
:1002B000929448BDDF3F4CAB20056A3610D03064C5
:1002C000C8CCF30F1F32C5DC026E07D5C86B5EF1D8
:1002D000B5EDCB63505161ECA1C81F63CEA44DCCEA
:1002E000194C2FFD1E49E681BE63568E29FD3A9EAC
:1002F0008208900E1755962D6B0B9B2F3BC6C95B42
:100300008CE8A339590611F3886A984795C6BB8FC4
:10031000361BA884CF8D29F5EF116C077D2055E39E
:1003200049D8937CB788CC2E4268E507F25711F183
:10033000EB08627EC99DD002851B4CBABC2188B7F0
:10034000EA9A8585DF8C6BB393CEE900B4EF4DE27A
:10035000E5D3A4A9FD131A1FF6A95321F5EB1272D8
:100360001F2F15FA8F9D4F1200C6000000D44AB00F
:1003700096CD9F33080001DE02C9070000EB4DABAC
:100380009FB1C467FB020000000004595A222325D4
:100390002628292A2C2D2F3032333536383A3B3D4A
:1003A0003E4042434547494A4C4E50515355575998
:1003B0005A5C5E6062646668696B6D6F71737577B5
:1003C000797B7D7F81838587898A8C8E90929496B4
:1003D000989A9C9E9FA1A3A5A7A8AAACAEAFB1B3C3
:1003E000B4B6B8B9BBBCBEBFC1C2C3C5C6C7C9CA13
:1003F000CBCCCDCED0D1D2D2D3D4D5D6D7D7D8D9D5
:10040000D9DADADBDBDBDCDCDCDCDCDDDDDDDDDC32
:10041000DCDCDCDCDBDBDBDADAD9D9D8D7D7D6D544
:10042000D4D3D2D2D1D0CECDCCCBCAC9C7C6C5C306
:10043000C2C1BFBEBCBBB9B8B6B4B3B1AFAEACAA53
:10044000A8A7A5A3A19F9E9C9A98969492908E8C03
:100450008A89878583817F7D7B79777573716F6DDD
:100460006B6968666462605E5C5A595755535150B7
:100470004E4C4A4947454342403E3D3B3A3836356B
:100480003332302F2D2C2A29282625232205010935
:1004900002A10185020901A1000509190129081518
:1004A0000025019508750181020501093009311502
:1004B00081257F95027508810609381581257F956C
:1004C0000175088106050C0A38021581257F950102
:1004D00075088106C0C005010980A10185031901C5
:1004E0002AB700150126B700950175108100C005D7
:1004F0000C0901A101850419012AA002150126A0F9
:1005000002950175108100C005010906A10185064B
:10051000050719E029E715002501950875018102F5
:100520000507190029EF1500250195F075018102D5
:1005300005081901290595057501910295017503B5
:100540009101C00660FF0961A1010962150026FF43
:10055000009520750881020963150026FF0095208B
:1005600075089102C005010906A101050719E029D6
:10057000E71500250195087501810295017508812F
:10058000010507190029FF150026FF0095067508CB
:10059000810005081901290515002501950575013A
:1005A0009102950175039101C009025B00030100EE
:1005B000A0FA090400000103010100092111010052
:1005C000012244000705810308000109040100021B
:1005D0000300000009211101000122220007058209
:1005E00003200001070503032000010904020001A4
:1005F0000300000009211101000122B60007058453
:1006000003200001120100020000000853480C669C
:100610000001010203011C037600690061006C0007
:100620003A00660036003400630032006200330096
:10063000630000000E0366006300360036003000E1
:100640006300000010034C0065006F0070006F0035
:100650006C00640000000403090414001A00080080
:100660002B001500180017001C00120013002F00AB
:100670000C003000000031004C001E001F00200064
:1006800029002100240022002300260027002D003D
:1006900025002E0000002A0049000000E300E200CF
:1006A000E0000000000000002C00E6000000E40074
:1006B00000002152510050004F0000001D001B009F
:1006C000E10006001100190005003600370038006F
:1006D0001000E500520000000000040016000700B2
:1006E000390009000D000A000B000F003300340030
:1006F0000E000000000028000000010001000100C1
:100700000100007C010001000100470048000100D9
:10071000460001000000010001003A003B003C00DF
:1007200035003D0040003E003F00420043004400D1
:10073000410045000000010001000000010001002F
:1007400001000000000000000100010000000100A5
:100750000000010001000100010000000100010093
:10076000010001000100010001004D004E000100E8
:100770000100010001000000000001000100010073
:10078000010001000100010001004B000100010017
:100790004A0000000000010000000100010001000B
:1007A0000100010001000100010001000100010041
:1007B0000100010000000100010001000100010032
:1007C0000100010001000100010001000100010021
:1007D0000100010000000100010000000100010013
:1007E0000100000000000000010001000000010005
:1007F00000000100010001000100000001000100F3
:1008000001000100010001000100010001000100E0
:1008100001000100010000000000010001000100D2
:1008200001000100010001000100010001000100C0
:1008300001000000000001000000010001000100B3
:1008400001000100010001000100010001000100A0
:100850000100010000000100010001000100010091
:100860000100010001000100010001000100010080
:100870000100010000000100010000000100010072
:100880000100000000000000010001000000010064
:100890000000010001000100010000000100010052
:1008A0000100010001000100010001000100010040
:1008B0000100010001000000000001000100010032
:1008C0000100010001000100010001000100010020
:1008D0000100000000000100000000010101010111
:1008E00001010101020202020202020202030303E9
:1008F00003030303030404040404040405050505B9
:100900000506060606060707070707080808080978
:100910000909090A0A0A0B0B0B0C0C0C0D0D0D0E24
:100920000E0E0F0F0F1010111111121213131414B9
:10093000151516161717181819191A1A1B1B1C1D2E
:100940001D1E1E1F20202122222324242526262787
:100950002829292A2B2C2D2D2E2F303132323334B9
:1009600035363738393A3B3C3D3E3F4041424344BF
:1009700045464748494A4C4D4E4F505153545556A1
:1009800058595A5B5D5E5F616264656668696B6C4D
:100990006D6F7072737577787A7B7D7E80828385C8
:1009A00087888A8C8E8F91939596989A9C9EA0A208
:1009B000A3A5A7A9ABADAFB1B3B5B7BABCBEC0C212
:1009C000C4C6C9CBCDCFD1D4D6D8DBDDDFE2E4E7D6
:1009D000E9EBEEF0F3F5F8FAFDFFFFAA7F554000D2
:1009E0000000000000000000000000000000000007
:1009F00000000000000000000000000000000000F7
:100A00000000007E0F00D4FFFFFFC7000000780049
:100A1000000000000000002A2B2800000000000059
:100A20000000000000000000000029000000002C71
:100A30001E3420212224342627252E362D37382710
:100A40001E1F202122232425263333362E37381F1C
:100A50000405060708090A0B0C0D0E0F10111213DE
:100A60001415161718191A1B1C1D2F3130232D357C
:100A70000405060708090A0B0C0D0E0F10111213BE
:100A80001415161718191A1B1C1D2F3130354C0060
:100A900011241FBECFEFDAE0DEBFCDBF04B603FEE8
:100AA00018C08091E9059091EA05A091EB05B091FD
:100AB000EC058730904BA740B04B59F41092E905F4
:100AC0001092EA051092EB051092EC05E0E0F8E3D5
:100AD000099511E0A0E0B1E0E4E5FFE602C0059071
:100AE0000D92AC38B107D9F725E0ACE8B1E001C010
:100AF0001D92A93EB207E1F703D00C94A83780CA33
:100B0000A9E3B0E0E6E8F5E00C948A3685B78068A2
:100B100085BF85B7806885BF84B7877F84BF0FB6E0
:100B2000F894A8958091600088618093600010928D
:100B300060000FBE90E080E80FB6F89480936100EB
:100B4000909361000FBE83E596E190938D018093B1
:100B50008C010E9423200E94C31F0E944F1F0E94ED
:100B600041260E9460268091E20084608093E2002A
:100B70007894809163058823A1F01091E9001F709B
:100B80009091EC00892F817090FD80E8182B1092D5
:100B9000E9008091E80083FD0E9434231F701093C8
:100BA000E90082E084BD93E095BD9AEF97BD809304
:100BB0006E000E94152D811102C00E94193084B16F
:100BC0008F6184B93E98469A3F9A8AB1806F8AB9FC
:100BD0005F9A479884B1806684B985B1806685B98B
:100BE00010929B0110929A0110929D0110929C010B
:100BF00010929F0110929E011092A1011092A001EB
:100C00001092A3011092A2011092910110929001F2
:100C100010929301109292011092950110929401FA
:100C200010929701109296011092990110929801DA
:100C30008AE991E09093BA018093B90180E991E04B
:100C400090938F0180938E0180E090E00E94E736C0
:100C5000863E9E4F21F40E94152D811102C00E94F4
:100C6000911882E090E00E94DA368093520584E089
:100C700090E00E94E7369093E3058093E2050E949E
:100C8000C3303FEF86E791E0315080409040E1F77C
:100C900000C000000E94C330E091B901F091BA0198
:100CA000828183FF08C06FEF7FEF80E090E00E94B9
:100CB00015370E949B2B83E090E00E94DA360E9459
:100CC000A028269A2E9A8091A50181117EC088E0E5
:100CD00090E00E94E2364B015C0184E290E00E94C9
:100CE000DA36282F30E040E050E060E070E080E04D
:100CF00090E000E20E945037282939294A295B29CF
:100D000020936E0330936F034093700350937103ED
:100D100060937203709373038093740390937503CD
:100D20002C7F09F042C025E020936E033FE730930B
:100D30006F033FEF3093700330937103109272038F
:100D40003FE74FEF5FEF60E00E94C13388E090E043
:100D50000E94E2366B017C0184E290E00E94DA3668
:100D6000282F30E040E050E060E070E080E090E06C
:100D70000E945037B22FA32FF42FE52F5B0197016C
:100D80008601BC29A12BF22BE32BB0936E03A09319
:100D90006F03F0937003E093710360937203B0925A
:100DA000730380937403909375030E94AD33109284
:100DB0004C0280916E0380FF05C060E086958695A9
:100DC0000E946A3581E08093A50180E091E09093D4
:100DD000DF058093DE05332433942224239480910D
:100DE0006305853009F074C000E112E1809163056C
:100DF000853009F055C080916305843009F43AC00C
:100E000080E00E94383010924C028091A70181113D
:100E10000DC02092A70180916E03982F917090933E
:100E2000A6018E7F80936E030E9467201092E405D6
:100E3000E8E1F0E020E40FB6F894A895E0936000B4
:100E40000FBE2093600083B7817F846083BF83B728
:100E5000816083BF7894889583B78E7F83BF0FB6F8
:100E6000F894A8958091600088618093600010924A
:100E700060000FBE80916205882309F4B7CF0E94FD
:100E8000C330E091B901F091BA01CF010A962191E6
:100E90003191232B09F0F9C6E817F907C1F7A6CF5E
:100EA0000E94CC280E94E42C0E9438301092A701A6
:100EB0008091A601882351F080916E038160809318
:100EC0006E0360E0869586950E946A350E944222F4
:100ED0000E94C330A091B901B091BA0122EB31E078
:100EE000E8EAF1E0419151918D919D9184279527F8
:100EF0002E173F0719F0892BA9F305C0892B19F488
:100F00000E949D1B49C0E8EAAE2EE1E0BE2E912C66
:100F1000E091B901F091BA01C501885A9140E80FFA
:100F2000F91FC080D180F501E080F180EC24FD2420
:100F3000E114F10441F1812C01E010E0C7018023AC
:100F40009123892BB9F08CAA9DAA0E94002C9FABFB
:100F50008EABF1E0F8AF91E0960120233123232BF3
:100F600009F490E099AF4CA95DA96EA97FA988AD5D
:100F70000E9476318394000F111F20E18212DECF90
:100F8000F501D182C0829394F2E0AF0EB11C25E04E
:100F90009212BECF0E94F42B8091C4059091C5059A
:100FA000892B09F43EC04091B9055091BA05609172
:100FB000BB057091BC052FB7F8948091E505909121
:100FC000E605A091E705B091E8052FBF841B950BBE
:100FD000A60BB70B4091B5055091B6056091B705CA
:100FE0007091B80584179507A607B707D0F08091D0
:100FF000C4059091C5050E94AE301092C5051092AF
:10100000C4051092B9051092BA051092BB05109252
:10101000BC051092B5051092B6051092B705109256
:10102000B8058091DA059091DB05892B61F18091FB
:10103000B2019091B3010E94E52B8C01BE01655D68
:101040007F4F89E0FB0111928A95E9F78091DA05DB
:101050009091DB050E94072080179107A0F48091F2
:10106000DA059091DB05992764E0880F991F6A954E
:10107000E1F7FC01E557FC4F208122FD04C08A57AF
:101080009C4F0E944C2D80911801882341F1809142
:101090004F0590915005009711F10E94E52B20918A
:1010A000A1043091A20428173907C8F490914D0586
:1010B00080914E05981759F00E94B91E1092A20413
:1010C0001092A1041092500510924F0508C00E9482
:1010D000511E1092500510924F050E949B1E809148
:1010E0004C02882309F469C080914B02E0916E03A1
:1010F000E695E695E81BE0934702823059F4F0E06C
:10110000EB5FFD4FE4910E2F10E055EBE52E5CE117
:10111000F52E2EC0863059F4F0E0EE5FFD4FE491DD
:101120000E2F10E045EAE42E4CE1F42E21C0893068
:1011300061F4E695F0E0E150FE4FE4910E2F10E0EF
:1011400039ECE32E30E2F32E13C08F3059F4F0E087
:10115000E450FE4FE4910E2F10E02CE7E22E20E247
:10116000F22E06C000ED17E099E7E92E9CE1F92E7A
:1011700080914802882361F0109248020E94002C5E
:10118000909346028093450210924A0210924902BF
:101190000E94002CE0914502F09146028E1B9F0BAD
:1011A0008F3F9F4750F40E0F1F1F1093460200936E
:1011B000450285E492E0F701099586E0EFECF5E061
:1011C0008E010F5F1F4FD80101900D928A95E1F7B4
:1011D000B090D005F090D105E090D205D090D30525
:1011E000C090D4051092D1051092D2051092D3056B
:1011F0001092D405F11003C0EE2009F458C080917C
:10120000CD059091CE050E94E52BAC019091C805CB
:10121000992339F02091190130E02417350758F04F
:1012200046C020911A01FAE02F9F90011124241743
:10123000350718F03CC09F3F19F09F5F9093C80599
:10124000FF2061F00E945A2E1F1414F491E001C097
:101250009FEF899F802D11248093D105EE2061F0AE
:101260000E945A2E1E1414F09FEF01C091E0899F36
:10127000802D11248093D2058091D1058823B9F067
:10128000A090D205AA2099F00E94992E882319F0E7
:101290008093D10502C03092D1058A2D0E94992EEB
:1012A000882319F08093D20502C03092D205D11064
:1012B00003C0CC2009F44BC08091CB059091CC05A4
:1012C0000E94E52B9C019091C905992309F4FCC467
:1012D00021353105E0F19F3F19F09F5F9093C905DB
:1012E000DD2061F00E94212E1D1414F491E001C054
:1012F0009FEF899F802D11248093D305CC2061F02E
:101300000E94212E1C1414F09FEF01C091E0899FD0
:10131000802D11248093D4058091D3058823B9F0C2
:10132000A090D405AA2099F00E94992E882319F044
:101330008093D30502C03092D3058A2D0E94992E46
:10134000882319F08093D40502C03092D40580918F
:10135000D005B8121AC08091D105882311F08F11E1
:1013600014C08091D205882311F08E110EC0809197
:10137000D405882311F08C1108C09091D3059923CE
:1013800031F081E09D1104C002C081E001C080E025
:1013900080FD15C08091D10581110FC08091D205CB
:1013A00081110BC08091D305811107C081E090911C
:1013B000D405911103C080E001C081E080FD0E944E
:1013C000F82DBA82FB82EC82DD82CE8286E0F801C3
:1013D000AFECB5E001900D928A95E1F70E94E42C04
:1013E000F82E8091B401F81639F0F092B4010E9401
:1013F000F42B8F2D0E94383080916305843009F0E2
:10140000EECC83E08093E9008091E80082FFE7CC96
:101410008091E80085FF21C00E948E2781111BC0AA
:1014200080E2E82EF12C680109C08091F100F601FC
:1014300081936F01F1E0EF1AF10869F08091E80003
:1014400085FDF3CF8091E8008B778093E8000E94C0
:101450008E27882399F391E001C090E08091E80005
:101460008B778093E800992309F4B9CCE090BB0115
:10147000F090BC018981E114F10461F08E3F09F024
:10148000FDC38A81833008F430C28550833008F070
:10149000F5C32BC28B3009F40FC2C8F5853009F4AF
:1014A00089C0B8F4823009F44EC030F4813009F0BC
:1014B000E3C31A8289E00EC3833009F46EC084301E
:1014C00009F0DAC34C816B818A810E94F01C9D83F4
:1014D000F9C3873009F47CC008F477C0883009F478
:1014E000B1C0893009F0C8C320916E0330916F03F9
:1014F0004091700350917103609172037091730376
:1015000080917403909175030E94C133B7C38031F9
:1015100009F415C160F48D3009F4B8C008F4B4C002
:101520008E3009F4B6C08F3009F4DCC0A5C3823117
:1015300009F40BC108F406C1833109F42FC18E3FB1
:1015400009F4D3C199C38A81823009F4B4C38330CA
:1015500051F0813009F090C30E94F42B9B838C835F
:101560007D836E838BC38091B3059091B405892BE5
:1015700009F484C3A091B901B091BA01F801CE0178
:101580000B962C9111963C911197129632832383DE
:1015900032968E179F07A9F771C38A81823009F0AE
:1015A0006BC36B817C818D819E810E9449370E9433
:1015B000F12C64C32D813E813227232732274C81B1
:1015C0006B818A810E94C91C59C30E948F2F56C308
:1015D0008A818138B1F050F4803809F04FC320E09F
:1015E0004B816091700380916F0329C0823819F19B
:1015F000833809F043C320E0409171036C818B81F3
:101600001EC060E08B810E946A359B8180916E03D1
:10161000911108C08E7F80936E0310924C020E943D
:1016200067202CC3816080936E0360E08695869569
:101630000E946A3523C38B81809372031FC30E946B
:10164000B0341CC38A81813899F030F4803809F0B5
:1016500015C3809171033EC2823899F0833809F036
:101660000DC380916F038B83809170038C8306C3BD
:1016700080916E0380FF03C0869586952BC280E023
:1016800029C28091720326C280E15DC01A828FE870
:1016900021C2EA80FB80FE24EF24FE24AC80B12C22
:1016A0002DE1A216B10408F0E9C26801C7018F5804
:1016B0009C4F9601201B310B2A153B0508F0DEC21A
:1016C0003FE8E316F10428F40E94DA36F601848339
:1016D00002C0F6011482FFEFEF1AFF0A2FEFC21AC1
:1016E000D20AE4CF8091B3059091B405892B09F417
:1016F000C5C2EA80FB80FE24EF24FE24CC80D12CDE
:101700003DE1C316D10408F0B9C25801C7018F5892
:101710009C4F9501201B310B2C153D0508F0AEC2E6
:10172000EFE8EE16F10420F4F50164810E94FB3627
:10173000FFEFEF1AFF0A2FEFA21AB20AE7CF0E94BB
:10174000802F9CC284E08A8399C2EA80FB80FE24B9
:10175000EF24FE24AC80B12C3DE1A316B10408F0C7
:101760008DC26801C70189969601201B310B2A158D
:101770003B0508F083C2E0E8EE16E2E0FE0628F43E
:101780000E94DA36F601848302C0F6011482FFEF6C
:10179000EF1AFF0A2FEFC21AD20AE4CFEA80FB80C9
:1017A000FE24EF24FE24AC80B12C3DE1A316B1044D
:1017B00008F064C2370189E2680E711C90E8E916EE
:1017C00092E0F90608F05AC280E892E08E199F096B
:1017D0008A159B0508F452C28091B3059091B40517
:1017E000892B11F068015FC0E0FE0FC0C701889629
:1017F0000E94DA3690E0982F88272D81822B811560
:101800009C4731F48FEF8D8303C0C12CD12C03C0D2
:10181000CC24C394D12CC7018A0D9B1D450180FFA8
:101820001BC0F1E08F1A9108E5E04E2E512C4C0EB2
:101830005D1E480C591CC3018A0D9B1D0E94DA369F
:10184000F201208130E0322F2227282B21153C473E
:1018500019F48FEFF2018083F801EC0DFD1D2FEFDD
:10186000CF01801B910B8815990508F0BBCF8481AF
:1018700090E0982F88273581832B81159C4711F4A0
:10188000248325833296ECCFE0E8EE16E2E0FE06F4
:1018900020F4F60164810E94FB36FFEFEF1AFF0A85
:1018A0002FEFC21AD20AC70189969601201B310B6D
:1018B0002A153B0548F3E2C18091B3059091B40528
:1018C000892B09F4DBC140E250E0B80182E00E94BC
:1018D0005E2B3FEF81EE94E0315080409040E1F785
:1018E00000C000000E949B2BC9C1EA818E2F90E0AE
:1018F0008E30910508F0C2C1FC01EA5AFF4F0C94EA
:10190000433788E0E0E2F1E0DE01919601900D922C
:101910008A95E1F780E2F80111928A95E9F786E06D
:10192000898388E0FE01B196DE0115967AC184E8CC
:1019300089833A821B821C82A1C18C8190E0982FFE
:1019400088272B81820F911D092E000CAA0BBB0B3F
:1019500065E0880F991FAA1FBB1F6A95D1F7AC01DC
:10196000BD01405E5F4F6F4F7F4F481759076A07B1
:101970007B0708F483C18438F1E09F07A105B10516
:1019800008F07CC1453821E052076105710520F05F
:1019900044E851E060E070E0481B590BBC01675F10
:1019A0007D4FC8010E94C13669C140E250E06FEF2F
:1019B00070E0C8010E94A1378091B3058983EA8253
:1019C0003B8283E08C8384E08D838EE07BC181E069
:1019D00090E09093BC018093BB0182E390E09093F0
:1019E000B8018093B7010E94002C9093B6018093B8
:1019F000B50144C1EF2809F442C0E091B901F0916A
:101A0000BA018281938123E0969587952A95E1F723
:101A10002085318524E0329F212D33271124217028
:101A2000F22EF8228091B5019091B6010E94E52B2B
:101A300085369105F0F0FF20E1F00E94002C909394
:101A4000B6018093B5018091B7019091B8010197DB
:101A50009093B8018093B701892B89F41092BC014F
:101A60001092BB0181E090E09093B4058093B305A0
:101A700006C082E390E09093B8018093B701809113
:101A8000B30589838091BB018A838091B70122C00D
:101A90001092B4051092B305F1C040E250E06FEF30
:101AA00070E0C8010E94A137E9C0EB818E2F90E061
:101AB0008730910508F0E2C0FC01EC59FF4F0C940F
:101AC000433780E2F80111928A95E9F784E089832F
:101AD00088E08A838B83D2C08C819AE0D92E7E01E4
:101AE000F1E2EF0EF11CF7012D2D11922A95E9F785
:101AF000B7010E9424308983F701DE01129601901C
:101B00000D92DA94E1F7BAC0FC808AE0FE013596C6
:101B1000DE01919601900D928A95E1F789A19AA133
:101B20000E943B209AA389A38BA19CA10E943B20E9
:101B30009CA38BA38DA19EA10E943B209EA38DA35D
:101B40008FA198A50E943B2098A78FA333E03F1553
:101B500070F08AE0F89EB001112467557D4F4AE08D
:101B600050E0CE0181960E94193780E001C08FEFCE
:101B700089830E94232082C06C81CE0181962AE055
:101B8000FC0111922A95E9F7683008F043C0FAE0A9
:101B90006F9FB00111246F527D4F36C0FC808AE0E8
:101BA000FE013596DE01919601900D928A95E1F73E
:101BB00089A59AA50E943B209AA789A727E02F15FF
:101BC00070F03AE0F39EB00111246F527D4F4AE06D
:101BD00050E0CE0181960E94193780E001C08FEF5E
:101BE00089830E94C31F4AC06C81CE0181962AE07E
:101BF000FC0111922A95E9F7683060F4FAE06F9FD2
:101C0000B00111246F5D7C4F4AE050E00E94CA365B
:101C100080E001C08FEF89838AE0FE01B196DE018A
:101C2000129601900D928A95E1F728C0FC808AE017
:101C3000FE013596DE01919601900D928A95E1F7AD
:101C40008BA19CA10E943B209CA38BA327E02F1576
:101C500070F03AE0F39EB00111246F5D7C4F4AE0D2
:101C600050E0CE0181960E94193780E001C08FEFCD
:101C700089830E944F1F02C08FEF898340E250E0AA
:101C8000B80182E00E945E2BAAC809BD19BD09B443
:101C900000FEFDCF8091D8008F7D8093D800809189
:101CA000E00082608093E0008091E00081FDFCCF45
:101CB0000E94CC289BC888E290E00E94DA361B8202
:101CC0001C821D828E83DACF2B30310508F005CBC4
:101CD0003ECBACE0B0E0EFE6FEE00C948A36DC01EF
:101CE00014962C91222309F4DAC77C0161E00E944A
:101CF0003E308C01F7018581882319F18091DA0546
:101D00009091DB050097E9F008171907D1F09927A2
:101D100064E0880F991F6A95E1F7FC01E557FC4FD5
:101D20002081246020838A579C4FDC010D931C93F3
:101D30000E944C2D1092D80561E0C7010E943E30F0
:101D40008C01F7013580332009F4B7C0C8019757DB
:101D50008038910508F0FDC0003108F056C48FEFBF
:101D600093E00E94DA36811150C451E7A52E53E06A
:101D7000B52E002379F0A114F4E0BF0609F445C4A0
:101D8000C5010E94DA36811101C001502FEFA21A5D
:101D9000B20AEFCF19821A821B821C82CC24CA9409
:101DA00085010F5F1F4FC5010E94DA3689831A82B1
:101DB000882309F42AC4813009F07AC0450132E051
:101DC000830E911CC8010E94DA36D82E8A8388239C
:101DD00009F41BC48FEF8D0D833050F40E5F1F4F3D
:101DE000C4010E94DA368B83811162C05801D8CFBA
:101DF0008BEF8D0D833070F5350143E0640E711C5F
:101E0000C4010E94DA368B83811102C08301EECFB8
:101E100085010C5F1F4FC3010E94DA368C83882333
:101E200029F32B813C8121305FEF350718F0922F89
:101E300080E001C0C901A6E0DA1631F0B7E0DB1698
:101E400031F00E949E21D2CF0E947921CFCF0E94F3
:101E5000F220CCCFE4E0DE1611F08401C7CFC4013C
:101E60000E94DA36D82E85010C5F1F4FC5010396FC
:101E70000E94DA36DD2009F4C8C3882309F4C5C3FB
:101E8000282F30E021503109C29EA001C39E500D81
:101E900011248D2D90E00197840F951F019708F470
:101EA000A5CFAFE9BFE01197F1F700C00000F6CF72
:101EB000CE0101960E94C13599CF6801E7E5DE1A8F
:101EC000FFEFCF16D10411F008F05DC06CE773E0AE
:101ED0008C2D0E942430892BB9F5C60144E0880F6F
:101EE000991F4A95E1F7FC01EA57FC4F2281213006
:101EF000C9F420917C0330917D03232B29F120919B
:101F00007E0330917F03232BF9F0209180033091E1
:101F10008103232BC9F42091820330918303232B67
:101F200049F012C0223081F4209180033091810366
:101F3000232B51F0FC01E557FC4F20812E7F20839D
:101F40008A579C4F0E944C2DD70115963C90332008
:101F5000D9F00E35BCE71B0761F00F35ECE71E0723
:101F600061F00D35FCE71F0779F480910A018111BA
:101F700004C081E080930A0148C310920A0180E006
:101F80000E94F72E42C3312C80910A01811108C0B2
:101F9000C80197558F3F910509F008F475C1E2C15A
:101FA000480120EE821A910820904102809113028C
:101FB000282A8091D905282A38E08316910480F4D4
:101FC00098012770332781E090E001C0880F2A959F
:101FD000EAF7332011F0282A18C08095282215C06E
:101FE000332009F411C11093BE010093BD010E947A
:101FF000F42B6093BD057093BE058093BF0590934D
:10200000C0051092C5051092C405D7018D919C9111
:102010000E94FC2721E030E0F90102C0EE0FFF1F13
:102020008A95E2F7FC87EB872091C6053091C705BA
:1020300038872F834091BD015091BE015A8749874F
:102040001D82432C512C5D81E52FF0E0EE0FFF1F28
:10205000E95EFB4FC080D180C114D10409F4EBC00C
:10206000211005C0D60112968C918111C9C0F601CC
:10207000838190E02B853C8582239323892B09F46F
:10208000BFC08085982F977009F487E038E08316E9
:10209000910440F4332019F081FD09C0B1C082FDE4
:1020A00006C0AEC0332009F4ABC080FFA9C0D60182
:1020B000AD90BC900A151B0519F4332009F4A0C09B
:1020C000EF81F885CE16DF0609F49AC0D6011D9679
:1020D000ED91FC911E97309721F08081882309F4BF
:1020E0008FC0622DC6010E94602F882309F488C02A
:1020F0000A151B0511F4320102C0612C712CB62D9A
:10210000B170BE8381E0A114B10441F0B11106C0E9
:10211000E985FA85AE16BF0609F080E080FF70C041
:1021200080E00E94F72ED092C705C092C60581E0DC
:102130008093C305D60115968C918093C105BE810D
:10214000B11110C0AB2871F0F601808191819C0122
:1021500024503109213A310518F40E94352C02C06F
:102160000E946B2AD6011696AD90BC901797C501B8
:102170009A9581159F4110F4E0EEBE2255245394A8
:10218000C50101978F339E4708F0512CD60119964F
:10219000ED91FC911A97309739F01B966D917C91D7
:1021A0001C9781E009955822552019F1F601868186
:1021B00097810E9481308093C205C501F8E08F1697
:1021C000910418F40E94A72E14C00497813A910537
:1021D00020F48A2D0E94632C0EC00E94121C8FE3F3
:1021E0009CE90197F1F700C000008A2D0E949A2A0D
:1021F00002C00E94121C91E0692660FEE7C1C8CEB1
:10220000AD81AF5FAD831FCF8091BD019091BE01C5
:102210000817190781F41092BE011092BD011092A7
:10222000BD051092BE051092BF051092C005109218
:10223000C5051092C4058091C6059091C705009709
:1022400009F4A6CEB8E08B16910438F4622D0E94F2
:10225000602F81119DCE81E014C0FC01208131816D
:102260000217130729F4311006C01092C30508C0E5
:10227000332009F48DCEDC0118968C9185FD88CE33
:1022800080E00E94F72E84CE5801BB24C50124E0D3
:10229000880F991F2A95E1F7FC01EA57FC4F6F015F
:1022A000D70115962C911597FC01E557FC4F5F015E
:1022B000808120FB80F9808315968C918823A1F181
:1022C0000E94002C9093B3018093B201D601129624
:1022D0008C9112978F5F12968C9312979091D805DC
:1022E0008091D905892B13968C9313978091410285
:1022F00014968C93149716964D915C9117971E9691
:102300006D917C911F97C6010E942E2DF501808151
:1023100081FF03C090E080E002C0902F812F909356
:10232000DA058093DB051EC0D6011C964D915C91A9
:102330001D971E966D917C911F97C6010E942E2DB0
:10234000F501808181FF0EC0C6010E94342D80916D
:10235000DA059091DB050817190721F41092DB05C7
:102360001092DA054801A12CB12CF801E851FC4784
:10237000E730F10588F5E559FF4F0C94433706E245
:1023800021EE41EE6AE17CE705C007E225EE45EE6D
:102390006BE17CE7C7010E94742D37C106E221EE94
:1023A00040EE68E17CE7F6CF07E225EE44EE69E116
:1023B0007CE7F0CF06E221EE42EE6CE17CE7EACF6B
:1023C00007E225EE46EE6DE17CE7E4CF08E221E08E
:1023D00045EE6EE17CE7DECFD70115968C91882320
:1023E00009F433C11092D705C8019057839708F0BC
:1023F000DBC084E090E00E94E7369093E305809391
:10240000E205F801E150F047E232F10520F4EE5820
:10241000FF4F0C9443378091E2058160ACC08091FE
:10242000E3058860B4C08091E2058260A4C0809119
:10243000E20520C08091E20588609DC08091E3059F
:102440001EC08091E3058260A2C08091E205806198
:1024500092C08091E20580628EC08091E205806426
:102460008AC00E94CC288091E205806884C0809157
:10247000E205886084607FC08091E30582608160AE
:1024800086C08091E2058E7F76C08091E305877FCC
:102490007EC08091E2058D7F6EC08091E20520C0F4
:1024A0008091E205877F67C08091E3051EC080911F
:1024B000E3058D7F6CC08091E2058F7E5CC08091CA
:1024C000E2058F7D58C08091E2058F7B54C00E9449
:1024D000CC288091E2058F774EC08091E205877FFE
:1024E0008B7F49C08091E3058D7F8E7F50C08091A6
:1024F000E20582FB222720F991E0922790FB82F9E6
:1025000090FB83F938C08091E305982F90959170E6
:102510008E7F892B90FB81F93AC08091E20586FB82
:10252000222720F991E0922790FB86F924C00E948F
:10253000CC288091E20587FB222720F991E09227A1
:1025400090FB87F918C061E001C060E08EE090E088
:102550000E94FB361EC08091E20584FB222720F9F1
:1025600091E0922790FB84F906C08091E205982FB4
:10257000909590FB80F98093E2050BC08091E30574
:1025800083FB222720F991E0922790FB83F9809327
:10259000E3056091E2057091E30584E090E00E941C
:1025A00015370E94CC2831C00631BCE71B0709F063
:1025B00040C08091D9058A7A91E009F490E0909327
:1025C000BF01811134C089E20E94632C0E94121C59
:1025D0001CC080916E0380FF4BC0282F2E7F20935C
:1025E0006E0330916F0340917003509171036091BD
:1025F00072037091730380917403909175030E942C
:10260000C13310924C020E9467208091160287709D
:1026100009F445C3D70115968C91882309F43FC36B
:102620008091E30582FF3BC382E00DD638C385E38A
:10263000CBCF0737ECE71E0709F4E3C20837FCE706
:102640001F0709F0EBC282E0DDC206312CE712075A
:1026500009F4CBC28091D9058272F401E052F847A7
:10266000E531F10508F055C0EC56FF4F0C944337A7
:10267000816080936E0361E08695869536C04CEA52
:1026800055E366EB75E32CC046EB55E36CEA75E366
:1026900027C048E555E361E675E322C041E655E30E
:1026A00068E575E31DC040E455E36CE475E318C0CC
:1026B0004CE455E360E475E313C048E255E364E39A
:1026C00075E30EC044E355E368E275E309C041EEEB
:1026D00053E36AEF73E304C04AEF53E361EE73E33D
:1026E0000E94602092CF61E081E00E946A358DCF28
:1026F00065E082E00BC068E086E008C06EE089E03B
:1027000005C061E18FE002C06BE182E10E944B20D5
:102710007CCF0737BCE71B0709F471C20837ECE729
:102720001E0709F472C2D70117968D919C911897D4
:102730000097B1F4F701858100811181882349F068
:10274000C8010E94C127D82E682FC8010E943028D6
:1027500004C0C8010E94FC27D82EB8018D2DB0D32B
:10276000CBD38C01D7011596DC9015971696CC909B
:10277000C2949FE0C922809116028770F1F0DD209B
:10278000E1F0812F807F803461F080E2800F88301B
:10279000A0F0812F807E803221F4023070F0CC20B6
:1027A00061F08091E30582FF08C082E04CD5809102
:1027B00016028770BB24B3948111B12CA12EA29470
:1027C0008FE0A8228A2D90E08C30910508F0E7C1B7
:1027D000FC01E755FF4F0C944337812F807F1F701A
:1027E000882311F01295107FDD20B9F0112309F430
:1027F000C3C180E2800F883010F0011106C09091B3
:10280000D905192B1093D90505C09091D805192B1E
:102810001093D8050E94121CAFC1802F0E946B2A12
:10282000112309F4BCC180E2800F883050F10023ED
:1028300041F1812FF3D427C0812F807F1F70803218
:1028400011F01295107F002321F0013009F45CC0D3
:1028500067C08091E30582FD18C0DD2061F011237F
:1028600031F09091D905192B1093D905DBD780E071
:102870000E949A2A94C180E00E946B2A112309F4D5
:102880008EC1812FD2D4CED78AC1DD2059F1CC2080
:1028900009F44AC0B1E0CB1212C0809141028123F9
:1028A000181709F47CC10E94002C90934002809379
:1028B0003F0290914102192B1093410270C1E5E053
:1028C000CE126DC1812F0E947E29812F5AD79091FF
:1028D0001302812F8923181709F461C1192B109352
:1028E00013025DC1CC2041F0F1E0CF1258C18091BC
:1028F000D905812309F453C1812F0E947729812FA3
:1029000040D7812FCCD44BC1DD2029F025E02C15F8
:1029100008F445C109C034E03C1508F440C115C0B5
:10292000DD2031F0C11028C1812F0E947E2937C1DE
:10293000CC2059F0093309F02FC14FEF57EE83E057
:10294000415050408040E1F725C1812F0E947729F6
:1029500026C1812F86958695837019F0813059F0B4
:102960001EC1DD2019F0C801937002C080E090E024
:102970000E94BF2C1CC1DD2019F0C801937002C059
:1029800080E090E00E949A2C12C16D2D802F0E9451
:1029900088290DC1812F8370A9F5D11004C1402F62
:1029A000429546954770440F440F802F8F7090E0FA
:1029B0009C01042E01C0220F0A94EAF704FF08C00C
:1029C0008FE090E001C0880F4A95EAF7809501C03A
:1029D00080E0169516951370123069F088F4909186
:1029E0004202113019F0822B892302C0922B892BCD
:1029F0000E94A028D8C0822B909142028927F8CF4C
:102A0000822BF6CFDD2019F0812F817001C08695D1
:102A1000882309F4C8C0402F429546954770440F5B
:102A2000440F802F8F7090E09C01042E01C0220F74
:102A30000A94EAF704FF08C08FE090E001C0880F15
:102A40004A95EAF7809501C080E0169516951370B7
:102A5000123059F078F49091A401113019F0822BC2
:102A6000892309C0922B892B06C0822B9091A40147
:102A7000892701C0822B0E94652895C01F70DD2028
:102A800039F0812F0E949528802F0E947E298BC0CB
:102A9000802F0E947729812F0E94892884C0023FBD
:102AA00069F128F4003F41F0013F09F160C0033FA4
:102AB00061F1043FC1F05BC0DD2081F094E09C1522
:102AC00008F46DC01F7181E090E0012E01C0880FF5
:102AD0000A94EAF79091A401892722C0A5E0AC15D9
:102AE00008F45DC0EFCF8091E30582FD1CC0DD20BE
:102AF00039F0812F8F710E94952851C0DD20C9F3D4
:102B0000812F8F710E9489284AC0DD2041F01F71FA
:102B100081E0012E01C0880F0A94EAF701C080E02D
:102B20000E9465283CC0DD20B1F0809116028770BC
:102B3000843031F481D3812F8F710E94892853C052
:102B4000B4E0BC1508F44FC01F71812F0E94952876
:102B500063E0812F07C0E4E0EC1530F46DD364E04E
:102B6000812F8F71AFD63FC081E06DD33CC0DD2097
:102B700029F0CC2009F4BDCF802F7ACECC2009F4E7
:102B8000BFCF093349F4FFEF27EE33E0F150204087
:102B90003040E1F700C00000802F0E946B2A88EFD0
:102BA0008A0D843020F40E94E42C0E943830BB202F
:102BB000A9F08091160280FD11C0D70115961C92D4
:102BC0008695869586950E949528C70182D8809122
:102BD00016028695869586950E94892860E0C70131
:102BE0000E943E305CC0B12CDECF8091BF018111CC
:102BF00004C089E20E94352CE9CC85E3FBCF81E05B
:102C000005C081E00E94952803C082E00E948928C7
:102C100043E062E081E00E946828F7CC03303CE7A3
:102C2000130749F46FEF7FEF80E090E00E941537C3
:102C30000E946C30EACC04304CE71407B8F401155C
:102C40005CE7150771F40E94CC28BFEFE4E3FCE0D9
:102C5000B150E040F040E1F700C000000E949B2B23
:102C6000D4CC01308CE7180719F35DCD0B359CE708
:102C7000190719F480E0FDD256CD0C35ACE71A07E0
:102C800041F48091E30582FB882780F991E0892750
:102C9000F2CF0A351C4709F046CD81E0ECCF2C96E7
:102CA000E2E10C94A63680E008959091E20592FF4F
:102CB00010C041E0282F2471243009F040E031E0B9
:102CC000282F2871283009F030E0431711F02CE04C
:102CD000822793FF10C041E0282F2471243109F08E
:102CE00040E031E0282F2871283109F030E0431707
:102CF00011F02CE082273091E30530FF10C051E045
:102D0000282F2171213009F050E041E0282F28714F
:102D1000283009F040E0541711F029E0822731FFF4
:102D200010C041E0282F2171213109F040E031E04D
:102D3000282F2871283109F030E0431711F029E0DD
:102D4000822794FD877E08958238910569F1B0F459
:102D50008133910509F475C048F48932910509F46D
:102D600067C08A32910509F471C0089585339105D1
:102D700009F459C089339105B9F00895833E91054E
:102D800089F138F4803E9105D1F0823E910529F118
:102D90000895863E9105C9F1873E9105D9F1843E9B
:102DA000910509F06CC027C02091E20520FD57C0B5
:102DB00021FD55C02091E30523FD5BC0089580915E
:102DC000E20580FD48C08091E30580FF48C0809106
:102DD000E20584FD46C083EE51C08091E20582FF8A
:102DE0003CC0F5CF8091E20582FD37C08091E305BC
:102DF00080FD35C0ECCF8091E30581FF36C0809126
:102E0000E20584FD2EC087EE39C08091E20583FF84
:102E10002AC0F5CF8091E20583FD25C08091E305AE
:102E200081FD23C0ECCF8091E20585FD22C01FC04B
:102E30008091E20585FD1BC08091E30583FF19C0E9
:102E40000AC08091E20586FD16C017C08091E20598
:102E500086FD13C010C089E311C082EE0FC080EE62
:102E60000DC080E00BC086EE09C084EE07C085E38C
:102E700005C089E203C08AE201C081E390E00895C1
:102E8000209112029091C90159E02917A9F030E070
:102E9000529FF001539FF00D1124E653FE4F7181B4
:102EA000761306C07081781303C07581741306C051
:102EB0002F5F3F4F2770E9CF80E0089581E00895AC
:102EC0002091BB013091BC01232B99F4703F39F460
:102ED000603F79F48091760390917703089575307F
:102EE00040F4603130F4843020F4462F672F78C5E9
:102EF000089580E090E008951F93CF93DF9324DF3F
:102F0000EC01C11580E5D807E8F5C11590E4D907B3
:102F100008F0A6C0C03ED10530F5CD3CD10508F083
:102F200094C0C83AD10578F4C53AD10508F083C0F9
:102F3000C130D10509F47CC008F4EBC0C430D10520
:102F400008F0EAC0E6C0C33CD10508F0E2C0C85AA8
:102F5000D0E0CC0FDD1FC55DDE4F0990D881C02DBC
:102F6000CE019464DAC0C11580E2D80708F0C6C06B
:102F7000C11591E0D90708F06BC0C83ED10508F42F
:102F8000CBC0C7C0C03682E5D80728F5C03492E56B
:102F9000D90708F076C0C03282E5D80708F069C0CA
:102FA000C11592E5D90708F47EC04C2F4695469589
:102FB00080E2489FA0011124C37021E030E0C901E4
:102FC00002C0880F991FCA95E2F7EA01C82BD92BD6
:102FD000CE019D68A2C0C03A82E5D807B8F48C2F14
:102FE0008F71C03892E5D90708F077C0869586952D
:102FF00090E2899F90011124C37081E090E002C0AB
:10300000880F991FCA95E2F79A6864C0C03C82E5B0
:10301000D80708F469C0C03E92E5D90708F079C026
:10302000CF71DD27DC2FCC27CE01806F906A75C071
:1030300081E090E072C0C55AD0E0C85DDE4F888163
:10304000C82FD0E0CE01906468C0CE01906565C005
:103050008D2F2BDE182FCE01992776DE1F7157C0DA
:10306000CE01992771DECC27DF70D06A8C2B9D2B87
:1030700054C0CF71D0E0DC2FCC27CE01816F906A95
:103080004CC08C2F8F718695869590E2899F900118
:103090001124C37081E090E002C0880F991FCA9587
:1030A000E2F79C6817C08C2F8F71FFDD95E0D695F5
:1030B000C7959A95E1F7CF70D0E0DC2FCC27282F69
:1030C00030E084FF05C084E0220F331F8A95E1F7CA
:1030D000D069CE01822B932B20C090E0D82FCC2733
:1030E000CE01846F906A19C08C2F8F71DEDD8F71D5
:1030F00090E0D82FCC27CE0190620FC08D2F8F711A
:10310000D4DD182FCE0199271FDE1F719062912BFD
:1031100004C080E090E001C0CE01DF91CF911F910B
:103120000895A8E0B0E0E7E9F8E10C949A3666EE7D
:103130007EEF80E090E00E94153760E082E090E052
:103140000E94FB3681E08093420261E083E090E0E0
:103150000E94FB3660E074E184E090E00E94153745
:1031600060E086E090E00E94FB3660E087E090E05F
:103170000E94FB3640E050E0BA0188E090E00E94F7
:103180000D3760E084E290E00E94FB3660E087E16A
:1031900090E00E94FB3660E08CE090E00E94FB36FD
:1031A00060E08DE090E00E94FB3619821A821B825B
:1031B0001C821D821E821F82188648E050E068E152
:1031C00070E0CE0101960E94EC3640E050E0BA017A
:1031D00080E290E00E940D3780E00E94F62C0E9471
:1031E000193040E050E0BA018FE090E00E940D37C6
:1031F00040E050E0BA0183E190E00E940D3728964C
:10320000E2E00C94B63680914102882331F01092AE
:1032100041021092400210923F02089580959091D1
:10322000D80589238093D805089580959091D90574
:1032300089238093D90508951092160210921502E1
:10324000109214020895909116028095892380931C
:103250001602282F277061F4981751F09091E3051A
:1032600092FF06C08695869586950E948928E4CFB0
:1032700008959091E30592FB222720F9281771F019
:1032800080FB92F99093E3056091E2057091E3056C
:1032900084E090E00E94153782E0D5CF08959091A8
:1032A0001302292F282321F080959823909313024D
:1032B0000895809112029091C901891719F08F5FCA
:1032C0008770FBCF0895A0E0B0E0E9E6F9E10C9447
:1032D00095368091C60182958F7009F050C080911B
:1032E000C501882309F44BC0C091120289E0D82E91
:1032F0008091C901C81709F442C0D0E0DC9E80016A
:10330000DD9E100D1124F801E653FE4F84818823C1
:1033100099F191818091C10198132EC09081809183
:10332000C001981329C08581811126C0E280F380F5
:103330008091C2019091C301E81AF90A60E080EC23
:1033400091E00E943E3060EC71E061D6E816F9062B
:1033500098F48091C6018F7080618093C601F80156
:10336000E053FE4F80818F708061808380EC91E01C
:103370000E94690E9EDF03C02196C770B9CFCDB7FA
:10338000DEB7E7E00C94B136A8E1B0E0EAECF9E191
:103390000C948D368C0186E0F801DE015396019085
:1033A0000D928A95E1F7F8017480E58080ECA82EF3
:1033B00081E0B82E8091C401811121C0772009F4E9
:1033C00052C0EE2009F44CC0C8010E94A328F82E78
:1033D000882309F445C089E0F801A0ECB1E0019030
:1033E0000D928A95E1F78091C401813031F480918A
:1033F000C0019091C1010E94F02765DF99C1F801D9
:10340000C280D380F090C5018091C2019091C30128
:10341000FF2009F41EC1508061804601881A990A74
:1034200060E080EC91E00E943E3060EC71E0EFD50E
:103430008816990608F0B8C07720A9F08091C601D7
:10344000382F307F2091C101F8019181332371F031
:10345000291709F46AC0C8010E94A328811178C005
:10346000C8010E94690EFF24F39462C129131DC094
:103470002091C0019081291318C04091C70150913B
:10348000C801278130854217530779F4E1100DC038
:103490008F7080618093C60180EC91E00E94690E7C
:1034A0008091C601F801868342C1E11038C040E036
:1034B000662D852DE5DC40E0662D852DE1DCE82ECE
:1034C000811135C15B8A6C8A8B899C890E94F027A7
:1034D000292F22952F70243020F49F70223028F05D
:1034E00009C02A50223080F014C0992349F081117C
:1034F00007C013C0992321F0F8019681907F69F0ED
:10350000805E883030F409C0803F38F0815F8330BE
:1035100020F0C8010E94690EEF2CFE2C09C1809199
:10352000C60181608093C60102C12091C001F801EB
:103530009081291390CF4091C7015091C8012781F4
:1035400030854217530709F086CFE11084CFCEC0F3
:10355000EE2009F485CF2091C601822F82958F70CD
:1035600090E00297BCF08091C0019091C1019B87CF
:103570008A87DD86CC868091C4018E871F86288B42
:103580008091C7019091C8019A8B898BCE010A96D0
:103590000E94690E89E0F801A0ECB1E001900D9263
:1035A0008A95E1F790DE5FCF8091C601982F907FDA
:1035B00051F480EC91E00E94690E89E0F5011192CE
:1035C0008A95E9F7B4C0772009F44DCF2091C10165
:1035D000F8019181291315C02091C0019081291310
:1035E00010C04091C7015091C80127813085421712
:1035F000530739F4E11005C08683C8010E94690EA3
:1036000090C0C8010E94A328882309F429CFEE2086
:1036100009F426CF2091C601822F82958F7090E009
:1036200002970CF4B7CF8091C0019091C1019A83A9
:103630008983DC82CB828091C4018D831E822F839B
:103640008091C7019091C80199878887CE01019622
:103650009FCF4601881A990A60E080EC91E00E94B1
:103660003E3060EC71E0D3D48816990608F059C05A
:10367000772009F4F8CEFE2CEE2009F4F1CE9091DB
:10368000C101F801818198133EC09091C0018081F1
:10369000981339C02091C7013091C8018781908566
:1036A0002817390781F58091C2019091C301C81A8A
:1036B000D90AFFEACF16D104E8F48091C60180FD53
:1036C00019C082958F70482F50E04115510591F037
:1036D0002091C601F80126834F30510541F08F5FDC
:1036E000982F9295907F822F8F70892B8683C801A7
:1036F0000E94690E89E0F801A0ECB1E001900D9202
:103700008A95E1F715C0C8010E94A328811142CF14
:103710008091C60181608093C601C8010E94690E34
:1037200007C089E0F50111928A95E9F701C0F12CF3
:103730008F2D6896EFE00C94A936A6E0B0E0E3EA9E
:10374000FBE10C9498360E94002C8C01809143027E
:10375000909144020817190781F019821A820E9479
:10376000002C682F49815A81792F80E090E00E94D7
:10377000763110934402009343022696E4E00C94C1
:10378000B43690914102292F282379F0809589231E
:1037900080934102882319F00E94002C02C080E02F
:1037A00090E09093400280933F020895CF93C091A0
:1037B000D9058091D805C82B80914102882349F111
:1037C0000E94002C20913F0230914002821B930BFB
:1037D0008838934108F017DD80914102C82B809111
:1037E0001B01882341F08091E20587FF04C02EE190
:1037F00085E995E003C026E08DE895E0FC0180E0D6
:10380000215028F091919923D9F38F5FF9CF81113D
:10381000FADC8091C1058095C8238091C2058C2B6C
:10382000CF91089580911B01882349F18091E20591
:1038300087FF25C0BBDF8093940540E250E067E13D
:1038400072E083E995E00E949437892BD1F180E200
:10385000E3E9F5E0A7E1B2E001900D928A95E1F786
:10386000E091DE05F091DF05309759F186E0809315
:1038700093050480F581E02D83E995E021C096DF72
:1038800080938B0548E050E067E372E08BE895E0B9
:103890000E949437892BA9F088E0EBE8F5E0A7E3D4
:1038A000B2E001900D928A95E1F7E091DE05F0918A
:1038B000DF05309731F00280F381E02D8BE895E051
:1038C000099508959091E30592FF10C098E0899FB3
:1038D00090011124262B209316020E9495280E9405
:1038E000002C909315028093140208950C9495284F
:1038F00008950895529A2BB12B7F3BB134604FB796
:10390000F894FC01CB01880F991F680F791F6E0F87
:103910007F1FE617F70789F0819198E03BB9000017
:1039200000C087FF2BB9880F000000C000C000C096
:103930002BB900C09A9591F7ECCF4FBF8FE594E07B
:103940000197F1F700C000000895CF93DF93EC01D9
:10395000EEE6F3E0438162818C810E949C348C818D
:103960008F5F8C83DF91CF910895CF93DF93EC012C
:10397000EC81F0E0E357FC4F4491EEE6F3E0628126
:1039800081810E949C348C818F5F8C83DF91CF91E9
:1039900008951F93CF93DF93962F8430E8F465301A
:1039A000D8F44031C8F4632F122FC42FD0E0CC0FCD
:1039B000DD1F20E2929FC00DD11D112490EA899F46
:1039C000C00DD11D1124CE0189960E94FB36612FB6
:1039D000CE018A960E94FB36DF91CF911F91089508
:1039E0000F931F93CF93DF93843008F56530F8F47D
:1039F0004031E8F4C42FD0E0CC0FDD1F20E2629FFD
:103A0000C00DD11D112430EA839FC00DD11D11249A
:103A1000CE0189960E94DA3690E0182F0027CE0159
:103A20008A960E94DA369801282BC90102C080E0EC
:103A300090E0DF91CF911F910F910895893289F124
:103A4000F0F4843171F1B0F4873009F077C081E08F
:103A500080931A0184E1809319018AE080931D010B
:103A60008EE180931C0188E080931F0188E280939F
:103A70001E0164C092EE980F9A30F0F05FC080355E
:103A800009F444C028F48F3409F058C08AE03FC0DC
:103A9000813529F0823509F051C081E038C08FEFBF
:103AA00036C080915505882379F110925505109202
:103AB00054051092530542C08D51809355058330B3
:103AC00099F038F4813069F08230D9F489E191E0DD
:103AD0000DC0853099F078F0863099F48EE191E050
:103AE00005C08AE191E002C08DE191E09093540518
:103AF0008093530523C08CE191E0F8CF8FE191E0F2
:103B0000F5CF109255051AC080E0089586EFE09138
:103B10005305F0915405309789F02081082E000C50
:103B2000990B820F911D8F3F910519F014F08FEFC3
:103B300004C097FF02C0108201C0808381E0089515
:103B4000482F50E0FA013597EF33F10508F079C0BE
:103B5000EB54FF4F0C944337E4DA71C08091520567
:103B6000817F8E7F8093520581E080935105089577
:103B70008091B3059091B405892B09F460C00E942F
:103B8000CC282FEF84E39CE0215080409040E1F767
:103B900000C000000E949B2B52C080915205982FBC
:103BA0009095917090FB80F980935205911147C0D8
:103BB000897F877F10C08091520581FB222720F9E1
:103BC00091E0922790FB81F9809352059923B9F1F6
:103BD0008091520581608093520531C080915205D9
:103BE00082FB222720F991E0922790FB82F9ECCF0B
:103BF0008091520583FB222720F991E0922790FBC8
:103C000083F9E2CF0E94CC288091E20587FB22272E
:103C100020F991E0922790FB87F98093E2050FC08D
:103C2000895301C08D5191E001C0990F8A95EAF73F
:103C3000892F01C081E00E94A0280E94CC2881E049
:103C4000089580E00895BC0140914D0580914E0596
:103C5000942F981729F1292F30E0F901EE0FFF1F5B
:103C6000EB5BFA4F0190F081E02DE617F70799F42E
:103C700087E0869FF001879FF00D1124EC55FB4FE4
:103C800081E0848394130CC02F5F3F4F2370332750
:103C900020934D0508952F5F3F4F922F9370D9CFFA
:103CA0000895EF92FF920F931F93CF93DF9380912C
:103CB000DC048823D9F1C091A3048DE0F82E809113
:103CC000DC04C81778F5EE24E394EC0EE092A3042C
:103CD000D0E0FC9EF001FD9EF00D1124E352FB4F5D
:103CE00084818823E9F087819085892B21F481855F
:103CF0009285019659F4008111812281338144819A
:103D000055816681778180850E94FA28FC9EF001AA
:103D1000FD9EF00D1124E352FB4F14821092D80542
:103D2000CE2DCDCF1092DC041092A304CDB7DEB718
:103D3000E6E00C94B2361092A2041092A104E4EAD8
:103D4000F4E08581811102C014821682379684E0E6
:103D5000EC3DF807B1F708951092500510924F0509
:103D60001092180180914E0580934D05E4DF99CFA4
:103D70000895A0E0B0E0EFEBFEE10C948B36C0912B
:103D80004D0597E0992E01E010E02DE0322E34E051
:103D9000432E5524539480914E05C81709F478C0DA
:103DA000D0E0FE01EE0FFF1FEB5BFA4F80819181A7
:103DB000989ED001999EB00D1124AC55BB4F14961E
:103DC0002C911497211161C07090DC04EDEDF4E0AA
:103DD00020E030E0812C5D01271508F055C0E38418
:103DE000F484D501CD90DC906FEF7FEF612C462DF0
:103DF00050E0DA01AA0FBB1FAC0DBD1D0D90BC91A8
:103E0000A02D109731F0EA16FB0609F4BA0163946D
:103E1000EECF6F3FBFEF7B0799F1D80102C0AA0F29
:103E2000BB1F6A95E2F78A2AB801062C02C0660F0A
:103E3000771F0A94E2F7AB0141505109682D70E0F9
:103E400046175707E1F4329EF001339EF00D11241E
:103E5000E352FB4F989ED001999EB00D1124AC55B2
:103E6000BB4F12962D913C91139730872783448244
:103E7000108211829287818715965C9205C0148208
:103E80002F5F3F4F3D96A8CFDEDE2196C37083CFD4
:103E900008DF51DFCDB7DEB7E1E10C94A736AAE029
:103EA000B0E0E5E5FFE10C94903609E214E087E12B
:103EB000C82E84E0D82E91E2E92E93E0F92E2FE06F
:103EC000922E36E1A32E34E0B32E88248394F6019B
:103ED000019311936F014AE050E0B701CE010196C2
:103EE0000E94CA36F801892D11928A95E9F78981D5
:103EF0009A81F801918380838F8182838D8183836E
:103F000088858483898585838B819C81978386833B
:103F100010868A8587FF03C01686158603C0F801C0
:103F2000B686A58680FF02C0F801808681FF04C0A6
:103F3000F80190859260908782FF04C0F801908517
:103F40009460908783FF04C0F80190859860908703
:103F500084FF04C0F80190859061908785FF04C0BC
:103F6000F801808580628087015F1F4FFAE0EF0EC5
:103F7000F11C81E7E81683E0F80609F0A8CF2A963D
:103F8000ECE00C94AC36AAE0B0E0E9ECFFE10C9474
:103F9000943680E5E6ECF3E0DF011D928A95E9F7BF
:103FA00088E3E4EAF4E0DF011D928A95E9F786EC04
:103FB000C82E83E0D82E7F0101ED12E0F701D182F7
:103FC000C0824AE050E0B801CE0101960E94CA3694
:103FD00088E0FE013196D60101900D928A95E1F7B5
:103FE00089859A85D70113969C938E931297BAE090
:103FF000CB0ED11CE7E0EE0EF11C065F1F4F013225
:10400000F3E01F07D9F62A96E8E00C94B036AAE050
:10401000B0E0EDE0F0E20C949A369C0137552F3F6A
:10402000310509F050F4BE016F5F7F4F0E942430CC
:10403000892B19F489859A8502C08FEA90E02A9627
:10404000E2E00C94B636E6E8F3E080E090E067EA60
:1040500071E24BEC51E22CE231E2778366835187C7
:1040600040873387228797878687019670968430AA
:10407000910599F7089581152CE7920759F48091DD
:10408000B3059091B405892B19F480E090E0089570
:1040900080E09CE7089590916E0390FF05C096958F
:1040A0009695981748F003C0811106C090E09617C6
:1040B00018F40C94B635089561E00C946A350895AF
:1040C000882311F0FA0101C0FB0109950895809140
:1040D0006E0380FF06C060E670E08EE492E00ACCDA
:1040E0000895EEE4F2E0118210821282339683E0AA
:1040F000EE36F807C1F7EFCF0F931F93CF93DF93FF
:10410000CEE4D2E0FE01118210821282339683E067
:10411000EE36F807C1F700E010E080914D02082E5E
:10412000000C990B0817190794F080911701082EBD
:10413000000C990B8017910754F09E014091710378
:104140006091700380916F030E94133403C0198241
:1041500018821A820F5F1F4F239600361105E9F669
:10416000B6DF8091160190914D02980F90934D0209
:1041700020911701280F20931701121614F49F3570
:104180001CF0819580931601DF91CF911F910F91C3
:104190000895EF92FF921F93CF93DF93EC018EE48B
:1041A000E82E82E0F82E10E08C8197014091710397
:1041B00060917003810F0E9413341E5F83E0E80E4C
:1041C000F11C103C89F783DF9A818C8190FF02C03B
:1041D0008F5F01C081508C83DF91CF911F91FF9041
:1041E000EF900895A6E0B0E0E8EFF0E20C94983686
:1041F0008C019093770380937603011580E2180772
:10420000B8F4802F0E946B2AC801805E910908973C
:1042100018F00115110531F4C8010E9481300E9487
:10422000772916C0C8010E9481300E94662910C0FB
:1042300080EF89838A830E94002C8160682F9C8391
:104240008B8349815A817C8181E090E00E947631A4
:104250002696E4E00C94B4360F931F93CF93DF932C
:104260008C01EB016CE773E08C2F0E942430892BCA
:10427000D9F5DD27C858DC4F8881F80112821882F1
:10428000833079F048F4813041F1823069F58091D2
:104290007E0390917F0309C0843051F08530E9F0AE
:1042A00023C080918003909181030097B1F01BC0DF
:1042B00080918203909183030097A9F420917C035D
:1042C00030917D0380917E0390917F03211531050C
:1042D00041F0009741F4C90106C080917C039091A0
:1042E0007D03009709F07EDFDF91CF911F910F9141
:1042F0000895A6E0B0E0EFE7F1E20C949A369093CF
:10430000770380937603811520E2920718F40E94C8
:10431000AE3010C080EF89838A830E94002C8160B8
:10432000682F9C838B8349815A817C8181E091E055
:104330000E9476312696E2E00C94B636CF93DF9356
:10434000EC01D7DFCE014EDFDF91CF9108950F93BF
:104350001F93CF93DF938C01862F6CE773E00E944D
:104360002430892B99F4C0917C03D0917D03209750
:1043700069F0F8018281833029F4CE01DFDFCE01BC
:10438000DDDF02C0843010F0CE01D8DFDF91CF91A5
:104390001F910F9108950F931F93CF93DF938C017B
:1043A000EB016CE773E08C2F0E942430892B09F01D
:1043B00064C0DD27F8018281813039F4958192FD56
:1043C00013C090FF11C082E00FC0823041F4F801A9
:1043D000858182FD06C080FD06C083E005C086E0C1
:1043E00003C085E001C084E0C858DC4F8883833077
:1043F000B1F028F4813071F0823031F03EC0843069
:10440000A9F0853071F139C080917E0390917F03CE
:10441000009791F580917C0390917D031FC080915E
:104420008003909181030097E1F026C08091820380
:1044300090918303009701F580917C0390917D0317
:10444000009741F07BDF80917E0390917F0300977E
:1044500079F012C080917E0390917F03009769F0FC
:104460000BC080917C0390917D03009731F066DF53
:1044700080917C0390917D033CDFDF91CF911F9170
:104480000F91089560916E036695669570E04BE01C
:1044900050E08BE091E00E948737892B19F481E08E
:1044A00080934C020E94002C909346028093450218
:1044B00008958091650587FF11C08091E80082FD15
:1044C00005C0809163058111F8CF11C08091E8008B
:1044D0008B770BC080916305882349F08091E800B9
:1044E00080FFF8CF8091E8008E778093E8000895F0
:1044F000982F973068F59093E900981739F07091EC
:10450000EC002091ED005091F00003C0242F762F95
:1045100050E021FD02C09F5FECCF3091EB003E7F69
:104520003093EB003091ED003D7F3093ED00309102
:10453000EB0031603093EB007093EC002093ED00C2
:104540005093F0002091EE0027FDE5CF80E0089524
:104550008F708093E90081E0089520916B05309180
:104560006C052617370748F06115710539F420915D
:10457000E8002E772093E80001C0B901FC0120E09B
:104580006115710579F1809163058823F1F185301A
:10459000F1F18091E80083FD3CC08091E80082FD4C
:1045A0002EC08091E80080FFEBCF2091F300809136
:1045B000F20090E0922B6115710551F08830910561
:1045C00038F421912093F100615071090196F3CFE5
:1045D00021E0089709F020E08091E8008E77809331
:1045E000E800CECF2111CFCF0AC080916305882388
:1045F00061F0853061F08091E80083FD0AC0809110
:10460000E80082FFF2CF80E0089582E0089583E021
:10461000089581E0089543E050E0BC0184E00C94EB
:104620005E2B089546E050E0BC0184E00C945E2BC4
:10463000089540E250E0BC0184E00C945E2B0895A4
:10464000CF93DF93EC0148E050E0BC0181E00E9491
:104650005E2B88E0FE01A9E5B5E001900D928A95F8
:10466000E1F7DF91CF910895AAE2B0E0EAE3F3E247
:104670000C949936E5E6F5E08DE695E02091F100A1
:1046800021938E179F07D1F780916605833009F437
:1046900062C030F4813071F0823009F499C0AFC04B
:1046A0008A3009F486C08B3009F46DC0893009F076
:1046B000A6C01FC080916505813A09F0A0C0809115
:1046C000E800877F8093E8008091690590916A05F2
:1046D000892B21F468E089E595E003C060E080E083
:1046E00090E070E03ADF8091E8008B778093E800FB
:1046F00086C080916505813209F081C0809169058D
:1047000090916A05009719F0029709F078C080919E
:10471000E800877F8093E8008091E80082FD05C073
:10472000809163058111F8CF6AC02091F3008091D8
:10473000F20090E0922B029731F48091F1008130E9
:1047400011F0863021F48091F1008093580580911A
:10475000E8008B7751C080916505813A09F04FC020
:104760008091690590916A05892B09F048C0809174
:10477000E800877F8093E8008091E80080FFFCCF0D
:1047800080911B0134C0809165058132C1F5809113
:10479000690590916A05892B91F58091E800877FE2
:1047A0008093E80086DE8091670580931B01F4D436
:1047B00026C080916505813211F58091E800877FE0
:1047C0008093E80076DE809168058093570517C0D6
:1047D00080916505813A99F48091E800877F809304
:1047E000E8008091E80080FFFCCF8091570580931E
:1047F000F1008091E8008E778093E8005ADE809186
:10480000E80083FFE3C18091650590916605492F1B
:1048100050E04A30510508F0D9C1FA01EC50FF4F81
:104820000C944337803821F0823809F0CFC108C09A
:104830008091610590916205992389F082600FC093
:10484000809169058F70873008F0C0C18093E900BE
:104850008091EB0085FB882780F91092E900909108
:10486000E800977F9093E8008093F1001092F100A8
:1048700079C1282F2D7F09F0A9C1882319F0823032
:1048800061F0A4C180916705813009F09FC1933028
:1048900009F080E0809362052EC080916705811148
:1048A0002AC0809169058F702FEF280F263008F0FD
:1048B0008DC18093E9002091EB0020FF1CC0933054
:1048C00021F48091EB00806214C09091EB00906124
:1048D0009093EB0021E030E0A90102C0440F551F86
:1048E0008A95E2F74093EA001092EA008091EB008B
:1048F00088608093EB001092E9008091E800877F48
:104900008093E800D6DD62C1811160C11091670516
:104910001F778091E3008078812B8093E300809162
:10492000E800877F8093E800C4DD8091E80080FF85
:10493000FCCF8091E30080688093E300111102C0F6
:1049400082E001C083E08093630540C180588230DB
:1049500008F03CC120916705309168052C3D53E07B
:10496000350771F583E08A838AE289834FB7F8942B
:10497000DE01139620E03EE051E2E32FF0E0509399
:104980005700E49120FF03C0E295EF703F5FEF70A6
:104990008E2F90E0EA3010F0C79601C0C0968D933C
:1049A0009D932F5F243149F74FBF8091E800877FA7
:1049B0008093E8006AE270E0CE010196CEDDC0C0CF
:1049C0008091690590916A05432F55274330510521
:1049D000B1F068F44130510509F407C14230510586
:1049E00009F0F4C08BE590E0E9EAF5E057C0413208
:1049F000510589F14232510509F43CC0E7C0C901B3
:104A0000992781309105B9F070F082309105D9F085
:104A1000039709F0DBC0E6E1F6E0E4918E2F90E029
:104A2000E6E1F6E038C0E6E5F6E0E4918E2F90E0AE
:104A3000E6E5F6E030C0E4E4F6E0E4918E2F90E0A5
:104A4000E4E4F6E028C0E4E3F6E0E4918E2F90E0A1
:104A5000E4E3F6E020C08330910508F0B7C0880F8A
:104A6000991FFC01E659FE4F0190F081E02D89E08D
:104A700090E014C08330910508F0A8C0FC01EE0F4F
:104A8000FF1FEC59FE4F0190F081E02DDC01AF5982
:104A9000BE4F8C9190E0009709F498C02091E800F7
:104AA000277F2093E80020916B0530916C05281733
:104AB000390708F4C90140E0009789F120916305A6
:104AC000222309F43DC02530D9F12091E80023FDCF
:104AD00037C02091E80022FD2FC02091E80020FF80
:104AE000EBCF4091F3002091F20030E0342B00979F
:104AF00059F02830310540F444914093F10031964B
:104B000001972F5F3F4FF3CF41E02830310509F087
:104B100040E02091E8002E772093E800CDCF4111AE
:104B2000CDCF0AC080916305882351F0853041F0D4
:104B30008091E80083FD04C08091E80082FFF2CFFD
:104B40008091E8008B778093E80040C0803809F0BE
:104B50003DC08091E800877F8093E80080916405E4
:104B60008093F1008091E8008E77CACE81112EC02B
:104B70008091670590916805992702973CF580918F
:104B8000E800877F8093E800109167051093640523
:104B900090DC111106C08091E30087FD02C081E026
:104BA00001C084E08093630542E061EC81E0A0DC19
:104BB00042E261EC84E09CDC42E261EC82E098DC61
:104BC00042E260EC83E094DC809163058091E80030
:104BD00083FF10C08091E800877F8093E800809178
:104BE000EB0080628093EB0005C082E190E0E4E09E
:104BF000F6E054CFAA96E3E00C94B5361F920F92DC
:104C00000FB60F9211242F933F934F935F936F939F
:104C10007F938F939F93AF93BF93CF93DF93EF9344
:104C2000FF93C091E900CF708091EC00D82FD17034
:104C300080FDD0E81092E9008091F000877F80939A
:104C4000F000789411DD1092E9008091F000886006
:104C50008093F000CD2BCF70C093E900FF91EF91CE
:104C6000DF91CF91BF91AF919F918F917F916F9184
:104C70005F914F913F912F910F900FBE0F901F901A
:104C80001895E8EDF0E080818E7F80831092E2003D
:104C90001092DA001092E100A0EEB0E08C918160F9
:104CA0008C9380818F77808319BCA7EDB0E08C91C5
:104CB0008E7F8C9380818F7E80831092560508951D
:104CC000A0E0B0E0E6E6F6E20C949436C8EDD0E061
:104CD00088818F7E8883E7EDF0E08081816080832A
:104CE00084E082BF81E08093560588818E7F88832F
:104CF00002EE10E0F80110821092DA0081EEC82E68
:104D0000D12CF601108288818F7788838881806812
:104D1000888388818F7D888319BC109263051092E7
:104D20006405109262051092610590EEE92EF12C57
:104D3000F70180818B7F808388818160888342E056
:104D400060E080E0D5DBF60180818E7F8083F80112
:104D5000808181608083808188608083F701808189
:104D60008E7F8083888180618883CDB7DEB7E8E05D
:104D70000C94B0361F920F920FB60F9211242F93FE
:104D80003F934F935F936F937F938F939F93AF93D3
:104D9000BF93EF93FF938091E10082FF09C0809160
:104DA000E20082FF05C08091E1008B7F8093E100EB
:104DB0008091DA0080FF28C08091D80080FF24C055
:104DC0008091DA008E7F8093DA008091D90080FF95
:104DD00016C080E189BD82E189BD09B400FEFDCF26
:104DE00081E0809363058091560581110DC049DFF4
:104DF00067DF8091E20084608093E20005C019BC07
:104E000010926305109256058091E10080FF17C053
:104E10008091E20080FF13C08091E2008E7F80933A
:104E2000E2008091E20080618093E2008091D800EE
:104E300080628093D80019BC85E0809363058091DF
:104E4000E10084FF30C08091E20084FF2CC080E14B
:104E500089BD82E189BD09B400FEFDCF8091D800F3
:104E60008F7D8093D8008091E1008F7E8093E10058
:104E70008091E2008F7E8093E2008091E200816069
:104E80008093E20080916405882311F084E007C0DC
:104E90008091E30087FD02C081E001C083E0809340
:104EA0006305809163058091E10083FF26C08091B6
:104EB000E20083FF22C08091E100877F8093E100C0
:104EC00082E080936305109264058091E1008E7FFB
:104ED0008093E1008091E2008E7F8093E2008091D8
:104EE000E20080618093E20042E060E080E000DB6D
:104EF0008091F00088608093F000FF91EF91BF9166
:104F0000AF919F918F917F916F915F914F913F9161
:104F10002F910F900FBE0F901F9018952091E400D5
:104F20003091E50095E64091EC00842F817040FFC0
:104F300023C08091E80080FD1DC080916305882317
:104F400099F0853099F08091EB0085FD11C040917A
:104F5000E4005091E5002417350729F3915011F032
:104F60009A01E1CF84E0089582E0089583E00895F6
:104F700081E0089580E008954091E80042FFDDCF90
:104F80000895CF92DF92FF920F931F93CF93DF93F9
:104F90006C010091A40180914202082BC3E0D0E093
:104FA00010E0C8010C2E02C0959587950A94E2F78F
:104FB00080FD04C02197A8F7F12C09C0FC2EB60192
:104FC0008C2F0E9460170E947C17019799F38F2DF8
:104FD000DF91CF911F910F91FF90DF90CF900895B7
:104FE000CF93DF93EC01CDDFBE010E9460170E94DA
:104FF0007C17DF91CF910895292F953078F5803176
:1050000068F590E030E1239F800D911D1124682FF9
:10501000677023E0969587952A95E1F7FC01EE0FDE
:10502000FF1FE80FF91FE359FA4F40E050E080E01E
:10503000219130E0062E02C0369527950A94E2F7BA
:1050400021703327042E01C0220F0A94EAF7822B25
:105050004F5F5F4F4330510559F7089580E0089541
:10506000292F953088F5803178F590E030E1239F45
:10507000800D911D1124282F277051E001C0550F7C
:105080002A95EAF723E0969587952A95E1F7FC01A2
:10509000EE0FFF1FE80FF91FE359FA4F20E030E051
:1050A00070E04081CB01022E02C0969587950A944C
:1050B000E2F78170819584278523842781932F5F70
:1050C0003F4F2330310569F708958093A401089577
:1050D0009091A40121E030E0F90101C0EE0F8A9522
:1050E000EAF7D90102C0AA0FBB1F6A95E2F7BD011A
:1050F0006E2B01C0220F4A95EAF7892F8623681389
:1051000003C0892F822B03C02095822F8923DDCFF6
:10511000089521E030E001C0220F8A95EAF720953A
:105120008091A4018223D1CF089521E030E001C015
:10513000220F8A95EAF78091A401822BC6CF0895A9
:10514000809342020895FC012481222309F1878182
:105150009085009719F00E947C1703C0808191818F
:105160003FDF92959F70963079F010F4925001C015
:105170009A50923068F4803F69F018F4883E40F409
:1051800009C0843F29F406C0883E20F0813F11F019
:1051900080E0089581E008951092D90580911B0167
:1051A000882341F08091E20587FF04C08EE1E5E9A4
:1051B000F5E003C086E0EDE8F5E0DF011D928A9599
:1051C000E9F780E090E0DBD380E090E0B3D3109289
:1051D000D8050E94121CEFECF5E086E0DF011D927D
:1051E0008A95E9F71092C8051092C9051092CA0570
:1051F000FFC40895A2E1B0E0E0E0F9E20C94983633
:105200000A871B872C873D874E875F87688B798B42
:105210008A8BCE010A960E94C41981113AC089E096
:10522000FE013A96DE01119601900D928A95E1F702
:105230006E85662371F12091C90130E0C9010196A4
:10524000877099274091120250E084179507A1F0CA
:105250006D8399E0929FD001939FB00D1124A653C6
:10526000BE4FFE01319601900D929A95E1F7809321
:10527000C9010E9459190DC08FDF1092C901109207
:105280001202E0ECF1E089E0DF011D928A95E9F776
:1052900019C019E0809112029091C901891791F00B
:1052A000189FC001112486539E4F0E94C419882361
:1052B00049F08091120290E00196877099278093BF
:1052C0001202E8CF6296E4E00C94B436882321F011
:1052D0000E940E190C94121C0895882339F09091A5
:1052E000D805892B8093D8050C94121C0895882327
:1052F00021F00E9415190C94121C0895882339F08E
:105300009091D905892B8093D9050C94121C08958E
:105310009091D105662309F468C091110CC0909159
:10532000D205911108C09091D405911104C09091BB
:10533000D305992331F098E09093C80591E09093BC
:10534000C9058D3C19F4B6D4819503C08E3C21F477
:10535000B1D48093D205BDC08F3C19F4ABD48195F4
:1053600003C0803D21F4A6D48093D105B2C0893D0D
:1053700011F467D404C08A3D29F463D481958093E5
:10538000D305A7C08B3D19F45CD4819503C08C3D37
:1053900021F457D48093D4059CC09FE2980F983095
:1053A00078F421E030E0A90102C0440F551F9A951E
:1053B000E2F7CA019091D005892B8093D00589C06E
:1053C0008D3D21F48091CA0581600CC08E3D21F491
:1053D0008091CA05826006C08F3D09F07AC0809135
:1053E000CA0584608093CA0574C08D3C39F49091DD
:1053F000D20597FF33C01092D20557C08E3C29F4D6
:105400009091D2051916BCF329C08F3C29F497FF5F
:1054100025C01092D10549C0803D19F41916CCF36E
:105420001DC09091D305893D29F41916BCF4109242
:10543000D3053BC08A3D19F497FF10C0F8CF8B3DD0
:1054400039F49091D40597FF09C01092D4052DC06E
:105450008C3D21F49091D4051916BCF39FE2980F6E
:10546000983080F421E030E0A90102C0440F551FBC
:105470009A95E2F7CA0180959091D005892380938F
:10548000D00513C08D3D21F48091CA058E7F0BC0DD
:105490008E3D21F48091CA058D7F05C08F3D29F492
:1054A0008091CA058B7F8093CA058091D1058111B7
:1054B00006C08091D205811102C01092C80580916A
:1054C000D305811106C08091D405811102C01092CC
:1054D000C9058EC30895882361F19CEF980F913A16
:1054E00010F4C3D10DC090E2980F983060F487702B
:1054F00091E001C0990F8A95EAF7892F0E9415194A
:105500000C94121C08959BE5980F933020F480E0D2
:1055100090E035C2089598E5980F9B3120F480E023
:1055200090E008C2089593E3980F933110F460E07F
:10553000EFCE0895CF93882309F4A5C0C82F8CEF30
:105540008C0F813A98F580915105813081F030F0CF
:10555000823049F58C2F0E941E1D95C08091D9057F
:10556000823209F05EC08C2F0E94A01D58C080912D
:10557000D9058232C1F3C43199F068F4CB3009F413
:1055800049C0C03109F049C082E08093510588E3E9
:105590000E941E1D3FC0C93219F0C833D9F13DC069
:1055A000109251053AC0109251053BC080E28C0F19
:1055B000883078F4C77081E090E001C0880FCA9508
:1055C000EAF79091D905892B8093D9050E94121C86
:1055D0005AC0EBE5EC0FE33038F4F0E0E85DFE4F45
:1055E000808190E0CCD14FC0E8E5EC0FEB3148F47E
:1055F000F0E0EE0FFF1FE55DFE4F808191819AD1B3
:1056000042C083E38C0F833108F03DC061E08C2FF2
:105610007FDE39C081E0817002C080E0FCCF811163
:1056200032C080911B018823E1F08091E20587FF61
:1056300018C0EC2FE695E695E695F0E0ED56FA4FAA
:105640008281282F30E04C2F477081E090E002C02B
:10565000880F991F4A95E2F782239323892B61F4DF
:105660000FC0EDE8F5E083E995E02191C21721F044
:105670008E179F07D1F704C08C2FF7D00E94121C01
:105680008C2F21D1A3CFCF9108951F93CF93DF9378
:10569000182FEB014FDF209741F08FE99FE0019732
:1056A000F1F700C000002197F6CF812F14DFDF91C2
:1056B000CF911F9108958091580508950F931F93DE
:1056C000CF93DF938B01EA0190916305943071F5DC
:1056D0008F708093E9008FEF9091E800815095FDE5
:1056E00006C095ED9A95F1F700008111F5CF8091F4
:1056F000E80085FF1BC012DC882361F08091E80080
:105700008E778093E80012C0F80181918F01809319
:10571000F1002197209791F38091E80085FDF4CF67
:105720008091E8008E778093E800E5CFDF91CF91FC
:105730001F910F91089581E08093E00080E28093B3
:10574000D8001092C9008FE19EE40197F1F700C0E4
:10575000000087E090EBDC018093E9059093EA0577
:10576000A093EB05B093EC059CE088E10FB6F894AC
:10577000A895809360000FBE90936000FFCF78944F
:105780001F920F920FB60F9211248F939F93AF9396
:10579000BF938091E5059091E605A091E705B09152
:1057A000E8050196A11DB11D8093E5059093E605DE
:1057B000A093E705B093E805BF91AF919F918F91BA
:1057C0000F900FBE0F901F9018959C014FB7F89443
:1057D0008091E5059091E605A091E705B091E80577
:1057E0004FBF821B930B08952FB7F8946091E50586
:1057F0007091E6058091E7059091E8052FBF089527
:105800002FB7F8948091E5059091E605A091E70502
:10581000B091E8052FBF08951F920F920FB60F9217
:1058200011248F939F93AF93BF938091E4058111CF
:1058300013C08091E5059091E605A091E705B09130
:10584000E8054196A11DB11D8093E5059093E605FD
:10585000A093E705B093E805BF91AF919F918F9119
:105860000F900FBE0F901F90189590911B019923D8
:1058700021F09091E20597FD03C0EBE8F5E01DC033
:10588000E82FE695E695E695EE31E0F4F0E0ED568A
:10589000FA4F877021E030E0A90102C0440F551F84
:1058A0008A95E2F7CA0180959281892382830895BF
:1058B000319655E0E139F50729F092818913F8CF47
:1058C0001282F6CF089590911B019923D1F0909107
:1058D000E20597FF16C0E82FE695E695E695EE31CE
:1058E00040F5F0E0ED56FA4F877021E030E0A90175
:1058F00002C0440F551F8A95E2F7CA019281892B95
:1059000016C0ADE8B5E0EFEF90E02D91821789F079
:10591000EF3F19F4211101C0E92F9F5F9630A9F7DD
:10592000EF3F39F00E2E000CFF0BE557FA4F828344
:1059300008950895A3E0B0E0E0EAFCE20C949A3602
:105940002091E0053091E10528173907A1F09093E7
:10595000E1058093E005E091DE05F091DF053097E9
:1059600051F024E029839B838A830084F185E02D14
:10597000CE01019609952396E2E00C94B636A3E099
:10598000B0E0E5ECFCE20C949A362091DC05309115
:10599000DD0528173907A1F09093DD058093DC051C
:1059A000E091DE05F091DF05309751F023E0298387
:1059B0009B838A830084F185E02DCE0101960995B1
:1059C0002396E2E00C94B636E091DE05F091DF0517
:1059D000309729F00190F081E02D0995089580E03D
:1059E000089588E290E00C94FB360895CF93C82F79
:1059F000811102C06FEF01C06AE985E290E00E9468
:105A0000FB36C11102C06FEF01C064E586E290E091
:105A10000E94FB36C11102C06FEF01C06CE387E248
:105A200090E00E94FB36CF91089585E290E00E94BD
:105A3000DA368A3981F486E290E00E94DA368435DB
:105A400051F487E290E00E94DA3691E08C3309F05D
:105A500090E0892F01C080E08170089541155105C3
:105A600011F0FA0109950895CF93DF93EC014A856F
:105A70005B856E857F85F2DF8B810E940E198C819C
:105A80000E9415190E94121C86E0FE0111928A954F
:105A9000E9F7DF91CF910895CF93DF93EC018D81EA
:105AA00081FD16C082608D839091D8058B81892BF2
:105AB0008093D8059091D9058C81892B8093D90545
:105AC0000E94121C488559856E857F85CE01C6DFF0
:105AD0001092DB051092DA058D8180FD02C0CE01A7
