:100000000C941A050C9461050C9461050C9461051F
:100010000C9461050C9461050C9461050C946105C8
:100020000C9461050C9461050C94762A0C94B22909
:100030000C94CA300C9461050C9461050C94610514
:100040000C9461050C9461050C9461050C94610598
:100050000C9461050C947D300C9461050C94610541
:100060000C9461050C9461050C9461050C94610578
:100070000C9461050C9461050C9461050C94610568
:100080000C9461050C9461050C9461050C94610558
:100090000C94EC1D0C9461050C9461050C946105A5
:1000A0000C9461050C9461050C946105F60BF60B3C
:1000B0002E0C2E0CC10CDD0CB40EB40EEA0CC70DC8
:1000C000D60DD60DE71401150715391639163F154B
:1000D0004B155A153916621589159B15B115B415AE
:1000E000BA27E1279429E12794292D28502894291B
:1000F00051296129DA2BDA2BEC2BEC2BE32BEC2B9F
:10010000EC2BEC2BDA2BDA2BE82BEC2BEC2BE82B63
:100110007F3F1F643214783C1E1E140A0501000143
:10012000001E020000020002001A0200000300018B
:10013000001F020000040002000402AA1F050001C3
:100140000020020000060002000602000007000274
:10015000001C02000008000100210200000900024A
:10016000000802851F0A0002000A02851F0B000218
:10017000000C02851F0C0002000E02851F0D0002FC
:10018000001002851F0E0002001202851F0F0002E0
:10019000001402851F100002001602851F110002C4
:1001A000001802851F120002002202000013000244
:1001B0000024020000FD377A585A000004E6D6B445
:1001C000460200210116000000742FE5A3E003C8D9
:1001D00001405D003D8889C65436C3174FE4DE7F79
:1001E0002DD5317A6DB5EB957D41B5430B7E0FC7AB
:1001F00088F866E99AB8B509EBAF8FF7118E2160E0
:10020000100C22DF61A39365FD096278BAB7D2FAB8
:100210000297CC89B73F4E3AC704D33FF1A6B4ED5D
:10022000B8B2D408CD61E3D468366EF1AF4C302B50
:10023000A307879B6197FCC297E88365821C6E9435
:100240004B71CBA7AF80C60B4BE33FCC8B9BAC363F
:10025000A1111FA45C82A4C1DE08E43C8878EC569E
:10026000600145EFAE8DBDCD8AA73462A2B90140D1
:100270003E1CF26DD2788A79C091921F000EDA4648
:10028000407E797EE3D37020A2BF2403A633837A15
:1002900038725ED4B22C02F84CCAD0D8C407F187A9
:1002A000E849BAFF1D58D056C86881E183878BE8BA
:1002B000AC702E169C94B27D09C220121C08E1F18C
:1002C0004CC4E4DFECD1AD6CF30D281167A2053806
:1002D00061FDCA2D84D97345FEA7E3F8380384CDA8
:1002E0007B79847A13D869E970D9778295B84DAC57
:1002F000E77AAAD9ABC1F9C4127B010FF93DE940F5
:10030000A2936C9F450629D20D98610E0BC9BDF5CD
:100310003F3945DC0084BF4A1DD4ED21580001DC83
:1003200002C9070000E0EC63D2B1C467FB02000021
:10033000000004595A000000000000000000000006
:1003400000000000000000000000000000000000AD
:100350000000000000000000007E0F00D4FFFFFF3F
:10036000C70000007800000000000000002A2B28D1
:10037000000000000000000000000000000000007D
:1003800029000000002C1E34202122243426272599
:100390002E362D3738271E1F2021222324252633D1
:1003A00033362E37381F0405060708090A0B0C0DD3
:1003B0000E0F101112131415161718191A1B1C1DE5
:1003C0002F3130232D350405060708090A0B0C0DC3
:1003D0000E0F101112131415161718191A1B1C1DC5
:1003E0002F3130354C0001010101010101010102F1
:1003F00002020202020202020303030303030303D5
:10040000040404040404040505050505060606069F
:1004100006070707070708080808090909090A0A5B
:100420000A0B0B0B0C0C0C0D0D0D0E0E0E0F0F0FFF
:10043000101011111112121313141415151616178A
:1004400017181819191A1A1B1B1C1D1D1E1E1F20F8
:1004500020212222232424252626272829292A2B45
:100460002C2D2D2E2F30313232333435363738396A
:100470003A3B3C3D3E3F4041424344454647484964
:100480004A4C4D4E4F50515354555658595A5B5D36
:100490005E5F616264656668696B6C6D6F707273D4
:1004A0007577787A7B7D7E8082838587888A8C8E3B
:1004B0008F91939596989A9C9EA0A2A3A5A7A9AB6D
:1004C000ADAFB1B3B5B7BABCBEC0C2C4C6C9CBCD5F
:1004D000CFD1D4D6D8DBDDDFE2E4E7E9EBEEF0F311
:1004E000F5F8FAFDFFFFAA7F55402223252628298B
:1004F0002A2C2D2F3032333536383A3B3D3E4042A0
:10050000434547494A4C4E5051535557595A5C5EE2
:100510006062646668696B6D6F71737577797B7DF6
:100520007F81838587898A8C8E90929496989A9CF5
:100530009E9FA1A3A5A7A8AAACAEAFB1B3B4B6B80D
:10054000B9BBBCBEBFC1C2C3C5C6C7C9CACBCCCD6F
:10055000CED0D1D2D2D3D4D5D6D7D7D8D9D9DADA4A
:10056000DBDBDBDCDCDCDCDCDDDDDDDDDCDCDCDCCA
:10057000DCDBDBDBDADAD9D9D8D7D7D6D5D4D3D2FE
:10058000D2D1D0CECDCCCBCAC9C7C6C5C3C2C1BFDC
:10059000BEBCBBB9B8B6B4B3B1AFAEACAAA8A7A540
:1005A000A3A19F9E9C9A98969492908E8C8A8987FC
:1005B0008583817F7D7B79777573716F6D6B6968DA
:1005C000666462605E5C5A5957555351504E4C4AAE
:1005D0004947454342403E3D3B3A38363533323059
:1005E0002F2D2C2A29282625232214001A00080042
:1005F0002B001500180017001C00120013002F001C
:100600000C003000000031004C001E001F002000D4
:1006100029002100240022002300260027002D00AD
:1006200025002E0000002A0049000000E300E2003F
:10063000E0000000000000002C00E6000000E400E4
:1006400000000151510050004F0000001D001B0030
:10065000E1000600110019000500360037003800DF
:100660001000E50052000000000004001600070022
:10067000390009000D000A000B000F0033003400A0
:100680000E00000000002800000001000100010031
:1006900001000100010001000100470048000100C5
:1006A000460001000000010001003A003B003C0050
:1006B00035003D0040003E003F0042004300440042
:1006C00041004500000001000100000001000100A0
:1006D0000100000000000000010001000000010016
:1006E0000000010001000100010000000100010004
:1006F000010001000100010001004D004E00010059
:1007000001000100010000000000010001000100E3
:10071000010001000100010001004B000100010087
:100720004A0000000000010000000100010001007B
:1007300001000100010001000100010001000100B1
:1007400001000100000001000100010001000100A2
:100750000100010001000100010001000100010091
:100760000100010000000100010000000100010083
:100770000100000000000000010001000000010075
:100780000000010001000100010000000100010063
:100790000100010001000100010001000100010051
:1007A0000100010001000000000001000100010043
:1007B0000100010001000100010001000100010031
:1007C0000100000000000100000001000100010024
:1007D0000100010001000100010001000100010011
:1007E0000100010000000100010001000100010002
:1007F00001000100010001000100010001000100F1
:1008000001000100000001000100000001000100E2
:1008100001000000000000000100010000000100D4
:1008200000000100010001000100000001000100C2
:1008300001000100010001000100010001000100B0
:1008400001000100010000000000010001000100A2
:100850000100010001000100010001000100010090
:100860000100000000000100000005010902A101D3
:1008700085020901A10005091901290515002501B5
:100880009505750181029501750381010501093006
:1008900009311581257F9502750881060938158172
:1008A000257F950175088106050C0A3802158125FA
:1008B0007F950175088106C0C005010980A10185E9
:1008C0000319012AB700150126B70095017510819B
:1008D00000C0050C0901A101850419012AA0021517
:1008E0000126A002950175108100C005010906A12D
:1008F000018505050719E029E7150025019508750B
:100900000181020507190029EF1500250195F075F1
:1009100001810205081901290595057501910295C6
:100920000175039101C00660FF0961A1010962150B
:100930000026FF009520750881020963150026FF37
:1009400000952075089102C005010906A10105075F
:1009500019E029E715002501950875018102950127
:10096000750881010507190029FF150026FF00956C
:10097000067508810005081901290595057501917D
:1009800002950175039101C009025B00030100A0FB
:10099000FA0904000001030101000921110100010D
:1009A0002240000705810308000A09040100020330
:1009B0000000000921110100012222000705820325
:1009C00020000107050303200001090402000103C0
:1009D00000000009211101000122BC000705840369
:1009E00020000A120110010000000853480C6600A4
:1009F00001010203011C037600690061006C003AEA
:100A00000066003600340063003200620033006389
:100A10000000000E0346004300360036003000435D
:100A20000000000A03480061007300750000000424
:100A30000309040011241FBECFEFDAE0DEBFCDBFF3
:100A400004B603FE27C08091C8039091C903A0910A
:100A5000CA03B091CB038730904BA740B04BD1F481
:100A60001092C8031092C9031092CA031092CB03CC
:100A700014BE84B7877F84BF0FB6F894A895809181
:100A80006000886180936000109260000FBEE0E01B
:100A9000F8E3099511E0A0E0B1E0E2EBFAE602C06C
:100AA00005900D92AC38B107D9F723E0ACE8B1E07E
:100AB00001C01D92A83CB207E1F70E94350F0C94CB
:100AC00057350C9400002F923F924F925F926F9295
:100AD0007F928F929F92AF92BF92CF92DF92EF92CE
:100AE000FF920F931F93CF93DF93CDB7DEB7649739
:100AF0000FB6F894DEBF0FBECDBF7C01DC011396AC
:100B00004D915C91149711966C9111978C910E9464
:100B1000D13381110C941C0F21E0F70140815181E8
:100B20006281738184810E94971D8C01D701129686
:100B30008C91811105C0F7014281411140C0C0C0B4
:100B4000809100018F3FB9F3B0E9CB2EB1E0DB2EED
:100B5000A12CB12C9924939480910001082E000CB3
:100B6000990B8A159B053CF3D60116968C91169726
:100B70008823F1F019968D919C911A9708171907FF
:100B800039F480918E0190918F010817190781F037
:100B9000F6019786148703878189811103C0C601F6
:100BA0000E94F420C60106960E9415211092BC03F3
:100BB000FFEFAF1ABF0A26E1C20ED11CCDCFC8018C
:100BC00082519F45409708F098C08FEF93E00E94B4
:100BD000B534811180C0AEEEDA2ED00E0FE612E0F1
:100BE000DD2071F0011544E0140709F474C0C80158
:100BF0000E94B534811101C0DA940F5F1F4FF0CF0E
:100C000019821A821B821C82AA24AA9468015FEFAF
:100C1000C51AD50AC8010E94B53489831A8288236F
:100C200009F459C0813009F046C0480182E0880EBD
:100C3000911CC6010E94B5348A83882309F44BC0F5
:100C40009FEF980F933060F4680193E0C90ED11CB8
:100C5000C4010E94B5348B8381112DC08601D6CF8B
:100C6000843011F06401FACFC4010E94B534B82E6B
:100C70006801A4E0CA0ED11CC80103960E94B534D5
:100C8000BB2049F1882339F1282F30E02150310968
:100C9000A29EA001A39E500D11248B2D90E00197E0
:100CA000840F951F0197D0F2EFE9FFE03197F1F73C
:100CB00000C00000F7CFCE0101960E94E41CCECF09
:100CC0000031FFE51F0711F00C94130F81E00E9423
:100CD0002E330E94B6268091B903877011F40C94CC
:100CE0001C0FD70112968C91882311F40C941C0FC1
:100CF00082E00E9453330C941C0F0031BFE51B07A8
:100D000011F481E005C00131EFE51E0721F482E016
:100D10000E947033DECFC80197558F3F910511F0C7
:100D200008F057C020910001022E000C330B281749
:100D3000390714F48093000126E1289F5001299F70
:100D4000B00C1124C50180579E4F6C01DC015096F8
:100D50004C935097F701928116968C911697992390
:100D600069F11A961C930E9319978F5F16968C93C0
:100D70000E94BE30D6011E969C938E931D97809143
:100D8000BF0317968C9317979091BC038091BB0378
:100D9000892B18968C931897ED91FC911197C501AA
:100DA0008A569E4F309729F054966D917C915597B5
:100DB000099510938F0100938E010BC08823B1F029
:100DC000F6018189882391F0C5018A569E4F0E94C1
:100DD0001521073FFCE51F0749F4D70112968C91B6
:100DE000882321F181E0809301013DC1083FBCE5EA
:100DF0001B0771F4F70182818823C1F01092010171
:100E00001092F8011092F70181E00E946E212BC12F
:100E1000093FFCE51F0751F4D70112968C918823F6
:100E200029F0809101018823E9F2E8CF4090010187
:100E3000442009F418C11092FB011092FA01612CB0
:100E4000E5E05E2E88248394912C33243394A09083
:100E5000FA01B090FB01F3E0AF16B10408F0CFC087
:100E60005A9CF0015B9CF00D1124EA5DFD4FBE0120
:100E7000655F7F4F80810E949822892B11F0712C31
:100E8000B3C0FE013B9680E090E022242A94282FF4
:100E9000419151914115510551F00417150709F47D
:100EA000282E01968430910591F724E002C082300B
:100EB00030F3BFEF2B1619F3F7017280772009F496
:100EC00048C05A9CC0015B9C900D1124AC014A5D46
:100ED0005D4F6A01C40101C0880F2A94EAF7DA0164
:100EE00014969C911497892B14968C93F40102C04C
:100EF000EE0FFF1F2A95E2F79F012150310990E084
:100F00008F772817390709F06EC080E00E946E21A4
:100F1000D60114968C911497806814968C9314972C
:100F200012968D919C911397009719F00E94D61DEF
:100F30000DC0BE016F5F7F4F8091FA010E94982221
:100F4000892B21F489859A850E94CA253092F9015E
:100F50004BC0F40102C0EE0FFF1F2A95E2F79F017C
:100F6000215031095A9CF0015B9CF00D1124EA5D7F
:100F7000FD4F848190E08F7728173907A1F4828193
:100F80009381009719F00E94C01D0DC0BE016F5FD4
:100F90007F4F8091FA010E949822892B21F4898544
:100FA0009A850E9441255A9CF0015B9CF00D11240A
:100FB000EA5DFD4F9481292F30E0022C02C0359567
:100FC00027950A94E2F720FF5ACF940101C0220F1F
:100FD0002A94EAF7822F80958923848387FF4FCF55
:100FE000803809F41482742C67288091FA0190915A
:100FF000FB0101969093FB018093FA0128CF809129
:10100000F901882359F00E94BE309093F801809333
:10101000F7011092F90161105ECE25C0611006C083
:1010200081E00E946E210E945C211DC0D7011296B2
:101030008C91882309F44FCE0E94BE309093F80122
:101040008093F701E091F601E73008F044CE81E0AB
:101050008E0F8093F601F0E0EE0FFF1FE851FE4F78
:101060001183008338CE80911F0280FF65C00E94EB
:10107000BE306C01F7018281882379F180910201F1
:1010800082FF06C040E0B60180E090E00E9493201D
:1010900082E00E94D7310B31FCE51F0779F00C315B
:1010A0002CE5120789F00A314CE51407B1F4809160
:1010B0000201982F909590FB80F909C08091020160
:1010C0008160809302017FC0809102018E7F8093B6
:1010D000020182E00E94D73176C00832110538F44F
:1010E0000E311105B8F40430110578F425C0093328
:1010F000110538F40D32110590F40B32110579F019
:101100001BC00436110559F017C080911F0284FDE1
:1011100013C009C080911F0283FD0EC004C08091DE
:101120001F0282FD09C0F7018281882309F4B5C13D
:101130008091020180FD75C1033FBCE51B0759F199
:1011400090F4083DFCE51F07E9F0093D2CE5120786
:10115000A1F1073D4CE51407B1F506E221EE41EEA1
:1011600067ED7CE514C0053F5CE5150701F1C8F0AB
:10117000063F9CE5190739F507E225EE46EE66EFD6
:101180007CE505C007E225EE45EE68ED7CE5C7018C
:101190000E948E21A0CD06E221EE40EE63EF7CE5B9
:1011A000F6CF07E225EE44EE64EF7CE5F0CF06E2F1
:1011B00021EE42EE65EF7CE5EACF08E221E045EE64
:1011C00069ED7CE5E4CFD70112962C91222309F436
:1011D0006AC1109200020230BCE51B0708F463C12B
:1011E0000631ECE51E0730F0C8018A5F9C4509977F
:1011F00008F059C10E945031909336028093350215
:101200000031FCE51F0709F4C3C008F041C00830F5
:101210004CE5140709F49AC0F0F404308CE5180783
:1012200009F487C068F40230ACE51A0709F477C006
:1012300003301C4509F0E5C080913502826076C01C
:101240000630ECE51E0709F46EC008F07BC0809103
:10125000350288606BC00C302CE5120709F485C09C
:1012600068F40A305CE5150709F474C008F079C029
:101270000E94122C80913502806858C00E309CE587
:10128000190709F476C008F07FC0809135028BC041
:101290000B3FBCE51B0709F44FC018F50331FCE513
:1012A0001F0709F47DC078F401314CE5140709F4F7
:1012B00073C002311C4509F0A4C00E94122C809119
:1012C00035028F7733C005318CE5180709F472C0F9
:1012D00008F486C00A3F1C4509F093C0809136028D
:1012E0003EC00F3FBCE51B0709F45FC058F40D3F3B
:1012F000FCE51F0709F444C008F43FC080913602A2
:1013000082602DC001304DE5140709F475C008F462
:101310005DC002301D4509F074C060E06EC0809170
:101320003502816003C0809135028061809335026F
:1013300068C08091350211C080913602826080932E
:1013400036025FC0809135028062F0CF8091350215
:101350008064ECCF8091350288608460E7CF816043
:10136000EECF809135028E7FE1CF809135028D7F67
:10137000DDCF80913502877FD9CF8091360218C0AA
:10138000809136028D7FDBCF809135028F7ECECF6C
:10139000809135028F7DCACF809135028F7BC6CF79
:1013A00080913502877F8B7FC1CF809136028D7F00
:1013B0008E7FC5CF8091350282FB222720F991E0F4
:1013C000922790FB82F990FB83F9B0CF809136028F
:1013D000982F909591708E7F892B90FB81F9AFCFDC
:1013E0000E94122C8091350287FB222720F991E080
:1013F000922790FB87F99ACF61E08EE090E00E94FF
:10140000C934609135021091360284E090E00E9468
:10141000C934612F82E290E00E94C9340E94122CEC
:101420005ACC90911F0291FD04C02091BB03211161
:1014300083CE95FF21C02091FE013091FF01D6019E
:10144000A21BB30B9D0196FD02C081FD15C02F3A72
:10145000310590F42091FC013091FD010217130732
:1014600059F481FF05C08091BC0382608093BC0366
:10147000802F0E94592C2FCC1093FD010093FC016A
:10148000D092FF01C092FE0180910201846080939E
:10149000020182E00E9453331ECC40E0B601C80135
:1014A0000E94932018CC0631FCE51F0709F040C0CC
:1014B0008091BB03982F9A7A30911E0230FF04C0AE
:1014C000482F447409F090E031FF04C0482F417167
:1014D00009F090E032FF04C0482F487809F090E00E
:1014E00033FF02C0827261F42223A1F081E09111E6
:1014F00001C080E080930102992331F065E305C0CB
:10150000222341F01092010269E28CE293E00E94F2
:101510001B310BC080910102882311F065E301C0EB
:1015200069E28CE293E00E94F3300E942032D3CB38
:10153000222309F413C18091BB0382720C3C9CE509
:10154000190709F4C0C008F045C0063CBCE51B07FC
:1015500009F4A5C0D8F4033CFCE51F0709F495C0C5
:1015600030F4023C4CE5140709F46AC0C6C0043CE0
:101570005CE5150709F48EC0053C9CE5190709F0E8
:10158000BCC040E559E169E579E1A1C0093CACE5A1
:101590001A0709F48EC078F4073CECE51E0709F43D
:1015A00083C0083CFCE51F0709F0A7C044E459E1EB
:1015B00068E379E18CC00A3C2CE5120709F47EC08F
:1015C0000B3C4CE5140709F098C043EA57E164EB83
:1015D00077E17DC0013D5CE5150709F47CCBA0F403
:1015E0000E3C9CE5190709F47AC008F473C00F3C5F
:1015F000BCE51B0709F476C0003DECE51E0709F0C9
:101600007CC06EE089E076C0043DFCE51F0709F46C
:101610006FC058F4023D4CE5140709F466C0033D61
:101620005CE5150709F457CB68C0053D8CE5180744
:1016300009F451CB0D359DE5190709F44CCB5DC07C
:101640008091750280FF1BC08E7F80937502609130
:1016500075027091760280917702909178020E94D3
:10166000911710927402AFEFB0E7E2E0A150B040E2
:10167000E040E1F700C000000E9437172CCB8160EA
:101680008093750261E0869527C04DE959E166EACD
:1016900079E11DC046EA59E16DE979E118C049E5F3
:1016A00059E160E579E113C048E359E164E479E187
:1016B0000EC040E259E16CE279E109C04CE259E127
:1016C00060E279E104C044EB57E163EA77E10E940C
:1016D000492401CB61E081E00E946219FCCA65E007
:1016E00082E008C068E086E005C061E18FE002C0EA
:1016F0006BE182E10E943724EECA0A35FDE51F073F
:1017000041F150F401154CE51407A9F00E3D1C45BC
:1017100029F50E946131DFCA0B358DE51807D9F034
:101720000C351D45D9F48091360282FB882780F95B
:1017300091E0892711C00E94122CAFEFB4E3ECE0D6
:10174000A150B040E040E1F700C000000E945930D5
:10175000C2CA81E001C080E00E94E531D701129643
:101760008C9112970D911C91882349F0C8010E9419
:101770007A32D82E682FC8010E94F73204C0C801FF
:101780000E94C732D82EB8018D2D0E944F1B8C01AC
:10179000882EF701B280C580C2946FE0C622809186
:1017A000B903877099F0BB2089F0812F807F803446
:1017B00021F080E2800F883048F082E00E945333AD
:1017C0008091B9038770AA24A3948111A12C912E32
:1017D00092945FE09522892D90E08C30910508F07D
:1017E000C3C2FC01EA5AFF4F0C942D35912F9F7014
:1017F000812F807FD92E19F0D29440EFD422BB20C4
:10180000B9F0DD2009F48EC280E2800F883010F03C
:10181000811006C08091BB03D82AD092BB0305C0BB
:101820008091BC03D82AD092BC030E9420327AC295
:10183000802F0E94272CDD2009F496C280E2800FC1
:10184000883010F0811004C08D2D0E94DE3103C05D
:101850008D2D0E94D7310E94203286C2912F9F7019
:10186000812F807FD92E803219F0D29430EFD3228D
:10187000882029F0F1E08F1609F44FC05CC0BB202E
:1018800079F1CC2039F144244394C41013C08091E1
:10189000360282FD69C28091BF03D82AD81609F4A6
:1018A00063C20E94BE309093BE038093BD03D0926A
:1018B000BF035AC280912002823060F0C8120AC071
:1018C0000E94CC318091B603D81609F452C0D09250
:1018D000B6034FC08091BF038D290E94B42B44C230
:1018E000CC2081F08091200255245394C51010C063
:1018F000823008F439C28091BB038D2109F434C2CF
:101900000E9474320E94CC318D2D0E94C52B2CC2B6
:101910008230C0F3C812F6CF27C2BB2031F025E0D9
:10192000622E6C1408F420C224C094E0792E7C143A
:1019300008F41AC2E9CFBB20F1F0CC20D1F020E0AE
:10194000D7014C9111965C91119712966C91129758
:1019500013967C91139714968C910E94971D8091F9
:10196000210281FDDFC1F701858180FFDBC18F701E
:1019700085838D2DB2CFCC2039F2F9E38F12E4C1EB
:10198000DEC1812F86958695837019F0813059F0DC
:10199000EBC1BB2019F0C801937002C080E090E059
:1019A0000E947120E1C1BB2019F0C801937002C0F0
:1019B00080E090E00E945B20D7C1802FBB2029F0FF
:1019C0000E94E71A0E94B01902C00E94DA190E9410
:1019D000B019CAC1812F837009F06AC0B110C4C1A7
:1019E000902F929596959770990F990F802F8F70E1
:1019F000482E512C612C712C092E04C0440C551C0E
:101A0000661C771C0A94D2F704FF12C04FE050E026
:101A100060E070E004C0440F551F661F771F9A9561
:101A2000D2F7DB01CA0180959095A095B09503C0CF
:101A300080E090E0DC01612F66956695637062300E
:101A4000D9F068F52091C0033091C1034091C203E1
:101A50005091C303613059F084299529A629B729EB
:101A6000BC01CD0162237323842395231EC0422A27
:101A7000532A642A752A13C084299529A629B729CF
:101A80004090C0035090C1036090C2037090C303A4
:101A9000BC01CD01642575258625972506C0BC01AE
:101AA000CD0164297529862997290E94A7335CC135
:101AB000BB2019F0812F817001C08695882309F41D
:101AC00053C1902F929596959770990F990F802FEB
:101AD0008F70482E512C612C712C092E04C0440C9F
:101AE000551C661C771C0A94D2F704FF12C04FE005
:101AF00050E060E070E004C0440F551F661F771F80
:101B00009A95D2F7DB01CA0180959095A095B09582
:101B100003C080E090E0DC01612F669566956370FC
:101B20006230D9F068F52091270330912803409165
:101B3000290350912A03613059F084299529A62957
:101B4000B729BC01CD01622373238423952391C05F
:101B5000422A532A642A752A13C084299529A62962
:101B6000B729409027035090280360902903709074
:101B70002A03BC01CD01642575258625972579C0EA
:101B8000BC01CD01642975298629972972C0212FAE
:101B90002F70D22EBB2029F0822F0E947033802F0D
:101BA0009CCE802F0E94C52B8D2DDAC0802F42EF56
:101BB000841609F443C0481538F050EF851661F0DB
:101BC00091EF8916A9F1AAC0A3EF8A16E9F1B4EF43
:101BD0008B1609F451C0A2C0BB2029F0E4E0EC153B
:101BE00008F4C2C005C085E0582E5C1408F4BCC0DF
:101BF000212F2F7181E090E0A0E0B0E0AC01BD01A9
:101C000004C0440F551F661F771F2A95D2F7809195
:101C1000270390912803A0912903B0912A032A0158
:101C20003B01482659266A267B26C301B20121C002
:101C3000812F8F71BB2009F493C07AC0812F8F71DF
:101C4000BB2009F475C08CC0BB2081F0212F2F71FF
:101C500081E090E0A0E0B0E0BC01CD0104C0660FDF
:101C6000771F881F991F2A95D2F703C060E070E0A4
:101C7000CB010E94243378C0909120029230B8F1B9
:101C8000BB20F1F08091B6030E94DE318091B90350
:101C90008770843039F40E94FF31812F8F710E9448
:101CA0002E3361C080912002C81608F05CC0212F3D
:101CB0002F71D22E822F0E94703363E08D2D10C0C1
:101CC0002091BB038091B603822B8093BB03C9167E
:101CD00050F00E94FF310E94743264E0812F8F71B6
:101CE0000E94913340C081E00E9453333CC0BB202E
:101CF00059F0412F4F71D42E842F0E94703363E02E
:101D00008D2D0E94913330C081E00E94533351E009
:101D10005C1550F582E00E94533326C0BB2059F079
:101D2000CC2021F0802F0E94592C1EC0812F8F7152
:101D30000E94703319C0CC2089F0893329F4809136
:101D400024029091250204C08091220290912302E6
:101D50000E945020802F0E94272C06C0812F8F7157
:101D60000E942E3301C0A12C88EF890D843020F40D
:101D70000E9487200E94DE1CC8010E94CC2B81118A
:101D800005C0109203021092020225C0BB2019F078
:101D9000C110F7CF20C0C110F4CF20E0D7014C9183
:101DA00011965C91119712966C91129713967C91F3
:101DB000139714968C910E94971D8091210283FFA6
:101DC000E0CF80910202909103020297D1F6802F1A
:101DD0000E94D12CD6CFAA20A9F08091B90380FD12
:101DE00011C0F70112828595859585950E94703303
:101DF000C7010E9463058091B903859585958595F6
:101E00000E942E3320E0D7014C9111965C911197DE
:101E100012966C91129713967C91139714968C914D
:101E20000E94971D09C001312FE5120711F00C9493
:101E30008B0682E00C94670664960FB6F894DEBFBA
:101E40000FBECDBFDF91CF911F910F91FF90EF900B
:101E5000DF90CF90BF90AF909F908F907F906F90CA
:101E60005F904F903F902F900895CF93DF93CDB721
:101E7000DEB7E4970FB6F894DEBF0FBECDBF84B7D0
:101E8000877F84BF0FB6F894A89580916000886121
:101E900080936000109260000FBE90E080E80FB663
:101EA000F89480936100909361000FBE85B78068BD
:101EB00085BF85B7806885BF8DEB9FE290938D01CC
:101EC00080938C010E94E123109227021092260237
:101ED00081E090E090932C0280932B0282E090E0CE
:101EE00090933102809330020E9405220E94F629CD
:101EF0000E94152A8091E20084608093E200789429
:101F000080911D038823A1F01091E9001F7090912A
:101F1000EC00892F817090FD80E8182B1092E90069
:101F20008091E80083FD0E94D4261F701093E90081
:101F300082E084BD93E095BD9AEF97BD80936E00DB
:101F400084B18F6184B93E98469A3F9A8AB1806F76
:101F50008AB95F9A4798269A2E9A10924402109254
:101F600043021092460210924502109248021092CB
:101F7000470210924A021092490210924C021092AB
:101F80004B0210923A021092390210923C021092C7
:101F90003B0210923E0210923D02109240021092BB
:101FA0003F02109242021092410283E492E0909329
:101FB0007B0280937A0289E392E0909338028093C7
:101FC000370280E090E00E94C3348A3E9E4F11F0B9
:101FD0000E94613182E090E00E94B53480936602F5
:101FE0000E94503190933602809335020E944C1E1D
:101FF0003FEF46E781E0315040408040E1F700C0CC
:1020000000000E944C1EE0917A02F0917B028081D8
:1020100080FF17C06FEF83E290E00E94C9346FEF3A
:1020200084E290E00E94C9346FEF85E290E00E9464
:10203000C9346FEF7FEF80E090E00E94E7340E94A8
:10204000593083E090E00E94B534682F70E080E062
:1020500090E00E94A733269A2E9A83E290E00E9495
:10206000B5348A3381F484E290E00E94B534843D33
:1020700051F485E290E00E94B53491E0843D09F08E
:1020800090E0892F01C080E080FF68C680914D02FA
:10209000811136C080E090E00E94C3348A3E9E4F9A
:1020A00021F00E9461310E94C51788E090E00E94F3
:1020B000BD3460937502709376028093770290939B
:1020C00078026E7F71F40E94C51788E090E00E944C
:1020D000BD3460937502709376028093770290937B
:1020E00078020E947E17109274028091750280FF20
:1020F00004C060E086950E94621981E080934D02E1
:1021000089E091E090934F0280934E0258E1A52E12
:10211000B12C60E4562EDD24D394CC24C39480915A
:102120001D03853009F079C000E112E180911D03A3
:10213000853009F05BC080911D03843009F440C0F4
:1021400080E00E94DE1C1092740280915202811184
:1021500016C0C092520280917502982F9170909390
:1021600051028E7F80937502FFEF20E732E0F1503D
:1021700020403040E1F700C000000E943717109265
:1021800050020FB6F894A895A09260000FBE50922E
:10219000600083B7817F846083BF83B7816083BF22
:1021A0007894889583B78E7F83BF0FB6F894A895EF
:1021B00080916000886180936000109260000FBE83
:1021C00080911C03882309F4B1CF0E944C1EE0913A
:1021D0007A02F0917B02CF010A9621913191232B53
:1021E00009F06FC58E179F07C1F7A0CF0E94122C70
:1021F0000E9487200E94DE1C1092520280915102A0
:10220000882349F08091750281608093750260E0B7
:1022100086950E9462190E944F240E944C1E8111D3
:102220000E94B230E0917A02F0917B02A7E6B2E020
:1022300000E010E0702F219131918D919D918227C6
:102240009327009779F160E0EE24E394F12CAC0140
:102250004E215F21452B09F16BA77CA72E213F2141
:1022600081E0232B09F480E08DA70E94BE308160BD
:10227000782F9FA78EA74BA55CA56DA58FA50E9463
:102280006524000F111FF801E959FD4F80819181EC
:10229000E826F926F182E0821AC06F5FEE0CFF1C7F
:1022A0006031A9F60F5F1F4F0530110519F68FEF4A
:1022B00088AB89AB1AAA0E94BE308160782F9CAB94
:1022C0008BAB48A959A96AA98CA90E946524809161
:1022D0007402882309F468C080917302E09175024A
:1022E000E695E81BE0935502823059F4F0E0E75E92
:1022F000FE4FE4910E2F10E08CE3E82E80E2F82EE2
:102300002EC0863059F4F0E0EA5EFE4FE4910E2FC5
:1023100010E0BCE2EB2EB0E2FB2E21C0893061F46C
:10232000E695F0E0ED5EFE4FE4910E2F10E0A2E0A6
:10233000EA2EA0E2FA2E13C08F3059F4F0E0E05FED
:10234000FE4FE4910E2F10E0F4EBEF2EFFE1FF2E95
:1023500006C000ED17E0E3EBEE2EEFE1FE2E8091DC
:102360005602882361F0109256020E94BE3090936C
:1023700054028093530210925802109257020E9406
:10238000BE30E0915302F09154028E1B9F0B8F3FA1
:102390009F4750F40E0F1F1F1093540200935302D7
:1023A00083E592E0F701099586E0EFE5F2E08E0122
:1023B0000F5F1F4FD80101900D928A95E1F7809031
:1023C000610290906202E0906302F09064021092C9
:1023D00061021092620210926302109264028110F4
:1023E00003C0992009F45BC080915D0290915E0268
:1023F0000E94A330AC0190915C02992339F02091A6
:10240000060130E02417350758F049C02091050136
:10241000FAE02F9F900111242417350718F03FC0D0
:102420009F3F19F09F5F90935C02882061F00E94AB
:10243000981A181414F491E001C09FEF899F802D21
:10244000112480936102992061F00E94981A191456
:1024500014F491E001C09FEF899F802D1124809397
:102460006202309161023323D1F020916202222373
:10247000B1F045EB3403C0011124992319F0909376
:10248000610202C0D092610235EB2303C001112426
:10249000992319F09093620202C0D0926202E11077
:1024A00003C0FF2009F45BC080915A0290915B0247
:1024B0000E94A330AC0190915902992339F02091E8
:1024C000040130E02417350758F049C0209103017A
:1024D0008AE0289F900111242417350718F03FC087
:1024E0009F3F19F09F5F90935902EE2061F00E9488
:1024F0005F1A1E1414F491E001C09FEF899F802D94
:10250000112480936302FF2061F00E945F1A1F1460
:1025100014F491E001C09FEF899F802D11248093D6
:102520006402309163023323D1F0209164022223AC
:10253000B1F045EB3403C0011124992319F09093B5
:10254000630202C0D092630235EB2303C001112461
:10255000992319F09093640202C0D0926402809192
:10256000610281110BC080916202811107C08091CC
:102570006302811103C08091640281110E94B0192D
:102580008B829C82ED82FE8286E0F801AFE5B2E0AC
:1025900001900D928A95E1F70E9487209091650243
:1025A000891731F00E948720809365020E94DE1C0B
:1025B00080911D03843009F0B2CD83E08093E9005F
:1025C0008091E80082FFABCD8091E80085FF21C0BB
:1025D0000E944B2B81111BC070E2E72EF12C4801A9
:1025E00009C08091F100F40181934F01F1E0EF1AED
:1025F000F10869F08091E80085FDF3CF8091E80053
:102600008B778093E8000E944B2B882399F391E00D
:1026100001C090E08091E8008B778093E8009923D7
:1026200009F47DCDE0907C02F0907D028981E11477
:10263000F10461F08E3F09F01CC38A81833008F4F5
:10264000BAC18550833008F014C3B5C1893009F48C
:10265000ECC0D0F4843009F470C050F48230A1F1A1
:1026600008F05CC0813009F002C31A8289E028C2F8
:10267000863009F474C008F467C0873009F472C06A
:10268000883009F4B1C0F3C2803109F434C180F458
:102690008D3009F4D5C028F48C3009F0E8C280E10F
:1026A0008AC28E3009F4CFC08F3009F4F6C0DFC281
:1026B000823109F423C108F47DC2833109F447C192
:1026C0008E3F09F478C1D3C28A81823009F43DC3B8
:1026D000833051F0813009F0CAC20E94B2309B832E
:1026E0008C837D836E83C5C2809107019091080120
:1026F000892B09F4BEC2A0917A02B0917B02F80145
:10270000CE010B962C9111963C9111971296328323
:1027100023833296E817F907A9F7ABC28A81823082
:1027200009F0A5C26B817C818D819E810E94333529
:1027300086E290E00E94C9349CC24C816B818A8100
:102740000E9497239D8308C32D813E813227232732
:1027500032274C816B818A810E94C2228AC20E94E8
:10276000F82287C28A818138B1F050F4803809F0AC
:1027700080C220E04B81609177028091760231C067
:10278000823859F1833809F074C220E04091780210
:102790006C818B8126C060E08B810E9462199B81D5
:1027A00080917502911111C08E7F809375021092F5
:1027B00074022FEF30E742E0215030404040E1F713
:1027C00000C000000E94371754C2816080937502D8
:1027D00060E086950E9462194CC28B8180937902D9
:1027E00048C20E94851845C28A81813899F030F428
:1027F000803809F03EC28091780262C1823891F03F
:10280000833809F036C2809176028B8380917702FB
:102810008C832FC28091750280FF02C0869550C1C3
:1028200080E04EC1809179024BC160917502709138
:10283000760280917702909178020E94911719C2D6
:10284000DA8281E93DC1EA80FB80FE24EF24FE2488
:102850006C80712C8DE16816710408F00AC2480181
:10286000C70181599D4F9401201B310B2615370557
:1028700008F0FFC1E1E9EE16E1E0FE0628F40E944F
:10288000B534F401848302C0F4011482FFEFEF1A1F
:10289000FF0A2FEF821A920AE3CF809107019091ED
:1028A0000801892B09F4E5C1EA80FB80FE24EF24AE
:1028B000FE248C80912C3DE18316910408F0D9C14F
:1028C0003801C70181599D4F9301201B310B2815F9
:1028D000390508F0CEC141E9E41641E0F40620F4E0
:1028E000F30164810E94C934FFEFEF1AFF0A2FEF52
:1028F000621A720AE6CF0E948822BBC1EA80FB807E
:10290000FE24EF24FE246C80712C3DE163167104DB
:1029100008F0AFC14801C70187969401201B310B15
:102920002615370508F0A5C140EEE41641E0F4068F
:1029300028F40E94B534F401848302C0F4011482A7
:10294000FFEFEF1AFF0A2FEF821A920AE4CFEA8014
:10295000FB80FE24EF24FE248C80912C3DE1831625
:10296000910408F086C140EEE41641E0F40608F058
:1029700080C180EE91E08E199F098815990508F4B1
:1029800078C13801C70187969301201B310B2815A8
:10299000390508F06EC1E0EEEE16E1E0FE0620F427
:1029A000F30164810E94C934FFEFEF1AFF0A2FEF91
:1029B000621A720AE7CFEA818E2F90E08E3091057D
:1029C00008F057C1FC01EE59FF4F0C942D3588E0FB
:1029D000E7E2F1E0DE01919601900D928A95E1F730
:1029E00080E2F80111928A95E9F784E0898388E012
:1029F000FE01B196DE01159601900D928A95E1F7E0
:102A000038C180E88983DA821B821C8232C18C81C2
:102A100090E0982F88272B81820F911D092E000CA2
:102A2000AA0BBB0B65E0880F991FAA1FBB1F6A95F5
:102A3000D1F7AC01BD01405E5F4F6F4F7F4F48172C
:102A400059076A077B0708F414C18038F1E09F0733
:102A5000A105B10508F00DC1413821E0520761051B
:102A6000710520F040E851E060E070E0481B590B30
:102A7000BC016B547E4FC8010E949C34FAC040E2F6
:102A800050E06FEF70E0C8010E945035809107015F
:102A90008983EA82EEC081E090E090937D0280938A
:102AA0007C0282E390E090937202809371020E9414
:102AB000BE30DFC0809107018983EA828091710274
:102AC0008B83D7C0EB80FC8040E250E06FEF70E07A
:102AD000C8010E9450352DE131E080E090E0AC016A
:102AE0004E5F5F4F4132510508F0C3C0F901659157
:102AF0007491E616F70630F4F801E80FF91F7183B8
:102B00006083CA01285F3F4F41E0253B340739F716
:102B1000B0C04B815C8125EB31E08DE191E0FC019F
:102B2000659174914617570709F4E1C00896281774
:102B30003907A9F79CC02B813C8185EB91E04DE1E1
:102B4000E42E41E0F42EF701459154912417350706
:102B500009F484C0E8E0EE0EF11C8E159F0599F78C
:102B600086C00E94492285C08B81823031F1A8F451
:102B70008823C9F0813009F07CC08C812AE0F22ED4
:102B80004E01F1E28F0E911CF4012F2D11922A9526
:102B9000E9F7B4010E94AD223EC0833069F1843070
:102BA00009F442C066C080E2F80111928A95E9F703
:102BB00084E0898383E08A835CC06C818AE0FE01C3
:102BC0003596DE01919601900D928A95E1F7643079
:102BD00070F43AE0639FB0011124675D7D4F4AE0D5
:102BE00050E0CE0181960E94ED3480E001C08FEF6D
:102BF00089830E94E1233DC08C819AE0F92E4E0129
:102C000041E2840E911CF4012F2D11922A95E9F7CF
:102C1000B4010E9498228983F401DE01129601908A
:102C20000D92FA94E1F725C06C818AE0FE01359699
:102C3000DE01919601900D928A95E1F76330B8F428
:102C40003AE0639FB00111246F5A7D4F4AE050E093
:102C5000CE0181960E94ED3480E00AC0C701029641
:102C6000FC01259134912D31310508F456C08FEFC8
:102C7000898380911D03843009F051CA8091E90055
:102C80008F702091EC00922F917020FD90E8F92E2A
:102C9000F82A82E08093E9008091E80080FF0CC070
:102CA00040E050E060E270E0C8010E947E2B80911D
:102CB000E8008E778093E8008F2D8F708093E90075
:102CC0002ECA09BD19BD09B400FEFDCF8091D80000
:102CD0008F7D8093D8008091E00082608093E00037
:102CE0008091E00081FDFCCF0E94122C1FCA9C0144
:102CF0002E5F3F4FF901459154914032510508F044
:102D0000B6CFF90145915491FC01349665917491C7
:102D1000CE0102960E9447359FCFFC014591549108
:102D2000F701349685919491BE016B5F7F4F0E94AD
:102D300047350E942C22F701369685919491009791
:102D400009F48ACFFC01099587CF86E290E00E94C2
:102D5000B5341B821C821D828E838BCF60E086E29D
:102D600090E00E94C9340E94F8220E9488226AE3FF
:102D700083E290E00E94C93464ED84E290E00E9416
:102D8000C93464ED85E290E00E94C9347FC9909116
:102D9000350292FF0DC0282F2871283019F4877F43
:102DA000846006C0282F2471243011F48B7F886042
:102DB00093FF0DC0282F2871283119F4877E846174
:102DC00006C0282F2471243111F48B7E8861209154
:102DD000360220FF0DC0382F3871383019F4877F44
:102DE000816006C0382F3171313011F48E7F8860D8
:102DF00021FF0DC0282F2871283119F4877E8161A9
:102E000006C0282F2171213111F48E7E886194FD36
:102E1000877E08959C013A9521153F4138F5DC01E4
:102E2000AA27B270AC01442754709C012227387045
:102E300094FF0FC090FF02C080E101C080E0AB2B87
:102E400009F08062452B09F08064232B69F08068CB
:102E50000BC0892F8170AB2B09F08260452B09F0E4
:102E60008460232B09F08860FB0109940895809108
:102E7000750280FF0AC0529A8BB18B7F9BB1946020
:102E80002FB7F894E1E9F2E00BC0E1E9F2E011823A
:102E900010821282339632E0E23EF307C1F7EBCFA5
:102EA00032E0E23EF30789F0319148E09BB900003F
:102EB00000C037FF8BB9330F000000C000C000C056
:102EC0008BB900C04A9591F7EBCF2FBF8FE594E007
:102ED0000197F1F700C0000008959091750290FFEE
:102EE0000CC0E1E9F2E0818360834283339692E093
:102EF000E23EF907C1F70C943717089580917502E7
:102F0000282F269530E02115310519F48170826053
:102F100005C02C31310524F08170866380937502E1
:102F20000895CF92DF92EF92FF926B017C010E9495
:102F30007E17B701A60188E090E0FF90EF90DF9048
:102F4000CF900C94DB3480917902882319F0815062
:102F50008093790260917502709176028091770278
:102F6000909178020C94911780917902833018F433
:102F70008F5F8093790260917502709176028091E3
:102F80007702909178020C949117E5E7F2E083E0E4
:102F900080838FE781838FEF8283838314826081B4
:102FA0007181828193810C949117AF92BF92CF92DD
:102FB000DF92EF92FF920F931F93CF93DF93E82E50
:102FC000F62EE901E42FF0E0611106C0EB51FC4F51
:102FD000E4914E2F2E2F71C0062F10E0EB51FC4FC5
:102FE0004491F42FC42ED12C26E0829FC0011124DD
:102FF0002FEF30E0B9010E9405355BEA5603C001AE
:10300000579F900D11248E0D911D8E0D911D582FDF
:10301000550F580FD901A01BB10BAC9DC001AD9D40
:10302000900DBC9D900D1124E92FF59ED001112427
:10303000AB2FBB277901EA1AFB0AEC9CD001ED9C6F
:10304000B00DFC9CB00D11245901A51AB108A09E29
:103050007001A19EF00CB09EF00C1124EF2CFF2407
:103060002E193F092C9D80012D9D100D3C9D100DAA
:103070001124212F6230710591F048F4611571051A
:10308000E1F061307105B9F4242F4B2F16C0643084
:10309000710569F040F06630710579F00CC0242F9D
:1030A000492FE12F0AC0492FEF2F2B2F06C0292FC0
:1030B000E42F412F02C0292FEB2F49832883EA8375
:1030C000DF91CF911F910F91FF90EF90DF90CF9004
:1030D000BF90AF900895CF93DF9300D01F92CDB7EC
:1030E000DEB79091750290FF0AC09E012F5F3F4F9F
:1030F0000E94D5174B8169818A810E946D170F90BC
:103100000F900F90DF91CF9108955F926F927F9211
:103110008F929F92AF92BF92CF92DF92EF92FF92E7
:103120000F931F93CF93DF9300D01F92CDB7DEB7DD
:10313000182F762E042F622E9091750290FF6DC08D
:10314000E92FE695AE2FB0E0A15DBE4F8C91809344
:1031500073029E7F923061F49E012F5F3F4F812F5B
:103160000E94D5174B8169818A810E946D1743C0E7
:10317000823019F4009178023EC0863019F4109123
:10318000760239C08930D9F38231A9F5E2518E2F08
:103190008170582EE695F0E0EB51FB4FA590B4906E
:1031A00081E9C82E82E0D82EE12CF12CBB249BE1D2
:1031B000892E912CAE9CC001AF9C900DBE9C900DB1
:1031C0001124B4010E940535812F511002C0860FD1
:1031D00001C0861B9601402F672D0E94D5178FEFE7
:1031E000E81AF80A83E0C80ED11C8BE1E816F10456
:1031F00009F70E94371710937602709277020093B6
:103200007802662051F0609175027091760280918B
:103210007702909178020E9491170F900F900F9073
:10322000DF91CF911F910F91FF90EF90DF90CF90A2
:10323000BF90AF909F908F907F906F905F90089518
:10324000E5E7F2E0438128E0421B08F440E021E09A
:10325000628181810C948518E5E7F2E0438128E0E2
:10326000420F08F44FEF21E0628181810C948518B0
:10327000E5E7F2E0628128E0621B08F460E021E00B
:10328000438181810C948518E5E7F2E0628128E0B2
:10329000620F08F46FEF21E0438181810C9485185F
:1032A000E5E7F2E0818121E04381628188500C945E
:1032B0008518E5E7F2E0818121E043816281885F42
:1032C0000C9485189091750290FF36C09170811111
:1032D00002C0926006C08C3110F0966302C0880F65
:1032E000982B90937502662351F06091750270914E
:1032F000760280917702909178020E9491176091F6
:103300007502669570E04BE050E083E191E00E9429
:103310003A35892B19F01092740202C00E944F2492
:1033200081E08093560220E040917802609177021C
:10333000809176020C948518089580917502869587
:10334000815009F48BE161E00C946219809175025F
:1033500086958F5F8C3108F081E061E00C946219F2
:103360000E94BE3020916102211104C020916202AE
:10337000222321F090935E0280935D0220916302EC
:10338000211104C020916402222321F090935B025A
:1033900080935A02E0914E02F0914F02309749F02B
:1033A00082E080935F020480F581E02D8FE592E05A
:1033B00009940895803F39F48091620287FF6AC0C2
:1033C0001092620267C0813F29F480916202181650
:1033D000BCF360C090916102823F29F497FF5AC00C
:1033E0001092610257C0833F19F41916CCF352C0F2
:1033F00090916302893F31F419160CF04BC0109282
:10340000630248C08A3F19F497FF44C0F8CF8B3F4E
:1034100039F48091640287FF3DC0109264023AC083
:103420008C3F29F4809164021816BCF333C0843FAA
:1034300021F4809160028E7F17C0853F21F4809136
:1034400060028D7F11C0863F21F4809160028B7FE6
:103450000BC0873F21F480916002877F05C0883FC1
:1034600031F4809160028F7E8093600213C08D3FA3
:1034700021F480912B038E7F0BC08E3F21F480912D
:103480002B038D7F05C08F3F29F480912B038B7F09
:1034900080932B0380916102811106C080916202AA
:1034A000811102C010925C0280916302811106C0FA
:1034B00080916402811102C0109259020895809196
:1034C0002B0380FF08C06091210170E0759567951E
:1034D0007595679521C081FF06C06091210170E05C
:1034E0007595679519C082FF04C06091210170E055
:1034F00010C090915902992399F06091200196177C
:10350000A0F780912101899FC001112470E00E94E1
:1035100019356038710540F46115710519F406C05C
:1035200061E070E0862F08958FE7089581E00895A7
:1035300080912B0320910C0230910D0280FF0CC072
:1035400080912301829FB001839F700D1124769595
:103550006795769567952FC081FF0AC080912301FA
:10356000829FB001839F700D11247695679523C0CB
:1035700082FF08C080912301829FB001839F700D5C
:10358000112419C040915C02411102C0B90113C05D
:1035900060912201461770F780912301849FA0015A
:1035A0001124429FC001439F900D529F900D112402
:1035B00070E00E9405356038710528F461157105C9
:1035C00021F0862F08958FE7089581E00895803FC8
:1035D00021F40E94981A819504C0813F29F40E9429
:1035E000981A809362020895823F21F40E94981AEB
:1035F000819504C0833F29F40E94981A8093610248
:103600000895893F19F40E945F1A05C08A3F31F47A
:103610000E945F1A81958093630208958B3F21F485
:103620000E945F1A819504C08C3F29F40E945F1AA2
:10363000809364020895843F21F480916002816048
:1036400017C0853F21F480916002826011C0863FDF
:1036500021F48091600284600BC0873F21F4809147
:103660006002886005C0883F31F48091600280610B
:103670008093600208958D3F21F480912B03816037
:103680000BC08E3F21F480912B03826005C08F3FD9
:1036900029F480912B03846080932B030895CF93AA
:1036A000DF930E94C523EC018238910559F1A0F403
:1036B0008133910509F473C040F48932910509F40E
:1036C00067C08A9709F472C084C08533910509F4F4
:1036D00058C0C997B9F07DC0833E910571F138F4A7
:1036E000803E9105B1F0823E910511F172C0863E97
:1036F0009105B9F1873E9105C9F1843E910509F024
:1037000068C024C08091350280FD5DC081FD5BC032
:1037100060C08091350280FD50C08091360280FFEC
:1037200049C18091350284FD43C1C3EED0E042C15E
:103730008091350282FF3EC1F4CF8091350282FD37
:103740003FC08091360280FD3EC0EBCF80913602B3
:1037500081FF30C18091350284FD2AC1C7EED0E0DF
:1037600029C18091350283FF25C1F4CF80913502B4
:1037700083FD2CC08091360281FFECCFC4EED0E0F7
:1037800019C18091350285FF15C1C9E2D0E012C18F
:103790008091350285FF0EC1C5E3D0E00BC1809159
:1037A000350286FF07C1CAE2D0E004C1809135022C
:1037B00086FF00C1C1E3D0E0FDC0C9E3D0E0FAC09C
:1037C000C2EED0E0F7C0C0EED0E0F4C0C6EED0E06C
:1037D000F1C0C11581E5D80708F066C0C11520E524
:1037E000D207E0F0CE0174E0969587957A95E1F7DF
:1037F00083709C2F937021E030E002C0220F331FB2
:103800009A95E2F73C68382BCF70C695C69540E292
:10381000C49FE0011124C22BD32BCCC0C83ED105DC
:1038200060F5C03ED10508F0C5C0C83AD105B0F476
:10383000C53AD10540F0C55AD0E0C65ADE4FC8811E
:10384000D0E0D064B7C0C130D10509F4B3C008F4EA
:10385000AFC0C430D10508F4ABC0ACC0CF3BD1057C
:1038600008F0A6C0C85AD0E0CC0FDD1FC35ADE4F07
:103870000990D881C02DD4649DC0C11540E2D40701
:1038800058F4C11581E0D80708F094C0C03FD105B5
:1038900008F48EC0D0658EC0C11520E4D20708F4AC
:1038A00087C0DF70D06A86C0C11545E5D40708F02F
:1038B00042C0C11584E5D80728F0DC2FCC27C46F9F
:1038C000D06A78C0C11523E5D207B0F0CE0183706D
:1038D000992721E030E002C0220F331F8A95E2F7DA
:1038E0008C2F8695869540E2849FC0011124E901C2
:1038F000C82BD92BDA685EC0C11542E5D40728F47D
:10390000DC2FCC27C16FD06A55C0CE0183709927B8
:1039100021E030E002C0220F331F8A95E2F78C2F9E
:103920008695869540E2849FC0011124E901C82B49
:10393000D92BDC683FC0C11589E5D807B8F4C1159B
:1039400028E5D20728F0DC2FCC27C06FD06A32C020
:10395000C11546E5D40760F58C2F0E94C7168F71FC
:10396000C82FD0E0DC2FCC27D06224C0C1158AE557
:10397000D80780F48C2F8F700E94C71694E0D695DC
:10398000C7959A95E1F7CF70D0E0DC2FCC27D069AE
:10399000C82B10C0CE0190568115904248F48D2F4F
:1039A0008F710E94C716DD27D0628F71D82B02C09D
:1039B000C0E0D0E0CE01DF91CF91089581FD02C03B
:1039C0002E9A08952E980895AF92BF92CF92DF92CB
:1039D000EF92FF920F931F93CF93DF93EC018AE056
:1039E000A82E2881222309F497C0213009F041C074
:1039F0008981813039F48E010E5F1F4F8A810E94C8
:103A0000D12C08C0823041F48E010E5F1F4F8A8195
:103A10000E94592CE8017EC0833039F48E010E5F7C
:103A20001F4F8A810E94272CF5CF843011F02196F8
:103A300071C02A81229680E090E030E02053310965
:103A40002A30310558F4A89EA001A99E500D1124DA
:103A5000C901840F951F21962881EFCF009709F4A3
:103A600059C0EFE9FFE03197F1F700C0000001977E
:103A7000F5CFE22FF0E0EB59FC4FB490822F869502
:103A80008695869590E0FC01EB5AFC4FE4902770F8
:103A9000F12C022E02C0F594E7940A94E2F7F1E0CB
:103AA000EF22FF24FC01EB5BFC4FC490D12C022ED3
:103AB00002C0D594C7940A94E2F731E0C322DD2412
:103AC000FC01EB5CFC4F049110E002C015950795DA
:103AD0002A95E2F701701127E114F10419F081EE43
:103AE0000E94592CC114D10419F086EE0E94592C61
:103AF0008B2D0E94D12CCD2819F086EE0E94272C08
:103B0000EF2819F081EE0E94272C012B19F08CE28E
:103B10000E94D12C219665CFDF91CF911F910F91FB
:103B2000FF90EF90DF90CF90BF90AF9008951F93DC
:103B3000CF93DF9300D000D01F92CDB7DEB749837B
:103B40005A8389819A81662359F0222349F00E9481
:103B50007A32182F682F89819A810E94F73203C028
:103B60000E94C732182F69817A81812F0F900F90A0
:103B70000F900F900F90DF91CF911F910C94C52360
:103B8000CF93DF93EC010E94272CCE01805E910938
:103B9000089710F0209719F465EC7BE202C06EEBF9
:103BA0007BE2CE01DF91CF910C940A17CF93DF9384
:103BB000EC01805E9109089710F0209719F464EBEE
:103BC0007BE202C06AEA7BE2CE010E940A178C2FD8
:103BD000DF91CF910C94592C1F920F920FB60F9238
:103BE00011248F939F93EF93FF938091B900887F67
:103BF000803869F038F48823C9F18036C9F510920D
:103C00008F0236C0883A09F1883BF9F031C08091C3
:103C10008F02811111C08091BB0080938E02809130
:103C20008E02803120F010928E0280E001C081E08F
:103C300091E090938F021DC0E0918E02F0E08091A0
:103C4000BB00E258FD4F808308C0E0918E02F0E097
:103C5000E258FD4F80818093BB0080918E0290E0FE
:103C600001968F70992780938E0202C01092BC003B
:103C700081E09091BC008295880F880F807C9568C8
:103C8000892B8093BC00FF91EF919F918F910F90B2
:103C90000FBE0F901F901895CF92DF92EF92FF9278
:103CA0000F931F93CF93DF93809137029091380247
:103CB00020917A0230917B023093380220933702B0
:103CC00090937B0280937A0200E010E0C1E0D0E0A4
:103CD00085B1982F907E03FF02C020E101C028E04B
:103CE000802F8770892B822B85B9AE01002E02C0F0
:103CF000440F551F0A94E2F7BA016095709520E0D1
:103D000030E08BB18F708068F90194E0EE0FFF1FF7
:103D10009A95E1F78E2B8BB98AE08A95F1F700C06E
:103D2000C901880F991FE0913702F0913802E80F1E
:103D3000F91F0190F081E02DE423F523EF2B09F02A
:103D4000479AE5E3EA95F1F70000F6B45F98EAE0F8
:103D5000EA95F1F700C0E0917A02F0917B02E80F5A
:103D6000F91F369B05C0A081B181A623B72304C0EB
:103D7000A081B181A42BB52BB183A083E6B5EF1947
:103D8000E63088F0E0913702F0913802E80FF91F31
:103D90000190F081E02DA0917A02B0917B02A80FF2
:103DA000B91FED93FC938AE18A95F1F700C047981B
:103DB0005F9A8BE291E00197F1F700C000002F5F5E
:103DC0003F4F2530310509F09CCFA0917A02B09188
:103DD0007B02E0913702F09138021A962D913C91C6
:103DE0001B97828593852817390711F00E94B230FE
:103DF0000F5F1F4F0031110509F06ACF809100015C
:103E00008F3F49F1F12C86E1E82E1BC0E09EF001C6
:103E1000E19EF00D1124E057FE4FC288D388C114F3
:103E2000D10421F4C0901C02D0901D02E09EE0015C
:103E3000E19ED00D1124C057DE4F8E81811110C03C
:103E4000F3940F2D10E080910001082E000C990BC7
:103E500080179107DCF680910101811118C02BC0F9
:103E60008D859E850E94A330C816D90648F789899A
:103E7000811103C0CE010E94F420E09EC001E19EAA
:103E8000900D11248A569E4F0E941521D9CF809102
:103E9000F7019091F801009771F00E94A3302091F2
:103EA0001A0230911B022817390728F481E00E947A
:103EB0006E210E945C2180911F0280FF1CC08091B6
:103EC000020182FF18C00E94BE302091FE01309195
:103ED000FF01AC01421B530B2091240130912501BD
:103EE0004217530740F041E0BC018091FC019091E2
:103EF000FD010E94932081E0DF91CF911F910F91EE
:103F0000FF90EF90DF90CF900895E4E0F2E084819D
:103F100095812AE030E0B9010E94053560930501E2
:103F20008681809306018285809323018485809316
:103F3000220186859785B9010E94053560930301AA
:103F400080898093040182898093210184898093F0
:103F5000200108958091040290910502909325011B
:103F600080932401089508950F931F93CF93DF93B7
:103F7000C1E9D2E0FE01118210821282339682E002
:103F8000E23EF807C1F700E010E080919002082EB1
:103F9000000C990B0817190794F080911F01082E47
:103FA000000C990B8017910754F09E014091780204
:103FB00060917702809176020E94D51703C0198222
:103FC00018821A820F5F1F4F23960B311105E9F6F5
:103FD0000E94371780911E0190919002980F909344
:103FE000900220911F01280F20931F01121614F434
:103FF0009A311CF0819580931E01DF91CF911F9122
:104000000F910895EF92FF921F93CF93DF93EC01EE
:1040100081E9E82E82E0F82E10E08C819701409132
:10402000780260917702810F0E94D517175F83E0B5
:10403000E80EF11C133F89F70E9437179A818C8193
:1040400090FF02C08F5F01C081508C83DF91CF91C0
:104050001F91FF90EF900895CF93DF93EC01E5E778
:10406000F2E0438162818C810E946B188C818F5FAA
:104070008C83DF91CF910895CF93DF93EC01EC8196
:10408000F0E0E651FB4F4491E5E7F2E06281818187
:104090000E946B188C818F5F8C83DF91CF91089584
:1040A000009741F0EFE9FFE03197F1F700C0000021
:1040B0000197F6CF08952091F6023091F702281764
:1040C000390771F09093F7028093F602E0914E0267
:1040D000F0914F02309721F00084F185E02D099492
:1040E00008952091F4023091F5022817390771F0F4
:1040F0009093F5028093F402E0914E02F0914F020A
:10410000309721F00680F781E02D09940895E09121
:104110004E02F0914F02309721F00190F081E02D96
:10412000099480E00895FF920F931F93CF93DF933C
:104130008C01EB01F42E8091020182FF3CC08B7F49
:10414000809302018091FE019091FF019B01281B49
:10415000390B80912401909125012817390750F4DB
:104160008091FC010E94592C809102018D7F8093E7
:10417000020116C08091BC0382608093BC038091D1
:10418000FC010E94592C80910201826080930201FF
:1041900080911F0285FF04C086FD02C0F1101EC081
:1041A00080912202909123020E9450208091FC0174
:1041B0000E94272C0AC0802F0E94272C8091FC018E
:1041C0009091FD010817190719F482E00E94D73178
:1041D0000E942032D093FF01C093FE01DF91CF9166
:1041E0001F910F91FF900895CF93DF93EC0181E031
:1041F000898B9091BB038F81892B8093BB03909116
:10420000BC038885892B8093BC030E942032EA81FD
:10421000FB81CE010696309729F06C897D89DF916C
:10422000CF910994DF91CF910895EF92FF920F9370
:104230001F93CF93DF93FC012285211136C0EC013F
:10424000E380F480F7E5FF1A26E12E9DC0012F9D43
:10425000900D1124DC01A057BE4F1496ED91FC91F6
:1042600015978A569E4F309729F054966D917C9100
:104270005597099586E18E9D80018F9D100D112423
:1042800000571E4FF80187810E94DE31F8018085BA
:104290000E94D7310E942032188219861B861E8206
:1042A0001D8210928F0110928E01DF91CF911F918C
:1042B0000F91FF90EF900895E6E2F2E080E090E049
:1042C0008330910531F0248127FF148201963596C1
:1042D000F7CF9093FB018093FA010895CF939091CB
:1042E000F6019923C9F0882311F0C0E003C01092B1
:1042F000F60112C08091F601C817C8F7EC2FF0E064
:10430000EE0FFF1FE851FE4F808191810E94D61D64
:104310000E942032CF5FEECFCF9108950F931F936D
:10432000CF93DF93C42FD22FFC0182818823C9F061
:10433000409300020E94BE309093F3028093F202F9
:1043400080E28C0F883008F05BC0C77081E001C04C
:10435000880FCA95EAF7DF91CF911F910F910C94C6
:10436000B42B80910002481334C08091F2029091E6
:10437000F3020E94A33020911C0230911D0282178B
:10438000930738F510E21D0FCD17B9F080E28C0FBE
:10439000883040F4C77081E001C0880FCA95EAF701
:1043A0000E94C52B183028F581E09D2F977001C021
:1043B000880F9A95EAF70E94B42B802F0E94D12C87
:1043C0001830F0F4D77081E001C0880FDA95EAF771
:1043D0000AC080E28C0F883098F4C77081E001C079
:1043E000880FCA95EAF7DF91CF911F910F910C9436
:1043F000C52B802FDF91CF911F910F910C94D12C61
:10440000DF91CF911F910F9108950F931F93CF9339
:10441000DF9304E012E0C7E0D2E0CE010E94B534A1
:10442000F80181938F012196C932F2E0DF07A9F7E5
:10443000C0E0D0E0FE01ED5DFE4F859194910097C4
:1044400011F0FC0109952896C839D10599F7DF913B
:10445000CF911F910F9108950F931F93CF93DF93E7
:1044600004E012E0C7E0D2E0CE010E94B534F801CA
:1044700061918F01681719F0CE010E94C93421960D
:10448000C932F2E0DF0781F7DF91CF911F910F91E1
:104490000895E4E0F2E0128E138E8FEA90E09183AB
:1044A000808325E0248F28E833E1338322834CE2A4
:1044B00051E05583448322E330E03783268325E0AF
:1044C00030E0318720872AE030E03387228764E1BB
:1044D00070E0758764875787468744E650E0518BC4
:1044E000408B48E050E0538B428B48E250E0558BC4
:1044F000448B978B868B918F808F158E378F268F6D
:1045000080E590E091A380A30E942C220C940522C8
:10451000CF93DF93CFE6D2E060E0CE010E94C934B2
:104520002196C11584E0D807B9F7DF91CF9108959E
:10453000833080F49B01982F8AE0989FB00111246A
:104540006F5A7D4F4AE050E0C9010E94A53480E0D7
:1045500090E008958FEF9FEF0895843080F49B01E1
:10456000982F8AE0989FB0011124675D7D4F4AE043
:1045700050E0C9010E94A53480E090E008958FEFDB
:104580009FEF08950F931F93CF93DF93833058F5D8
:10459000653048F5403138F521159CE5390731F48F
:1045A000E0910701F0910801EF2BE9F08901C42F98
:1045B000D0E0CC0FDD1F90E2699FC00DD11D11240A
:1045C00090EA899FC00DD11D1124612FCE018796DD
:1045D0000E94C934602FCE018896DF91CF911F9140
:1045E0000F910C94C934DF91CF911F910F910895D1
:1045F0006F927F928F929F92AF92BF92CF92DF92F3
:10460000EF92FF920F931F93CF93DF93CDB7DEB757
:1046100064970FB6F894DEBF0FBECDBFA090070120
:10462000B090080181E090E0909308018093070129
:10463000612CC12CD12C712CE12CF12C00E010E06C
:1046400046018E0C9F1CF401E00FF11FEE0FFF1FBF
:10465000E651FA4F25913491402F672D862D0E9407
:10466000C2220F5F1F4F0031110569F780E1E80E8C
:10467000F11C7394E5E07E12E1CFF0E5CF0ED11C82
:10468000639483E06812D7CF0E9449221A8219826C
:104690001C821B821E821D8218861F828FEA90E078
:1046A0009A87898709E212E04AE050E0B801CE011A
:1046B00001960E94ED34065F1F4F0135E2E01E07B0
:1046C00099F78E01055F1F4F8AE0F80111928A95D4
:1046D000E9F74AE050E061E572E0C8010E94ED347C
:1046E0004AE050E06BE572E0C8010E94ED344AE018
:1046F00050E065E672E0C8010E94ED34B092080116
:10470000A092070164960FB6F894DEBF0FBECDBF2E
:10471000DF91CF911F910F91FF90EF90DF90CF909D
:10472000BF90AF909F908F907F906F9008950F9360
:104730001F93CF93DF93833008F56530F8F4403151
:10474000E8F4C42FD0E0CC0FDD1F20E2629FC00D43
:10475000D11D112430EA839FC00DD11D1124CE013B
:1047600087960E94B53490E0182F0027CE018896D6
:104770000E94B5349801282BC90102C080E090E066
:10478000DF91CF911F910F910895462F20917C02C8
:1047900030917D02232B91F47E3F39F46E3F71F40A
:1047A0008091F0029091F1020895833038F47530D1
:1047B00028F4603118F4672F0C94972380E090E080
:1047C00008958F929F92AF92BF92CF92DF92EF9215
:1047D000FF920F931F93CF93DF93CDB7DEB72A9746
:1047E0000FB6F894DEBF0FBECDBF00E911E0E12C9B
:1047F000F12C8BE0C82E86E2D82E96E3A92E96E205
:10480000B92E21E7822E25E2922EF801D182C082B4
:10481000B382A28295828482F58AE48ABE016F5FA8
:104820007F4F8E2D0E94AD22892B29F489859A8590
:10483000F801938B828BFFEFEF1AFF0A0A5E1F4F7E
:1048400084E0E816F10409F72A960FB6F894DEBF63
:104850000FBECDBFDF91CF911F910F91FF90EF90D1
:10486000DF90CF90BF90AF909F908F9008959091E0
:10487000750290FF04C09695981740F003C081110F
:1048800005C090E0961710F40C94A61961E00C9402
:104890006219882311F0FA0101C0FB0109946091AB
:1048A0007502669570E04BE050E083E191E00E9474
:1048B0003A35892B19F481E0809374020E94BE304E
:1048C00090935402809353020895CF92DF92FF9207
:1048D0000F931F93CF93DF93CDB7DEB767970FB6D4
:1048E000F894DEBF0FBECDBFF42E4B8B052F5C8B33
:1048F000162F6D8B7E8B8F8BCE88DF88A601602F65
:104900008F2D0E94D133811109C0809102029091B4
:1049100003020196909303028093020211111092F8
:10492000BC03FE013D9686E0DF011D928A95E9F702
:104930008091060290910702892B11F10E94BE30EE
:104940002091B7033091B803821B930B209106028C
:10495000309107028217930740F08091B90382FBE0
:10496000992790F981E0892701C080E080FF03C08A
:1049700082E00E9453330E94063281110E94CC31A2
:10498000FD860E871F87D98AC88A86E0FE013D967C
:10499000DE01179601900D928A95E1F7CE010796F8
:1049A0000E946E2D811146C086E0FE013796DE0121
:1049B000119601900D928A95E1F7DF80F8840A85BF
:1049C0001B85A8016F2D8D2D0E94D133811132C01E
:1049D0002091520330E0C9010196877099274091D8
:1049E000830350E084179507B9F0D982FA821D83BA
:1049F0000C8396E0929FD001939FB00D1124AD5A85
:104A0000BC4FFE01319601900D929A95E1F780938B
:104A100052030E94E0330EC00E94122C10925203E7
:104A200010928303ECE4F3E086E0DF011D928A95A7
:104A3000E9F719C016E0809183039091520389171A
:104A400091F0189FC00111248D5A9C4F0E946E2D29
:104A5000882349F08091830390E00196877099271D
:104A600080938303E8CF67960FB6F894DEBF0FBE3E
:104A7000CDBFDF91CF911F910F91FF90DF90CF902D
:104A80000895CF93DF9300D000D01F92CDB7DEB74B
:104A90009093F1028093F002811520E2920748F48E
:104AA0000F900F900F900F900F90DF91CF910C947B
:104AB000C01D8EEF89838A831B820E94BE30816075
:104AC000782F9D838C8349815A816B818D810E94CF
:104AD00065240F900F900F900F900F90DF91CF9162
:104AE00008950F931F93CF93DF938C01EB0166EE34
:104AF00072E08C2F0E94AD22892B09F046C0809174
:104B00002202909123020E945020DD27CE51DD4FDA
:104B10008881F80110821882833079F048F481305E
:104B200041F1823091F58091E8029091E90209C04B
:104B3000843051F08530E9F028C08091EA029091EC
:104B4000EB020097B1F01BC08091EC029091ED0256
:104B50000097A9F42091E6023091E7028091E802E3
:104B60009091E9022115310541F0009741F4C90106
:104B700006C08091E6029091E702009731F0DF9144
:104B8000CF911F910F910C944125DF91CF911F91EF
:104B90000F910895CF93DF9300D000D01F92CDB72F
:104BA000DEB79093F1028093F002811520E2920724
:104BB00048F40F900F900F900F900F90DF91CF91CE
:104BC0000C94D61D8EEF89838A8381E08B830E94AB
:104BD000BE308160782F9D838C8349815A816B819F
:104BE0008D810E9465240F900F900F900F900F9071
:104BF000DF91CF910895CF93DF93EC010E94CA25F6
:104C000080912202909123020E945020CE01DF91D8
:104C1000CF910C9441250F931F93CF93DF938C0179
:104C2000862F66EE72E00E94AD22892BD1F4C091EE
:104C3000E602D091E7022097A1F0F801808183304D
:104C400039F4CE010E94FB25CE010E94FB2502C053
:104C5000843038F0CE01DF91CF911F910F910C94E9
:104C6000FB25DF91CF911F910F9108950F931F9313
:104C7000CF93DF938C01EB0166EE72E08C2F0E94E4
:104C8000AD22892B09F06DC0DD27F80180818130CC
:104C900041F49185911115C09285992391F082E09C
:104CA00010C0823049F4F8018185811107C08285E6
:104CB000811106C083E005C086E003C085E001C025
:104CC00084E0CE51DD4F88838330B1F028F4813009
:104CD00071F0823031F045C08430A9F0853079F12F
:104CE00040C08091E8029091E9020097A1F580917F
:104CF000E6029091E70220C08091EA029091EB02D7
:104D00000097E9F028C08091EC029091ED020097A5
:104D100011F58091E6029091E702009749F00E9418
:104D2000FB258091E8029091E902009781F013C081
:104D30008091E8029091E902009799F00CC080916F
:104D4000E6029091E702009761F00E94FB258091B6
:104D5000E6029091E702DF91CF911F910F910C94A1
:104D6000CA25DF91CF911F910F9108950F931F9343
:104D70008091270390912803A0912903B0912A03E1
:104D80008C019D010670112722273327BC01CD011C
:104D9000063011052105310511F4686001C0677FF7
:104DA0001F910F910C9424331F93CF93DF93CDB7B2
:104DB000DEB7AA970FB6F894DEBF0FBECDBFEFE106
:104DC000F3E08091F100819343E0E732F407C9F703
:104DD00080912003833009F462C030F4813071F097
:104DE000823009F49CC0B3C08A3009F488C08B308B
:104DF00009F46DC0893009F0AAC020C080911F035A
:104E0000813A09F0A4C08091E800877F8093E80090
:104E10008091230390912403892B21F460E28BEF8E
:104E200092E003C060E080E090E070E00E943E34D9
:104E30008091E8008B778093E80089C080911F0300
:104E4000813209F084C0809123039091240300975C
:104E500019F0029709F07BC08091E800877F80936A
:104E6000E8008091E80082FD05C080911D0381115A
:104E7000F8CF6DC02091F3008091F20090E0922B6A
:104E8000029729F48091F1008B7F813021F4809189
:104E9000F1008093FA028091E8008B7754C08091F2
:104EA0001F03813A09F053C080912303909124039A
:104EB000892B09F04CC08091E800877F8093E8003F
:104EC0008091E80080FFFCCF8091260137C080915F
:104ED0001F038132E1F58091230390912403892BF4
:104EE000B1F58091E800877F8093E8000E94EA3363
:104EF00080912103809326010E94122C28C080916A
:104F00001F03813221F58091E800877F8093E800BC
:104F10000E94EA33809122038093F90218C08091A5
:104F20001F03813AA1F48091E800877F8093E80015
:104F30008091E80080FFFCCF8091F9028093F1001E
:104F40008091E8008E778093E8000E94EA33809198
:104F5000E80083FFE9C180911F0390912003492F4E
:104F600050E04A30510508F0DFC1FA01E059FF4F27
:104F70000C942D35803821F0823809F0D5C108C055
:104F800080911B0390911C03992389F082600FC0CC
:104F9000809123038F70873008F0C6C18093E900A9
:104FA0008091EB0085FB882780F91092E9009091B1
:104FB000E800977F9093E8008093F1001092F10051
:104FC0007CC1282F2D7F09F0AFC1882319F08230D2
:104FD00061F0AAC180912103813009F0A5C193300D
:104FE00009F080E080931C032EC080912103811181
:104FF0002AC0809123038F702FEF280F263008F0EE
:1050000093C18093E9002091EB0020FF1CC09330F6
:1050100021F48091EB00806214C09091EB009061CC
:105020009093EB0021E030E0A90102C0440F551F2E
:105030008A95E2F74093EA001092EA008091EB0033
:1050400088608093EB001092E9008091E800877FF0
:105050008093E8000E94EA3367C1811165C1109115
:1050600021031F778091E3008078812B8093E300F8
:105070008091E800877F8093E8000E94EA33809166
:10508000E80080FFFCCF8091E30080688093E3001C
:10509000111102C082E001C083E080931D0344C16E
:1050A0008058823008F040C12091210330912203C2
:1050B0002C3D53E0350779F583E08A838AE28983C2
:1050C0004FB7F894DE01139620E03EE051E2E32F63
:1050D000F0E050935700E49120FF03C0E295EF7099
:1050E0003F5FEF708E2F90E0EA3010F0C79601C05E
:1050F000C0968D939D932F5F243149F74FBF8091C8
:10510000E800877F8093E8006AE270E0CE010196B4
:105110000E943E34C0C08091230390912403432F0A
:10512000552743305105B1F068F44130510509F479
:105130000AC14230510509F0F7C08BE590E0E8E87C
:10514000F9E057C04132510589F14232510509F465
:105150003CC0EAC0C901992781309105B9F070F0CF
:1051600082309105D9F0039709F0DEC0E5EFF9E050
:10517000E4918E2F90E0E5EFF9E038C0EFE2FAE03D
:10518000E4918E2F90E0EFE2FAE030C0E3E2FAE043
:10519000E4918E2F90E0E3E2FAE028C0E3E1FAE048
:1051A000E4918E2F90E0E3E1FAE020C08330910596
:1051B00008F0BAC0880F991FFC01EC5AFE4F01900D
:1051C000F081E02D89E090E014C08330910508F073
:1051D000ABC0FC01EE0FFF1FE25BFE4F0190F081C0
:1051E000E02DDC01A55BBE4F8C9190E0009709F4A7
:1051F0009BC02091E800277F2093E80020912503A1
:10520000309126032817390708F4C90140E00097B8
:1052100089F120911D03222309F43DC02530D9F1E5
:105220002091E80023FD37C02091E80022FD2FC027
:105230002091E80020FFEBCF4091F3002091F20095
:1052400030E0342B009759F02830310540F4449178
:105250004093F100319601972F5F3F4FF3CF41E02C
:105260002830310509F040E02091E8002E772093A6
:10527000E800CDCF4111CDCF0AC080911D03882316
:1052800051F0853041F08091E80083FD04C08091A9
:10529000E80082FFF2CF8091E8008B778093E800EE
:1052A00043C0803809F040C08091E800877F809338
:1052B000E80080911E038093F1008091E8008E77D2
:1052C000C7CE811131C0809121039091220399278B
:1052D000029754F58091E800877F8093E800109151
:1052E000210310931E030E94EA33111106C080911E
:1052F000E30087FD02C081E001C084E080931D03CC
:1053000042E061EC81E00E94093442E261EC84E019
:105310000E94093442E261EC82E00E94093442E2D8
:1053200060EC83E00E9409348091E80083FF10C0A4
:105330008091E800877F8093E8008091EB00806295
:105340008093EB0005C082E190E0E3EEF9E051CFFD
:10535000AA960FB6F894DEBF0FBECDBFDF91CF91F6
:105360001F9108951F920F920FB60F9211242F9341
:105370003F934F935F936F937F938F939F93AF93DD
:10538000BF93CF93DF93EF93FF93C091E900CF706A
:105390008091EC00D82FD17080FDD0E81092E90008
:1053A0008091F000877F8093F00078940E94D4264B
:1053B0001092E9008091F00088608093F000CD2B7E
:1053C000CF70C093E900FF91EF91DF91CF91BF9132
:1053D000AF919F918F917F916F915F914F913F918D
:1053E0002F910F900FBE0F901F901895E8EDF0E0F1
:1053F00080818E7F80831092E2001092DA001092FA
:10540000E100A0EEB0E08C9181608C9380818F7779
:10541000808319BCA7EDB0E08C918E7F8C93808146
:105420008F7E80831092F8020895CF92DF92EF92E0
:10543000FF920F931F93CF93DF93C8EDD0E0888145
:105440008F7E8883E7EDF0E080818160808384E057
:1054500082BF81E08093F80288818E7F888302EE8C
:1054600010E0F80110821092DA0081EEC82ED12CE3
:10547000F601108288818F7788838881806888838D
:1054800088818F7D888319BC10921D0310921E03A2
:1054900010921C0310921B0390EEE92EF12CF701E1
:1054A00080818B7F808388818160888342E060E097
:1054B00080E00E940934F60180818E7F8083F801AC
:1054C000808181608083808188608083F701808112
:1054D0008E7F8083888180618883DF91CF911F9147
:1054E0000F91FF90EF90DF90CF9008951F920F9251
:1054F0000FB60F9211242F933F934F935F936F93A7
:105500007F938F939F93AF93BF93EF93FF9380917C
:10551000E10082FF09C08091E20082FF05C0809116
:10552000E1008B7F8093E1008091DA0080FF2AC048
:105530008091D80080FF26C08091DA008E7F809312
:10554000DA008091D90080FF18C080E189BD82E136
:1055500089BD09B400FEFDCF81E080931D038091D9
:10556000F80281110FC00E94F6290E94152A80912D
:10557000E20084608093E20005C019BC10921D0314
:105580001092F8028091E10080FF17C08091E20044
:1055900080FF13C08091E2008E7F8093E2008091B3
:1055A000E20080618093E2008091D8008062809365
:1055B000D80019BC85E080931D038091E10084FF31
:1055C0002EC08091E20084FF2AC080E189BD82E183
:1055D00089BD09B400FEFDCF8091D8008F7D8093F6
:1055E000D8008091E1008F7E8093E1008091E200FD
:1055F0008F7E8093E2008091E20081608093E200E0
:1056000080911E03882311F084E007C08091E3009D
:1056100087FD02C081E001C083E080931D0380917B
:10562000E10083FF27C08091E20083FF23C08091C7
:10563000E100877F8093E10082E080931D03109258
:105640001E038091E1008E7F8093E1008091E20053
:105650008E7F8093E2008091E20080618093E2007F
:1056600042E060E080E00E9409348091F0008860B0
:105670008093F000FF91EF91BF91AF919F918F9137
:105680007F916F915F914F913F912F910F900FBE3E
:105690000F901F9018952091E4003091E50095E659
:1056A0004091EC00842F817040FF23C08091E8007E
:1056B00080FD1DC080911D03882399F0853099F0ED
:1056C0008091EB0085FD11C04091E4005091E50010
:1056D0002417350729F3915011F09A01E1CF84E0A6
:1056E000089582E0089583E0089581E0089580E0C0
:1056F00008954091E80042FFDDCF0895EF92FF92B8
:105700000F931F93CF93DF937C018B010E944B2B50
:10571000811119C0E70101151105A1F08091E80080
:1057200085FD0AC08091E8008E778093E8000E9492
:105730004B2B882381F307C089918093F10001509E
:105740001109E9CF80E0DF91CF911F910F91FF9078
:10575000EF900895882339F09091BC03892B8093B2
:10576000BC030C9420320895882339F09091BB0338
:10577000892B8093BB030C9420320895882321F059
:105780000E94D7310C9420320895882321F00E9482
:10579000DE310C9420320895E92FE295EF704E2F00
:1057A00050E0FA013297EE30F105B0F4E658FF4FC1
:1057B0000C942D35803F91F018F4883E68F40EC0AB
:1057C000843F51F40BC0883E48F0813F29F406C065
:1057D00093FB882780F9089580E0089581E008957B
:1057E0000E94BC320E94CC2B089580E090E00E9481
:1057F000712080E090E00E945B201092BC03109228
:10580000BA030E942032EFE5F2E086E0DF011D924C
:105810008A95E9F710925C021092590210922B03BC
:105820000C94B0191092BB0380912601882331F0AB
:105830008091350287FF02C08EE101C086E0EEE272
:10584000F3E0DF011D928A95E9F70C94F52B88238C
:1058500079F19CEF980F913A30F4682F8CE293E045
:105860000E94F3300DC090E2980F983058F4877082
:1058700091E001C0990F8A95EAF7892F0E94DE31E5
:105880000C9420329BE5980F933020F480E090E058
:105890000C94712098E5980F973120F480E090E007
:1058A0000C945B20803F20F00E94DA190C94B01910
:1058B0000895CF93882309F472C0C82F8CEF8C0F02
:1058C000813AC0F5809126018823E1F0809135026C
:1058D00087FF18C0EC2FE695E695E695F0E0E45DCD
:1058E000FC4F8281282F30E04C2F477081E090E000
:1058F00002C0880F991F4A95E2F782239323892BD0
:1059000061F412C0EEE2F3E084E393E02191C21768
:1059100021F08E179F07D1F707C06C2F8CE293E020
:105920000E94F3300E9420326C2F8CE293E00E94A0
:105930001B3110C080E28C0F883078F4C77081E092
:1059400090E001C0880FCA95EAF79091BB03892BBC
:105950008093BB03CF910C942032EBE5EC0FE33046
:1059600040F4F0E0E65AFE4F808190E0CF910C9435
:105970007120E8E5EC0FE73150F4F0E0EE0FFF1F87
:10598000E35AFE4F80819181CF910C945B20C03F00
:1059900030F08C2F0E94E71ACF910C94B019CF9160
:1059A00008951F93CF93DF93182F893329F4C09163
:1059B0002402D091250204C0C0912202D09123027A
:1059C000812F0E94592C209741F08FE99FE0019789
:1059D000F1F700C000002197F6CF812FDF91CF9122
:1059E0001F910C94272CBF92CF92DF92EF92FF92DF
:1059F0000F931F93CF93DF938091510382958F7004
:105A000009F062C080914E03882309F45DC0C09103
:105A1000830386E0B82E80915203C81709F454C05E
:105A2000F0904C03E0904D03C0904F03D090500392
:105A3000A6016E2D8F2D0E94D133D0E0811141C07F
:105A4000BC9E8001BD9E100D1124F801ED5AFC4F43
:105A500051815E1136C040814F1133C08281811166
:105A600030C0E380F480EC18FD0820E060914E0324
:105A700070914F03809150030E94971D80911C02EA
:105A800090911D02E816F906E0F4809151038F70A1
:105A9000806180935103F801E85AFC4F80818F7038
:105AA000806180838CE493E00E946305DF91CF9155
:105AB0001F910F91FF90EF90DF90CF90BF900C94CB
:105AC000E0332196C770A7CFDF91CF911F910F913F
:105AD000FF90EF90DF90CF90BF9008954F925F922C
