:100000000C941A050C9461050C9461050C9461051F
:100010000C9461050C9461050C9461050C946105C8
:100020000C9461050C9461050C94722A0C94AE2911
:100030000C94C6300C9461050C9461050C94610518
:100040000C9461050C9461050C9461050C94610598
:100050000C9461050C9479300C9461050C94610545
:100060000C9461050C9461050C9461050C94610578
:100070000C9461050C9461050C9461050C94610568
:100080000C9461050C9461050C9461050C94610558
:100090000C94E81D0C9461050C9461050C946105A9
:1000A0000C9461050C9461050C946105F60BF60B3C
:1000B0002E0C2E0CC10CDD0CB40EB40EEA0CC70DC8
:1000C000D60DD60DE71401150715391639163F154B
:1000D0004B155A153916621589159B15B115B415AE
:1000E000B627DD279029DD27902929284C2890293B
:1000F0004D295D29D62BD62BE82BE82BDF2BE82BBF
:10010000E82BE82BD62BD62BE42BE82BE82BE42B83
:100110007F3F1F643214783C1E1E140A0501000143
:10012000001E020000020002001A0200000300018B
:10013000001F020000040002000402A61F050001C7
:100140000020020000060002000602000007000274
:10015000001C02000008000100210200000900024A
:10016000000802811F0A0002000A02811F0B000220
:10017000000C02811F0C0002000E02811F0D000204
:10018000001002811F0E0002001202811F0F0002E8
:10019000001402811F100002001602811F110002CC
:1001A000001802811F120002002202000013000248
:1001B0000024020000FD377A585A000004E6D6B445
:1001C000460200210116000000742FE5A3E003C8D9
:1001D00001405D003D8889C65436C3174FE4DE7F79
:1001E0002DD5317A6DB5EB957D41B5430B7E0FC7AB
:1001F00088F866E99AB8B509EBAF8FF7118E2160E0
:10020000100C22DF61A39365FD096278BAB7D2FAB8
:100210000297CC89B73F4E3AC704D33FF1A6B4ED5D
:10022000B8B2D408CD61E3D468366EF1AF4C302B50
:10023000A307879B6197FCC297E88365821C6E9435
:100240004B71CBA7AF80C60B4BE33FCC8B9BAC363F
:10025000A1111FA45C82A4C1DE08E43C8878EC569E
:10026000600145EFAE8DBDCD8AA73462A2B90140D1
:100270003E1CF26DD2788A79C091921F000EDA4648
:10028000407E797EE3D37020A2BF2403A633837A15
:1002900038725ED4B22C02F84CCAD0D8C407F187A9
:1002A000E849BAFF1D58D056C86881E183878BE8BA
:1002B000AC702E169C94B27D09C220121C08E1F18C
:1002C0004CC4E4DFECD1AD6CF30D281167A2053806
:1002D00061FDCA2D84D97345FEA7E3F8380384CDA8
:1002E0007B79847A13D869E970D9778295B84DAC57
:1002F000E77AAAD9ABC1F9C4127B010FF93DE940F5
:10030000A2936C9F450629D20D98610E0BC9BDF5CD
:100310003F3945DC0084BF4A1DD4ED21580001DC83
:1003200002C9070000E0EC63D2B1C467FB02000021
:10033000000004595A000000000000000000000006
:1003400000000000000000000000000000000000AD
:100350000000000000000000007E0F00D4FFFFFF3F
:10036000C70000007800000000000000002A2B28D1
:10037000000000000000000000000000000000007D
:1003800029000000002C1E34202122243426272599
:100390002E362D3738271E1F2021222324252633D1
:1003A00033362E37381F0405060708090A0B0C0DD3
:1003B0000E0F101112131415161718191A1B1C1DE5
:1003C0002F3130232D350405060708090A0B0C0DC3
:1003D0000E0F101112131415161718191A1B1C1DC5
:1003E0002F3130354C0001010101010101010102F1
:1003F00002020202020202020303030303030303D5
:10040000040404040404040505050505060606069F
:1004100006070707070708080808090909090A0A5B
:100420000A0B0B0B0C0C0C0D0D0D0E0E0E0F0F0FFF
:10043000101011111112121313141415151616178A
:1004400017181819191A1A1B1B1C1D1D1E1E1F20F8
:1004500020212222232424252626272829292A2B45
:100460002C2D2D2E2F30313232333435363738396A
:100470003A3B3C3D3E3F4041424344454647484964
:100480004A4C4D4E4F50515354555658595A5B5D36
:100490005E5F616264656668696B6C6D6F707273D4
:1004A0007577787A7B7D7E8082838587888A8C8E3B
:1004B0008F91939596989A9C9EA0A2A3A5A7A9AB6D
:1004C000ADAFB1B3B5B7BABCBEC0C2C4C6C9CBCD5F
:1004D000CFD1D4D6D8DBDDDFE2E4E7E9EBEEF0F311
:1004E000F5F8FAFDFFFFAA7F55402223252628298B
:1004F0002A2C2D2F3032333536383A3B3D3E4042A0
:10050000434547494A4C4E5051535557595A5C5EE2
:100510006062646668696B6D6F71737577797B7DF6
:100520007F81838587898A8C8E90929496989A9CF5
:100530009E9FA1A3A5A7A8AAACAEAFB1B3B4B6B80D
:10054000B9BBBCBEBFC1C2C3C5C6C7C9CACBCCCD6F
:10055000CED0D1D2D2D3D4D5D6D7D7D8D9D9DADA4A
:10056000DBDBDBDCDCDCDCDCDDDDDDDDDCDCDCDCCA
:10057000DCDBDBDBDADAD9D9D8D7D7D6D5D4D3D2FE
:10058000D2D1D0CECDCCCBCAC9C7C6C5C3C2C1BFDC
:10059000BEBCBBB9B8B6B4B3B1AFAEACAAA8A7A540
:1005A000A3A19F9E9C9A98969492908E8C8A8987FC
:1005B0008583817F7D7B79777573716F6D6B6968DA
:1005C000666462605E5C5A5957555351504E4C4AAE
:1005D0004947454342403E3D3B3A38363533323059
:1005E0002F2D2C2A29282625232214001A00080042
:1005F0002B001500180017001C00120013002F001C
:100600000C003000000031004C001E001F002000D4
:1006100029002100240022002300260027002D00AD
:1006200025002E0000002A0049000000E300E2003F
:10063000E0000000000000002C00E6000000E400E4
:1006400000000151510050004F0000001D001B0030
:10065000E1000600110019000500360037003800DF
:100660001000E50052000000000004001600070022
:10067000390009000D000A000B000F0033003400A0
:100680000E00000000002800000001000100010031
:1006900001000100010001000100470048000100C5
:1006A000460001000000010001003A003B003C0050
:1006B00035003D0040003E003F0042004300440042
:1006C00041004500000001000100000001000100A0
:1006D0000100000000000000010001000000010016
:1006E0000000010001000100010000000100010004
:1006F000010001000100010001004D004E00010059
:1007000001000100010000000000010001000100E3
:10071000010001000100010001004B000100010087
:100720004A0000000000010000000100010001007B
:1007300001000100010001000100010001000100B1
:1007400001000100000001000100010001000100A2
:100750000100010001000100010001000100010091
:100760000100010000000100010000000100010083
:100770000100000000000000010001000000010075
:100780000000010001000100010000000100010063
:100790000100010001000100010001000100010051
:1007A0000100010001000000000001000100010043
:1007B0000100010001000100010001000100010031
:1007C0000100000000000100000001000100010024
:1007D0000100010001000100010001000100010011
:1007E0000100010000000100010001000100010002
:1007F00001000100010001000100010001000100F1
:1008000001000100000001000100000001000100E2
:1008100001000000000000000100010000000100D4
:1008200000000100010001000100000001000100C2
:1008300001000100010001000100010001000100B0
:1008400001000100010000000000010001000100A2
:100850000100010001000100010001000100010090
:100860000100000000000100000005010902A101D3
:1008700085020901A10005091901290515002501B5
:100880009505750181029501750381010501093006
:1008900009311581257F9502750881060938158172
:1008A000257F950175088106050C0A3802158125FA
:1008B0007F950175088106C0C005010980A10185E9
:1008C0000319012AB700150126B70095017510819B
:1008D00000C0050C0901A101850419012AA0021517
:1008E0000126A002950175108100C005010906A12D
:1008F000018505050719E029E7150025019508750B
:100900000181020507190029EF1500250195F075F1
:1009100001810205081901290595057501910295C6
:100920000175039101C00660FF0961A1010962150B
:100930000026FF009520750881020963150026FF37
:1009400000952075089102C005010906A10105075F
:1009500019E029E715002501950875018102950127
:10096000750881010507190029FF150026FF00956C
:10097000067508810005081901290595057501917D
:1009800002950175039101C009025B00030100A0FB
:10099000FA0904000001030101000921110100010D
:1009A0002240000705810308000A09040100020330
:1009B0000000000921110100012222000705820325
:1009C00020000107050303200001090402000103C0
:1009D00000000009211101000122BC000705840369
:1009E00020000A120110010000000853480C6600A4
:1009F00001010203011C037600690061006C003AEA
:100A00000066003600340063003200620033006389
:100A10000000000E0346004300360036003000435D
:100A20000000000A03480061007300750000000424
:100A30000309040011241FBECFEFDAE0DEBFCDBFF3
:100A400004B603FE27C08091370490913804A0912A
:100A50003904B0913A048730904BA740B04BD1F4A1
:100A600010923704109238041092390410923A040C
:100A700014BE84B7877F84BF0FB6F894A895809181
:100A80006000886180936000109260000FBEE0E01B
:100A9000F8E3099511E0A0E0B1E0EAEAFAE602C065
:100AA00005900D92AC38B107D9F724E0ACE8B1E07D
:100AB00001C01D92A733B207E1F70E94350F0C94D5
:100AC00053350C9400002F923F924F925F926F9299
:100AD0007F928F929F92AF92BF92CF92DF92EF92CE
:100AE000FF920F931F93CF93DF93CDB7DEB7649739
:100AF0000FB6F894DEBF0FBECDBF7C01DC011396AC
:100B00004D915C91149711966C9111978C910E9464
:100B1000CD3381110C941C0F21E0F70140815181EC
:100B20006281738184810E94931D8C01D70112968A
:100B30008C91811105C0F7014281411140C0C0C0B4
:100B4000809100018F3FB9F3B0E9CB2EB1E0DB2EED
:100B5000A12CB12C9924939480910001082E000CB3
:100B6000990B8A159B053CF3D60116968C91169726
:100B70008823F1F019968D919C911A9708171907FF
:100B800039F480918E0190918F010817190781F037
:100B9000F6019786148703878189811103C0C601F6
:100BA0000E94F020C60106960E94112110922B048B
:100BB000FFEFAF1ABF0A26E1C20ED11CCDCFC8018C
:100BC00082519F45409708F098C08FEF93E00E94B4
:100BD000B134811180C0AEEEDA2ED00E0FE612E0F5
:100BE000DD2071F0011544E0140709F474C0C80158
:100BF0000E94B134811101C0DA940F5F1F4FF0CF12
:100C000019821A821B821C82AA24AA9468015FEFAF
:100C1000C51AD50AC8010E94B13489831A82882373
:100C200009F459C0813009F046C0480182E0880EBD
:100C3000911CC6010E94B1348A83882309F44BC0F9
:100C40009FEF980F933060F4680193E0C90ED11CB8
:100C5000C4010E94B1348B8381112DC08601D6CF8F
:100C6000843011F06401FACFC4010E94B134B82E6F
:100C70006801A4E0CA0ED11CC80103960E94B134D9
:100C8000BB2049F1882339F1282F30E02150310968
:100C9000A29EA001A39E500D11248B2D90E00197E0
:100CA000840F951F0197D0F2EFE9FFE03197F1F73C
:100CB00000C00000F7CFCE0101960E94E01CCECF0D
:100CC0000031FFE51F0711F00C94130F81E00E9423
:100CD0002A330E94B22680912804877011F40C9464
:100CE0001C0FD70112968C91882311F40C941C0FC1
:100CF00082E00E944F330C941C0F0031BFE51B07AC
:100D000011F481E005C00131EFE51E0721F482E016
:100D10000E946C33DECFC80197558F3F910511F0CB
:100D200008F057C020910001022E000C330B281749
:100D3000390714F48093000126E1289F5001299F70
:100D4000B00C1124C50180579E4F6C01DC015096F8
:100D50004C935097F701928116968C911697992390
:100D600069F11A961C930E9319978F5F16968C93C0
:100D70000E94BA30D6011E969C938E931D97809147
:100D80002E0417968C93179790912B0480912A0428
:100D9000892B18968C931897ED91FC911197C501AA
:100DA0008A569E4F309729F054966D917C915597B5
:100DB000099510938F0100938E010BC08823B1F029
:100DC000F6018189882391F0C5018A569E4F0E94C1
:100DD0001121073FFCE51F0749F4D70112968C91BA
:100DE000882321F181E0809301013DC1083FBCE5EA
:100DF0001B0771F4F70182818823C1F01092010171
:100E00001092F8011092F70181E00E946A212BC133
:100E1000093FFCE51F0751F4D70112968C918823F6
:100E200029F0809101018823E9F2E8CF4090010187
:100E3000442009F418C11092FB011092FA01612CB0
:100E4000E5E05E2E88248394912C33243394A09083
:100E5000FA01B090FB01F3E0AF16B10408F0CFC087
:100E60005A9CF0015B9CF00D1124EA5DFD4FBE0120
:100E7000655F7F4F80810E949422892B11F0712C35
:100E8000B3C0FE013B9680E090E022242A94282FF4
:100E9000419151914115510551F00417150709F47D
:100EA000282E01968430910591F724E002C082300B
:100EB00030F3BFEF2B1619F3F7017280772009F496
:100EC00048C05A9CC0015B9C900D1124AC014A5D46
:100ED0005D4F6A01C40101C0880F2A94EAF7DA0164
:100EE00014969C911497892B14968C93F40102C04C
:100EF000EE0FFF1F2A95E2F79F012150310990E084
:100F00008F772817390709F06EC080E00E946A21A8
:100F1000D60114968C911497806814968C9314972C
:100F200012968D919C911397009719F00E94D21DF3
:100F30000DC0BE016F5F7F4F8091FA010E94942225
:100F4000892B21F489859A850E94C6253092F90162
:100F50004BC0F40102C0EE0FFF1F2A95E2F79F017C
:100F6000215031095A9CF0015B9CF00D1124EA5D7F
:100F7000FD4F848190E08F7728173907A1F4828193
:100F80009381009719F00E94BC1D0DC0BE016F5FD8
:100F90007F4F8091FA010E949422892B21F4898548
:100FA0009A850E943D255A9CF0015B9CF00D11240E
:100FB000EA5DFD4F9481292F30E0022C02C0359567
:100FC00027950A94E2F720FF5ACF940101C0220F1F
:100FD0002A94EAF7822F80958923848387FF4FCF55
:100FE000803809F41482742C67288091FA0190915A
:100FF000FB0101969093FB018093FA0128CF809129
:10100000F901882359F00E94BA309093F801809337
:10101000F7011092F90161105ECE25C0611006C083
:1010200081E00E946A210E9458211DC0D7011296BA
:101030008C91882309F44FCE0E94BA309093F80126
:101040008093F701E091F601E73008F044CE81E0AB
:101050008E0F8093F601F0E0EE0FFF1FE851FE4F78
:101060001183008338CE80911F0280FF65C00E94EB
:10107000BA306C01F7018281882379F180910201F5
:1010800082FF06C040E0B60180E090E00E948F2021
:1010900082E00E94D3310B31FCE51F0779F00C315F
:1010A0002CE5120789F00A314CE51407B1F4809160
:1010B0000201982F909590FB80F909C08091020160
:1010C0008160809302017FC0809102018E7F8093B6
:1010D000020182E00E94D33176C00832110538F453
:1010E0000E311105B8F40430110578F425C0093328
:1010F000110538F40D32110590F40B32110579F019
:101100001BC00436110559F017C080911F0284FDE1
:1011100013C009C080911F0283FD0EC004C08091DE
:101120001F0282FD09C0F7018281882309F4B5C13D
:101130008091020180FD75C1033FBCE51B0759F199
:1011400090F4083DFCE51F07E9F0093D2CE5120786
:10115000A1F1073D4CE51407B1F506E221EE41EEA1
:1011600067ED7CE514C0053F5CE5150701F1C8F0AB
:10117000063F9CE5190739F507E225EE46EE66EFD6
:101180007CE505C007E225EE45EE68ED7CE5C7018C
:101190000E948A21A0CD06E221EE40EE63EF7CE5BD
:1011A000F6CF07E225EE44EE64EF7CE5F0CF06E2F1
:1011B00021EE42EE65EF7CE5EACF08E221E045EE64
:1011C00069ED7CE5E4CFD70112962C91222309F436
:1011D0006AC1109200020230BCE51B0708F463C12B
:1011E0000631ECE51E0730F0C8018A5F9C4509977F
:1011F00008F059C10E944C31909336028093350219
:101200000031FCE51F0709F4C3C008F041C00830F5
:101210004CE5140709F49AC0F0F404308CE5180783
:1012200009F487C068F40230ACE51A0709F477C006
:1012300003301C4509F0E5C080913502826076C01C
:101240000630ECE51E0709F46EC008F07BC0809103
:10125000350288606BC00C302CE5120709F485C09C
:1012600068F40A305CE5150709F474C008F079C029
:101270000E940E2C80913502806858C00E309CE58B
:10128000190709F476C008F07FC0809135028BC041
:101290000B3FBCE51B0709F44FC018F50331FCE513
:1012A0001F0709F47DC078F401314CE5140709F4F7
:1012B00073C002311C4509F0A4C00E940E2C80911D
:1012C00035028F7733C005318CE5180709F472C0F9
:1012D00008F486C00A3F1C4509F093C0809136028D
:1012E0003EC00F3FBCE51B0709F45FC058F40D3F3B
:1012F000FCE51F0709F444C008F43FC080913602A2
:1013000082602DC001304DE5140709F475C008F462
:101310005DC002301D4509F074C060E06EC0809170
:101320003502816003C0809135028061809335026F
:1013300068C08091350211C080913602826080932E
:1013400036025FC0809135028062F0CF8091350215
:101350008064ECCF8091350288608460E7CF816043
:10136000EECF809135028E7FE1CF809135028D7F67
:10137000DDCF80913502877FD9CF8091360218C0AA
:10138000809136028D7FDBCF809135028F7ECECF6C
:10139000809135028F7DCACF809135028F7BC6CF79
:1013A00080913502877F8B7FC1CF809136028D7F00
:1013B0008E7FC5CF8091350282FB222720F991E0F4
:1013C000922790FB82F990FB83F9B0CF809136028F
:1013D000982F909591708E7F892B90FB81F9AFCFDC
:1013E0000E940E2C8091350287FB222720F991E084
:1013F000922790FB87F99ACF61E08EE090E00E94FF
:10140000C534609135021091360284E090E00E946C
:10141000C534612F82E290E00E94C5340E940E2CF8
:101420005ACC90911F0291FD04C020912A042111F1
:1014300083CE95FF21C02091FE013091FF01D6019E
:10144000A21BB30B9D0196FD02C081FD15C02F3A72
:10145000310590F42091FC013091FD010217130732
:1014600059F481FF05C080912B04826080932B0486
:10147000802F0E94552C2FCC1093FD010093FC016E
:10148000D092FF01C092FE0180910201846080939E
:10149000020182E00E944F331ECC40E0B601C80139
:1014A0000E948F2018CC0631FCE51F0709F040C0D0
:1014B00080912A04982F9A7A30911E0230FF04C03E
:1014C000482F447409F090E031FF04C0482F417167
:1014D00009F090E032FF04C0482F487809F090E00E
:1014E00033FF02C0827261F42223A1F081E09111E6
:1014F00001C080E080930102992331F065E305C0CB
:10150000222341F01092010269E28BE993E00E94EC
:1015100017310BC080910102882311F065E301C0EF
:1015200069E28BE993E00E94EF300E941C32D3CB3A
:10153000222309F413C180912A0482720C3C9CE599
:10154000190709F4C0C008F045C0063CBCE51B07FC
:1015500009F4A5C0D8F4033CFCE51F0709F495C0C5
:1015600030F4023C4CE5140709F46AC0C6C0043CE0
:101570005CE5150709F48EC0053C9CE5190709F0E8
:10158000BCC04CE459E165E579E1A1C0093CACE59A
:101590001A0709F48EC078F4073CECE51E0709F43D
:1015A00083C0083CFCE51F0709F0A7C040E459E1EF
:1015B00064E379E18CC00A3C2CE5120709F47EC093
:1015C0000B3C4CE5140709F098C043EA57E164EB83
:1015D00077E17DC0013D5CE5150709F47CCBA0F403
:1015E0000E3C9CE5190709F47AC008F473C00F3C5F
:1015F000BCE51B0709F476C0003DECE51E0709F0C9
:101600007CC06EE089E076C0043DFCE51F0709F46C
:101610006FC058F4023D4CE5140709F466C0033D61
:101620005CE5150709F457CB68C0053D8CE5180744
:1016300009F451CB0D359DE5190709F44CCB5DC07C
:101640008091750280FF1BC08E7F80937502609130
:1016500075027091760280917702909178020E94D3
:10166000911710927402AFEFB0E7E2E0A150B040E2
:10167000E040E1F700C000000E9437172CCB8160EA
:101680008093750261E0869527C049E959E162EAD5
:1016900079E11DC042EA59E169E979E118C045E5FF
:1016A00059E16CE479E113C044E359E160E479E184
:1016B0000EC04CE159E168E279E109C048E259E124
:1016C0006CE179E104C044EB57E163EA77E10E9401
:1016D000452401CB61E081E00E945E19FCCA65E00F
:1016E00082E008C068E086E005C061E18FE002C0EA
:1016F0006BE182E10E943324EECA0A35FDE51F0743
:1017000041F150F401154CE51407A9F00E3D1C45BC
:1017100029F50E945D31DFCA0B358DE51807D9F038
:101720000C351D45D9F48091360282FB882780F95B
:1017300091E0892711C00E940E2CAFEFB4E3ECE0DA
:10174000A150B040E040E1F700C000000E945530D9
:10175000C2CA81E001C080E00E94E131D701129647
:101760008C9112970D911C91882349F0C8010E9419
:101770007632D82E682FC8010E94F33204C0C80107
:101780000E94C332D82EB8018D2D0E944B1B8C01B4
:10179000882EF701B280C580C2946FE0C622809186
:1017A0002804877099F0BB2089F0812F807F8034D6
:1017B00021F080E2800F883048F082E00E944F33B1
:1017C000809128048770AA24A3948111A12C912EC2
:1017D00092945FE09522892D90E08C30910508F07D
:1017E000C3C2FC01EA5AFF4F0C942935912F9F7018
:1017F000812F807FD92E19F0D29440EFD422BB20C4
:10180000B9F0DD2009F48EC280E2800F883010F03C
:10181000811006C080912A04D82AD0922A0405C0DB
:1018200080912B04D82AD0922B040E941C327AC2B9
:10183000802F0E94232CDD2009F496C280E2800FC5
:10184000883010F0811004C08D2D0E94DA3103C061
:101850008D2D0E94D3310E941C3286C2912F9F7021
:10186000812F807FD92E803219F0D29430EFD3228D
:10187000882029F0F1E08F1609F44FC05CC0BB202E
:1018800079F1CC2039F144244394C41013C08091E1
:10189000360282FD69C280912E04D82AD81609F436
:1018A00063C20E94BA3090932D0480932C04D0928E
:1018B0002E045AC280912002823060F0C8120AC001
:1018C0000E94C83180912504D81609F452C0D092E4
:1018D00025044FC080912E048D290E94B02B44C254
:1018E000CC2081F08091200255245394C51010C063
:1018F000823008F439C280912A048D2109F434C25F
:101900000E9470320E94C8318D2D0E94C12B2CC2C2
:101910008230C0F3C812F6CF27C2BB2031F025E0D9
:10192000622E6C1408F420C224C094E0792E7C143A
:1019300008F41AC2E9CFBB20F1F0CC20D1F020E0AE
:10194000D7014C9111965C91119712966C91129758
:1019500013967C91139714968C910E94931D8091FD
:10196000210281FDDFC1F701858180FFDBC18F701E
:1019700085838D2DB2CFCC2039F2F9E38F12E4C1EB
:10198000DEC1812F86958695837019F0813059F0DC
:10199000EBC1BB2019F0C801937002C080E090E059
:1019A0000E946D20E1C1BB2019F0C801937002C0F4
:1019B00080E090E00E945720D7C1802FBB2029F003
:1019C0000E94E31A0E94AC1902C00E94D6190E941C
:1019D000AC19CAC1812F837009F06AC0B110C4C1AB
:1019E000902F929596959770990F990F802F8F70E1
:1019F000482E512C612C712C092E04C0440C551C0E
:101A0000661C771C0A94D2F704FF12C04FE050E026
:101A100060E070E004C0440F551F661F771F9A9561
:101A2000D2F7DB01CA0180959095A095B09503C0CF
:101A300080E090E0DC01612F66956695637062300E
:101A4000D9F068F520912F04309130044091310491
:101A500050913204613059F084299529A629B7297B
:101A6000BC01CD0162237323842395231EC0422A27
:101A7000532A642A752A13C084299529A629B729CF
:101A800040902F04509030046090310470903204E4
:101A9000BC01CD01642575258625972506C0BC01AE
:101AA000CD0164297529862997290E94A3335CC139
:101AB000BB2019F0812F817001C08695882309F41D
:101AC00053C1902F929596959770990F990F802FEB
:101AD0008F70482E512C612C712C092E04C0440C9F
:101AE000551C661C771C0A94D2F704FF12C04FE005
:101AF00050E060E070E004C0440F551F661F771F80
:101B00009A95D2F7DB01CA0180959095A095B09582
:101B100003C080E090E0DC01612F669566956370FC
:101B20006230D9F068F52091960330919703409187
:101B3000980350919903613059F084299529A62979
:101B4000B729BC01CD01622373238423952391C05F
:101B5000422A532A642A752A13C084299529A62962
:101B6000B729409096035090970360909803709027
:101B70009903BC01CD01642575258625972579C07B
:101B8000BC01CD01642975298629972972C0212FAE
:101B90002F70D22EBB2029F0822F0E946C33802F11
:101BA0009CCE802F0E94C12B8D2DDAC0802F42EF5A
:101BB000841609F443C0481538F050EF851661F0DB
:101BC00091EF8916A9F1AAC0A3EF8A16E9F1B4EF43
:101BD0008B1609F451C0A2C0BB2029F0E4E0EC153B
:101BE00008F4C2C005C085E0582E5C1408F4BCC0DF
:101BF000212F2F7181E090E0A0E0B0E0AC01BD01A9
:101C000004C0440F551F661F771F2A95D2F7809195
:101C1000960390919703A0919803B09199032A019C
:101C20003B01482659266A267B26C301B20121C002
:101C3000812F8F71BB2009F493C07AC0812F8F71DF
:101C4000BB2009F475C08CC0BB2081F0212F2F71FF
:101C500081E090E0A0E0B0E0BC01CD0104C0660FDF
:101C6000771F881F991F2A95D2F703C060E070E0A4
:101C7000CB010E94203378C0909120029230B8F1BD
:101C8000BB20F1F0809125040E94DA318091280474
:101C90008770843039F40E94FB31812F8F710E944C
:101CA0002A3361C080912002C81608F05CC0212F41
:101CB0002F71D22E822F0E946C3363E08D2D10C0C5
:101CC00020912A0480912504822B80932A04C9162E
:101CD00050F00E94FB310E94703264E0812F8F71BE
:101CE0000E948D3340C081E00E944F333CC0BB2036
:101CF00059F0412F4F71D42E842F0E946C3363E032
:101D00008D2D0E948D3330C081E00E944F3351E011
:101D10005C1550F582E00E944F3326C0BB2059F07D
:101D2000CC2021F0802F0E94552C1EC0812F8F7156
:101D30000E946C3319C0CC2089F0893329F480913A
:101D400024029091250204C08091220290912302E6
:101D50000E944C20802F0E94232C06C0812F8F715F
:101D60000E942A3301C0A12C88EF890D843020F411
:101D70000E9483200E94DA1CC8010E94C82B811196
:101D800005C0109203021092020225C0BB2019F078
:101D9000C110F7CF20C0C110F4CF20E0D7014C9183
:101DA00011965C91119712966C91129713967C91F3
:101DB000139714968C910E94931D8091210283FFAA
:101DC000E0CF80910202909103020297D1F6802F1A
:101DD0000E94CD2CD6CFAA20A9F08091280480FDA6
:101DE00011C0F70112828595859585950E946C3307
:101DF000C7010E9463058091280485958595859586
:101E00000E942A3320E0D7014C9111965C911197E2
:101E100012966C91129713967C91139714968C914D
:101E20000E94931D09C001312FE5120711F00C9497
:101E30008B0682E00C94670664960FB6F894DEBFBA
:101E40000FBECDBFDF91CF911F910F91FF90EF900B
:101E5000DF90CF90BF90AF909F908F907F906F90CA
:101E60005F904F903F902F900895CF93DF93CDB721
:101E7000DEB7E4970FB6F894DEBF0FBECDBF84B7D0
:101E8000877F84BF0FB6F894A89580916000886121
:101E900080936000109260000FBE90E080E80FB663
:101EA000F89480936100909361000FBE85B78068BD
:101EB00085BF85B7806885BF89EB9FE290938D01D0
:101EC00080938C010E94DD2310922702109226023B
:101ED00081E090E090932C0280932B0282E090E0CE
:101EE00090933102809330020E9401220E94F229D5
:101EF0000E94112A8091E20084608093E20078942D
:101F000080918C038823A1F01091E9001F709091BB
:101F1000EC00892F817090FD80E8182B1092E90069
:101F20008091E80083FD0E94D0261F701093E90085
:101F300082E084BD93E095BD9AEF97BD80936E00DB
:101F400084B18F6184B93E98469A3F9A8AB1806F76
:101F50008AB95F9A4798269A2E9A10924402109254
:101F600043021092460210924502109248021092CB
:101F7000470210924A021092490210924C021092AB
:101F80004B0210923A021092390210923C021092C7
:101F90003B0210923E0210923D02109240021092BB
:101FA0003F02109242021092410283E492E0909329
:101FB0007B0280937A0289E392E0909338028093C7
:101FC000370280E090E00E94BF348A3E9E4F11F0BD
:101FD0000E945D3182E090E00E94B13480936602FD
:101FE0000E944C3190933602809335020E94481E25
:101FF0003FEF46E781E0315040408040E1F700C0CC
:1020000000000E94481EE0917A02F0917B028081DC
:1020100080FF17C06FEF83E290E00E94C5346FEF3E
:1020200084E290E00E94C5346FEF85E290E00E9468
:10203000C5346FEF7FEF80E090E00E94E3340E94B0
:10204000553083E090E00E94B134682F70E080E06A
:1020500090E00E94A333269A2E9A83E290E00E9499
:10206000B1348C3881F484E290E00E94B134893438
:1020700051F485E290E00E94B13491E08D3D09F089
:1020800090E0892F01C080E080FF68C680914D02FA
:10209000811136C080E090E00E94BF348A3E9E4F9E
:1020A00021F00E945D310E94C51788E090E00E94F7
:1020B000B93460937502709376028093770290939F
:1020C00078026E7F71F40E94C51788E090E00E944C
:1020D000B93460937502709376028093770290937F
:1020E00078020E947E17109274028091750280FF20
:1020F00004C060E086950E945E1981E080934D02E5
:1021000089E091E090934F0280934E0258E1A52E12
:10211000B12C60E4562EDD24D394CC24C39480915A
:102120008C03853009F079C000E112E180918C03C5
:10213000853009F05BC080918C03843009F440C085
:1021400080E00E94DA1C1092740280915202811188
:1021500016C0C092520280917502982F9170909390
:1021600051028E7F80937502FFEF20E732E0F1503D
:1021700020403040E1F700C000000E943717109265
:1021800050020FB6F894A895A09260000FBE50922E
:10219000600083B7817F846083BF83B7816083BF22
:1021A0007894889583B78E7F83BF0FB6F894A895EF
:1021B00080916000886180936000109260000FBE83
:1021C00080918B03882309F4B1CF0E94481EE091CF
:1021D0007A02F0917B02CF010A9621913191232B53
:1021E00009F06FC58E179F07C1F7A0CF0E940E2C74
:1021F0000E9483200E94DA1C1092520280915102A8
:10220000882349F08091750281608093750260E0B7
:1022100086950E945E190E944B240E94481E8111DF
:102220000E94AE30E0917A02F0917B02A7E6B2E024
:1022300000E010E0702F219131918D919D918227C6
:102240009327009779F160E0EE24E394F12CAC0140
:102250004E215F21452B09F16BA77CA72E213F2141
:1022600081E0232B09F480E08DA70E94BA308160C1
:10227000782F9FA78EA74BA55CA56DA58FA50E9463
:102280006124000F111FF801E959FD4F80819181F0
:10229000E826F926F182E0821AC06F5FEE0CFF1C7F
:1022A0006031A9F60F5F1F4F0530110519F68FEF4A
:1022B00088AB89AB1AAA0E94BA308160782F9CAB98
:1022C0008BAB48A959A96AA98CA90E946124809165
:1022D0007402882309F468C080917302E09175024A
:1022E000E695E81BE0935502823059F4F0E0E75E92
:1022F000FE4FE4910E2F10E088E3E82E80E2F82EE6
:102300002EC0863059F4F0E0EA5EFE4FE4910E2FC5
:1023100010E0B8E2EB2EB0E2FB2E21C0893061F470
:10232000E695F0E0ED5EFE4FE4910E2F10E0AEEF8B
:10233000EA2EAFE1FA2E13C08F3059F4F0E0E05FDF
:10234000FE4FE4910E2F10E0F0EBEF2EFFE1FF2E99
:1023500006C000ED17E0EFEAEE2EEFE1FE2E8091D1
:102360005602882361F0109256020E94BA30909370
:1023700054028093530210925802109257020E9406
:10238000BA30E0915302F09154028E1B9F0B8F3FA5
:102390009F4750F40E0F1F1F1093540200935302D7
:1023A00083E592E0F701099586E0EFE5F2E08E0122
:1023B0000F5F1F4FD80101900D928A95E1F7809031
:1023C000610290906202E0906302F09064021092C9
:1023D00061021092620210926302109264028110F4
:1023E00003C0992009F45BC080915D0290915E0268
:1023F0000E949F30AC0190915C02992339F02091AA
:10240000060130E02417350758F049C02091050136
:10241000FAE02F9F900111242417350718F03FC0D0
:102420009F3F19F09F5F90935C02882061F00E94AB
:10243000941A181414F491E001C09FEF899F802D25
:10244000112480936102992061F00E94941A19145A
:1024500014F491E001C09FEF899F802D1124809397
:102460006202309161023323D1F020916202222373
:10247000B1F045EB3403C0011124992319F0909376
:10248000610202C0D092610235EB2303C001112426
:10249000992319F09093620202C0D0926202E11077
:1024A00003C0FF2009F45BC080915A0290915B0247
:1024B0000E949F30AC0190915902992339F02091EC
:1024C000040130E02417350758F049C0209103017A
:1024D0008AE0289F900111242417350718F03FC087
:1024E0009F3F19F09F5F90935902EE2061F00E9488
:1024F0005B1A1E1414F491E001C09FEF899F802D98
:10250000112480936302FF2061F00E945B1A1F1464
:1025100014F491E001C09FEF899F802D11248093D6
:102520006402309163023323D1F0209164022223AC
:10253000B1F045EB3403C0011124992319F09093B5
:10254000630202C0D092630235EB2303C001112461
:10255000992319F09093640202C0D0926402809192
:10256000610281110BC080916202811107C08091CC
:102570006302811103C08091640281110E94AC1931
:102580008B829C82ED82FE8286E0F801AFE5B2E0AC
:1025900001900D928A95E1F70E9483209091650247
:1025A000891731F00E948320809365020E94DA1C13
:1025B00080918C03843009F0B2CD83E08093E900F0
:1025C0008091E80082FFABCD8091E80085FF21C0BB
:1025D0000E94472B81111BC070E2E72EF12C4801AD
:1025E00009C08091F100F40181934F01F1E0EF1AED
:1025F000F10869F08091E80085FDF3CF8091E80053
:102600008B778093E8000E94472B882399F391E011
:1026100001C090E08091E8008B778093E8009923D7
:1026200009F47DCDE0907C02F0907D028981E11477
:10263000F10461F08E3F09F01CC38A81833008F4F5
:10264000BAC18550833008F014C3B5C1893009F48C
:10265000ECC0D0F4843009F470C050F48230A1F1A1
:1026600008F05CC0813009F002C31A8289E028C2F8
:10267000863009F474C008F467C0873009F472C06A
:10268000883009F4B1C0F3C2803109F434C180F458
:102690008D3009F4D5C028F48C3009F0E8C280E10F
:1026A0008AC28E3009F4CFC08F3009F4F6C0DFC281
:1026B000823109F423C108F47DC2833109F447C192
:1026C0008E3F09F478C1D3C28A81823009F43DC3B8
:1026D000833051F0813009F0CAC20E94AE309B8332
:1026E0008C837D836E83C5C2809107019091080120
:1026F000892B09F4BEC2A0917A02B0917B02F80145
:10270000CE010B962C9111963C9111971296328323
:1027100023833296E817F907A9F7ABC28A81823082
:1027200009F0A5C26B817C818D819E810E942F352D
:1027300086E290E00E94C5349CC24C816B818A8104
:102740000E9493239D8308C32D813E813227232736
:1027500032274C816B818A810E94BE228AC20E94EC
:10276000F42287C28A818138B1F050F4803809F0B0
:1027700080C220E04B81609177028091760231C067
:10278000823859F1833809F074C220E04091780210
:102790006C818B8126C060E08B810E945E199B81D9
:1027A00080917502911111C08E7F809375021092F5
:1027B00074022FEF30E742E0215030404040E1F713
:1027C00000C000000E94371754C2816080937502D8
:1027D00060E086950E945E194CC28B8180937902DD
:1027E00048C20E94851845C28A81813899F030F428
:1027F000803809F03EC28091780262C1823891F03F
:10280000833809F036C2809176028B8380917702FB
:102810008C832FC28091750280FF02C0869550C1C3
:1028200080E04EC1809179024BC160917502709138
:10283000760280917702909178020E94911719C2D6
:10284000DA8281E93DC1EA80FB80FE24EF24FE2488
:102850006C80712C8DE16816710408F00AC2480181
:10286000C70181599D4F9401201B310B2615370557
:1028700008F0FFC1E1E9EE16E1E0FE0628F40E944F
:10288000B134F401848302C0F4011482FFEFEF1A23
:10289000FF0A2FEF821A920AE3CF809107019091ED
:1028A0000801892B09F4E5C1EA80FB80FE24EF24AE
:1028B000FE248C80912C3DE18316910408F0D9C14F
:1028C0003801C70181599D4F9301201B310B2815F9
:1028D000390508F0CEC141E9E41641E0F40620F4E0
:1028E000F30164810E94C534FFEFEF1AFF0A2FEF56
:1028F000621A720AE6CF0E948422BBC1EA80FB8082
:10290000FE24EF24FE246C80712C3DE163167104DB
:1029100008F0AFC14801C70187969401201B310B15
:102920002615370508F0A5C140EEE41641E0F4068F
:1029300028F40E94B134F401848302C0F4011482AB
:10294000FFEFEF1AFF0A2FEF821A920AE4CFEA8014
:10295000FB80FE24EF24FE248C80912C3DE1831625
:10296000910408F086C140EEE41641E0F40608F058
:1029700080C180EE91E08E199F098815990508F4B1
:1029800078C13801C70187969301201B310B2815A8
:10299000390508F06EC1E0EEEE16E1E0FE0620F427
:1029A000F30164810E94C534FFEFEF1AFF0A2FEF95
:1029B000621A720AE7CFEA818E2F90E08E3091057D
:1029C00008F057C1FC01EE59FF4F0C94293588E0FF
:1029D000E7E2F1E0DE01919601900D928A95E1F730
:1029E00080E2F80111928A95E9F784E0898388E012
:1029F000FE01B196DE01159601900D928A95E1F7E0
:102A000038C180E88983DA821B821C8232C18C81C2
:102A100090E0982F88272B81820F911D092E000CA2
:102A2000AA0BBB0B65E0880F991FAA1FBB1F6A95F5
:102A3000D1F7AC01BD01405E5F4F6F4F7F4F48172C
:102A400059076A077B0708F414C18038F1E09F0733
:102A5000A105B10508F00DC1413821E0520761051B
:102A6000710520F040E851E060E070E0481B590B30
:102A7000BC016B547E4FC8010E949834FAC040E2FA
:102A800050E06FEF70E0C8010E944C358091070163
:102A90008983EA82EEC081E090E090937D0280938A
:102AA0007C0282E390E090937202809371020E9414
:102AB000BA30DFC0809107018983EA828091710278
:102AC0008B83D7C0EB80FC8040E250E06FEF70E07A
:102AD000C8010E944C352DE131E080E090E0AC016E
:102AE0004E5F5F4F4132510508F0C3C0F901659157
:102AF0007491E616F70630F4F801E80FF91F7183B8
:102B00006083CA01285F3F4F41E0253B340739F716
:102B1000B0C04B815C8125EB31E08DE191E0FC019F
:102B2000659174914617570709F4E1C00896281774
:102B30003907A9F79CC02B813C8185EB91E04DE1E1
:102B4000E42E41E0F42EF701459154912417350706
:102B500009F484C0E8E0EE0EF11C8E159F0599F78C
:102B600086C00E94452285C08B81823031F1A8F455
:102B70008823C9F0813009F07CC08C812AE0F22ED4
:102B80004E01F1E28F0E911CF4012F2D11922A9526
:102B9000E9F7B4010E94A9223EC0833069F1843074
:102BA00009F442C066C080E2F80111928A95E9F703
:102BB00084E0898383E08A835CC06C818AE0FE01C3
:102BC0003596DE01919601900D928A95E1F7643079
:102BD00070F43AE0639FB0011124675D7D4F4AE0D5
:102BE00050E0CE0181960E94E93480E001C08FEF71
:102BF00089830E94DD233DC08C819AE0F92E4E012D
:102C000041E2840E911CF4012F2D11922A95E9F7CF
:102C1000B4010E9494228983F401DE01129601908E
:102C20000D92FA94E1F725C06C818AE0FE01359699
:102C3000DE01919601900D928A95E1F76330B8F428
:102C40003AE0639FB00111246F5A7D4F4AE050E093
:102C5000CE0181960E94E93480E00AC0C701029645
:102C6000FC01259134912D31310508F456C08FEFC8
:102C7000898380918C03843009F051CA8091E900E6
:102C80008F702091EC00922F917020FD90E8F92E2A
:102C9000F82A82E08093E9008091E80080FF0CC070
:102CA00040E050E060E270E0C8010E947A2B809121
:102CB000E8008E778093E8008F2D8F708093E90075
:102CC0002ECA09BD19BD09B400FEFDCF8091D80000
:102CD0008F7D8093D8008091E00082608093E00037
:102CE0008091E00081FDFCCF0E940E2C1FCA9C0148
:102CF0002E5F3F4FF901459154914032510508F044
:102D0000B6CFF90145915491FC01349665917491C7
:102D1000CE0102960E9443359FCFFC01459154910C
:102D2000F701349685919491BE016B5F7F4F0E94AD
:102D300043350E942822F701369685919491009799
:102D400009F48ACFFC01099587CF86E290E00E94C2
:102D5000B1341B821C821D828E838BCF60E086E2A1
:102D600090E00E94C5340E94F4220E9484226CE804
:102D700083E290E00E94C53469E484E290E00E941E
:102D8000C5346DED85E290E00E94C5347FC9909115
:102D9000350292FF0DC0282F2871283019F4877F43
:102DA000846006C0282F2471243011F48B7F886042
:102DB00093FF0DC0282F2871283119F4877E846174
:102DC00006C0282F2471243111F48B7E8861209154
:102DD000360220FF0DC0382F3871383019F4877F44
:102DE000816006C0382F3171313011F48E7F8860D8
:102DF00021FF0DC0282F2871283119F4877E8161A9
:102E000006C0282F2171213111F48E7E886194FD36
:102E1000877E08959C013A9521153F4138F5DC01E4
:102E2000AA27B270AC01442754709C012227387045
:102E300094FF0FC090FF02C080E101C080E0AB2B87
:102E400009F08062452B09F08064232B69F08068CB
:102E50000BC0892F8170AB2B09F08260452B09F0E4
:102E60008460232B09F08860FB0109940895809108
:102E7000750280FF0AC0529A8BB18B7F9BB1946020
:102E80002FB7F894E1E9F2E00BC0E1E9F2E011823A
:102E900010821282339633E0E135F307C1F7EBCFAE
:102EA00033E0E135F30789F0319148E09BB9000048
:102EB00000C037FF8BB9330F000000C000C000C056
:102EC0008BB900C04A9591F7EBCF2FBF8FE594E007
:102ED0000197F1F700C0000008959091750290FFEE
:102EE0000CC0E1E9F2E0818360834283339693E092
:102EF000E135F907C1F70C943717089580917502F1
:102F0000282F269530E02115310519F48170826053
:102F100005C02C31310524F08170866380937502E1
:102F20000895CF92DF92EF92FF926B017C010E9495
:102F30007E17B701A60188E090E0FF90EF90DF9048
:102F4000CF900C94D73480917902882319F0815066
:102F50008093790260917502709176028091770278
:102F6000909178020C94911780917902833018F433
:102F70008F5F8093790260917502709176028091E3
:102F80007702909178020C949117E5E7F2E083E0E4
:102F900080838FE781838FEF8283838314826081B4
:102FA0007181828193810C949117AF92BF92CF92DD
:102FB000DF92EF92FF920F931F93CF93DF93E82E50
:102FC000F62EE901E42FF0E0611106C0EB51FC4F51
:102FD000E4914E2F2E2F71C0062F10E0EB51FC4FC5
:102FE0004491F42FC42ED12C26E0829FC0011124DD
:102FF0002FEF30E0B9010E9401355BEA5603C001B2
:10300000579F900D11248E0D911D8E0D911D582FDF
:10301000550F580FD901A01BB10BAC9DC001AD9D40
:10302000900DBC9D900D1124E92FF59ED001112427
:10303000AB2FBB277901EA1AFB0AEC9CD001ED9C6F
:10304000B00DFC9CB00D11245901A51AB108A09E29
:103050007001A19EF00CB09EF00C1124EF2CFF2407
:103060002E193F092C9D80012D9D100D3C9D100DAA
:103070001124212F6230710591F048F4611571051A
:10308000E1F061307105B9F4242F4B2F16C0643084
:10309000710569F040F06630710579F00CC0242F9D
:1030A000492FE12F0AC0492FEF2F2B2F06C0292FC0
:1030B000E42F412F02C0292FEB2F49832883EA8375
:1030C000DF91CF911F910F91FF90EF90DF90CF9004
:1030D000BF90AF900895CF93DF9300D01F92CDB7EC
:1030E000DEB79091750290FF0AC09E012F5F3F4F9F
:1030F0000E94D5174B8169818A810E946D170F90BC
:103100000F900F90DF91CF9108957F928F929F92B1
:10311000AF92BF92CF92DF92EF92FF920F931F93E5
:10312000CF93DF9300D01F92CDB7DEB7182FD62EE6
:10313000042FC22E9091750290FF6DC0E92FE69585
:10314000AE2FB0E0A15DBE4F8C91809373029E7F45
:10315000923061F49E012F5F3F4F812F0E94D5175F
:103160004B8169818A810E946D1743C0823019F4B6
:10317000009178023EC0863019F41091760239C071
:103180008930D9F38231A9F5E2512E2F2170722EA8
:10319000E695F0E0EB51FB4F8590949031E9A32E3A
:1031A00032E0B32EE12CF12C99248E9CC0018F9C2F
:1031B000900D9E9C900D112426E0969587952A955A
:1031C000E1F7711002C0810F03C0212F281B822F4D
:1031D0009501402F6D2D0E94D5178FEFE81AF80A40
:1031E00023E0A20EB11C80E4E816F104F1F60E947F
:1031F000371710937602D092770200937802CC2092
:1032000051F06091750270917602809177029091F1
:1032100078020E9491170F900F900F90DF91CF913D
:103220001F910F91FF90EF90DF90CF90BF90AF90E4
:103230009F908F907F900895E5E7F2E0438128E02A
:10324000421B08F440E021E0628181810C948518E2
:10325000E5E7F2E0438128E0420F08F44FEF21E078
:10326000628181810C948518E5E7F2E0628128E0B3
:10327000621B08F460E021E0438181810C94851891
:10328000E5E7F2E0628128E0620F08F46FEF21E0E9
:10329000438181810C948518E5E7F2E0818121E08A
:1032A0004381628188500C948518E5E7F2E08181C2
:1032B00021E043816281885F0C94851890917502AA
:1032C00090FF36C09170811102C0926006C08C31AF
:1032D00010F0966302C0880F982B909375026623B6
:1032E00051F0609175027091760280917702909111
:1032F00078020E94911760917502669570E04BE02C
:1033000050E083E191E00E943635892B19F010924C
:10331000740202C00E944B2481E08093560220E098
:103320004091780260917702809176020C94851822
:103330000895809175028695815009F48BE161E0D2
:103340000C945E198091750286958F5F8C3108F020
:1033500081E061E00C945E190E94BA302091610214
:10336000211104C020916202222321F090935E0279
:1033700080935D0220916302211104C020916402B8
:10338000222321F090935B0280935A02E0914E0237
:10339000F0914F02309749F082E080935F02048001
:1033A000F581E02D8FE592E009940895803F39F48E
:1033B0008091620287FF6AC01092620267C0813FFB
:1033C00029F4809162021816BCF360C090916102EA
:1033D000823F29F497FF5AC01092610257C0833F81
:1033E00019F41916CCF352C090916302893F31F45D
:1033F00019160CF04BC01092630248C08A3F19F4B2
:1034000097FF44C0F8CF8B3F39F48091640287FF67
:103410003DC0109264023AC08C3F29F4809164024E
:103420001816BCF333C0843F21F4809160028E7F74
:1034300017C0853F21F4809160028D7F11C0863FC7
:1034400021F4809160028B7F0BC0873F21F4809133
:103450006002877F05C0883F31F4809160028F7ED3
:103460008093600213C08D3F21F480919A038E7F78
:103470000BC08E3F21F480919A038D7F05C08F3F52
:1034800029F480919A038B7F80939A038091610243
:10349000811106C080916202811102C010925C020B
:1034A00080916302811106C080916402811102C083
:1034B00010925902089580919A0380FF08C060918C
:1034C000210170E0759567957595679521C081FF1D
:1034D00006C06091210170E07595679519C082FF63
:1034E00004C06091210170E010C0909159029923AD
:1034F00099F0609120019617A0F780912101899F92
:10350000C001112470E00E9415356038710540F447
:103510006115710519F406C061E070E0862F089509
:103520008FE7089581E0089580919A0320910C021D
:1035300030910D0280FF0CC080912301829FB00169
:10354000839F700D112476956795769567952FC0AA
:1035500081FF0AC080912301829FB001839F700D7B
:1035600011247695679523C082FF08C080912301BE
:10357000829FB001839F700D112419C040915C029D
:10358000411102C0B90113C060912201461770F7C2
:1035900080912301849FA0011124429FC001439F79
:1035A000900D529F900D112470E00E9401356038FB
:1035B000710528F46115710521F0862F08958FE7B4
:1035C000089581E00895803F21F40E94941A819526
:1035D00004C0813F29F40E94941A809362020895E6
:1035E000823F21F40E94941A819504C0833F29F4FC
:1035F0000E94941A809361020895893F19F40E94F1
:103600005B1A05C08A3F31F40E945B1A8195809352
:10361000630208958B3F21F40E945B1A819504C0D8
:103620008C3F29F40E945B1A809364020895843FC2
:1036300021F480916002816017C0853F21F4809160
:103640006002826011C0863F21F480916002846034
:103650000BC0873F21F480916002886005C0883FDD
:1036600031F48091600280618093600208958D3F03
:1036700021F480919A0381600BC08E3F21F48091E8
:103680009A03826005C08F3F29F480919A03846079
:1036900080939A030895CF93DF930E94C123EC0196
:1036A0008238910559F1A0F48133910509F473C072
:1036B00040F48932910509F467C08A9709F472C011
:1036C00084C08533910509F458C0C997B9F07DC00D
:1036D000833E910571F138F4803E9105B1F0823E50
:1036E000910511F172C0863E9105B9F1873E9105B1
:1036F000C9F1843E910509F068C024C0809135026B
:1037000080FD5DC081FD5BC060C08091350280FDA1
:1037100050C08091360280FF49C18091350284FDFE
:1037200043C1C3EED0E042C18091350282FF3EC169
:10373000F4CF8091350282FD3FC08091360280FD3A
:103740003EC0EBCF8091360281FF30C180913502BF
:1037500084FD2AC1C7EED0E029C18091350283FFE4
:1037600025C1F4CF8091350283FD2CC080913602B3
:1037700081FFECCFC4EED0E019C18091350285FF06
:1037800015C1C9E2D0E012C18091350285FF0EC19A
:10379000C5E3D0E00BC18091350286FF07C1CAE2C4
:1037A000D0E004C18091350286FF00C1C1E3D0E0C2
:1037B000FDC0C9E3D0E0FAC0C2EED0E0F7C0C0EE71
:1037C000D0E0F4C0C6EED0E0F1C0C11581E5D80765
:1037D00008F066C0C11520E5D207E0F0CE0174E024
:1037E000969587957A95E1F783709C2F937021E0E9
:1037F00030E002C0220F331F9A95E2F73C68382B65
:10380000CF70C695C69540E2C49FE0011124C22B3B
:10381000D32BCCC0C83ED10560F5C03ED10508F021
:10382000C5C0C83AD105B0F4C53AD10540F0C55A73
:10383000D0E0C65ADE4FC881D0E0D064B7C0C130F6
:10384000D10509F4B3C008F4AFC0C430D10508F401
:10385000ABC0ACC0CF3BD10508F0A6C0C85AD0E081
:10386000CC0FDD1FC35ADE4F0990D881C02DD46420
:103870009DC0C11540E2D40758F4C11581E0D807B6
:1038800008F094C0C03FD10508F48EC0D0658EC04A
:10389000C11520E4D20708F487C0DF70D06A86C063
:1038A000C11545E5D40708F042C0C11584E5D80725
:1038B00028F0DC2FCC27C46FD06A78C0C11523E56F
:1038C000D207B0F0CE018370992721E030E002C02A
:1038D000220F331F8A95E2F78C2F8695869540E25A
:1038E000849FC0011124E901C82BD92BDA685EC07E
:1038F000C11542E5D40728F4DC2FCC27C16FD06A6C
:1039000055C0CE018370992721E030E002C0220F1C
:10391000331F8A95E2F78C2F8695869540E2849F27
:10392000C0011124E901C82BD92BDC683FC0C115A7
:1039300089E5D807B8F4C11528E5D20728F0DC2FAF
:10394000CC27C06FD06A32C0C11546E5D40760F5F8
:103950008C2F0E94C7168F71C82FD0E0DC2FCC2788
:10396000D06224C0C1158AE5D80780F48C2F8F70EF
:103970000E94C71694E0D695C7959A95E1F7CF7047
:10398000D0E0DC2FCC27D069C82B10C0CE019056D8
:103990008115904248F48D2F8F710E94C716DD2744
:1039A000D0628F71D82B02C0C0E0D0E0CE01DF9191
:1039B000CF91089581FD02C02E9A08952E98089502
:1039C000AF92BF92CF92DF92EF92FF920F931F932D
:1039D000CF93DF93EC018AE0A82E2881222309F4FB
:1039E00097C0213009F041C08981813039F48E01BE
:1039F0000E5F1F4F8A810E94CD2C08C0823041F497
:103A00008E010E5F1F4F8A810E94552CE8017EC0F7
:103A1000833039F48E010E5F1F4F8A810E94232C60
:103A2000F5CF843011F0219671C02A81229680E072
:103A300090E030E0205331092A30310558F4A89E37
:103A4000A001A99E500D1124C901840F951F219634
:103A50002881EFCF009709F459C0EFE9FFE03197D3
:103A6000F1F700C000000197F5CFE22FF0E0EB592D
:103A7000FC4FB490822F86958695869590E0FC0148
:103A8000EB5AFC4FE4902770F12C022E02C0F59403
:103A9000E7940A94E2F7F1E0EF22FF24FC01EB5BEC
:103AA000FC4FC490D12C022E02C0D594C7940A9426
:103AB000E2F731E0C322DD24FC01EB5CFC4F049112
:103AC00010E002C0159507952A95E2F701701127BD
:103AD000E114F10419F081EE0E94552CC114D104B7
:103AE00019F086EE0E94552C8B2D0E94CD2CCD28EE
:103AF00019F086EE0E94232CEF2819F081EE0E9427
:103B0000232C012B19F08CE20E94CD2C219665CF3D
:103B1000DF91CF911F910F91FF90EF90DF90CF90A9
:103B2000BF90AF9008951F93CF93DF9300D000D044
:103B30001F92CDB7DEB749835A8389819A81662364
:103B400059F0222349F00E947632182F682F89817C
:103B50009A810E94F33203C00E94C332182F6981F8
:103B60007A81812F0F900F900F900F900F90DF911F
:103B7000CF911F910C94C123CF93DF93EC010E944E
:103B8000232CCE01805E9109089710F0209719F43C
:103B900061EC7BE202C06AEB7BE2CE01DF91CF9168
:103BA0000C940A17CF93DF93EC01805E910908977C
:103BB00010F0209719F460EB7BE202C066EA7BE22A
:103BC000CE010E940A178C2FDF91CF910C94552CB7
:103BD0001F920F920FB60F9211248F939F93EF9322
:103BE000FF938091B900887F803869F038F488238A
:103BF000C9F18036C9F510928F0236C0883A09F1B2
:103C0000883BF9F031C080918F02811111C0809101
:103C1000BB0080938E0280918E02803120F0109242
:103C20008E0280E001C081E091E090938F021DC080
:103C3000E0918E02F0E08091BB00E258FD4F80835E
:103C400008C0E0918E02F0E0E258FD4F8081809341
:103C5000BB0080918E0290E001968F70992780932F
:103C60008E0202C01092BC0081E09091BC0082954F
:103C7000880F880F807C9568892B8093BC00FF910A
:103C8000EF919F918F910F900FBE0F901F901895FD
:103C9000CF92DF92EF92FF920F931F93CF93DF9318
:103CA000809137029091380220917A0230917B0204
:103CB000309338022093370290937B0280937A02EC
:103CC00000E010E0C1E0D0E085B1982F907E03FFC6
:103CD00002C020E101C028E0802F8770892B822B51
:103CE00085B9AE01002E02C0440F551F0A94E2F7B9
:103CF000BA016095709520E030E08BB18F708068DC
:103D0000F90194E0EE0FFF1F9A95E1F78E2B8BB926
:103D10008AE08A95F1F700C0C901880F991FE091E8
:103D20003702F0913802E80FF91F0190F081E02D81
:103D3000E423F523EF2B09F0479AE5E3EA95F1F741
:103D40000000F6B45F98EAE0EA95F1F700C0E09170
:103D50007A02F0917B02E80FF91F369B05C0A08123
:103D6000B181A623B72304C0A081B181A42BB52BB8
:103D7000B183A083E6B5EF19E63088F0E091370211
:103D8000F0913802E80FF91F0190F081E02DA09129
:103D90007A02B0917B02A80FB91FED93FC938AE1E0
:103DA0008A95F1F700C047985F9A8BE291E00197FE
:103DB000F1F700C000002F5F3F4F2530310509F0BB
:103DC0009CCFA0917A02B0917B02E0913702F091F2
:103DD00038021A962D913C911B978285938528175E
:103DE000390711F00E94AE300F5F1F4F00311105EF
:103DF00009F06ACF809100018F3F49F1F12C86E1F3
:103E0000E82E1BC0E09EF001E19EF00D1124E0576A
:103E1000FE4FC288D388C114D10421F4C0901C0283
:103E2000D0901D02E09EE001E19ED00D1124C0570C
:103E3000DE4F8E81811110C0F3940F2D10E0809120
:103E40000001082E000C990B80179107DCF6809179
:103E50000101811118C02BC08D859E850E949F3065
:103E6000C816D90648F78989811103C0CE010E947E
:103E7000F020E09EC001E19E900D11248A569E4FD5
:103E80000E941121D9CF8091F7019091F8010097FC
:103E900071F00E949F3020911A0230911B02281766
:103EA000390728F481E00E946A210E9458218091FC
:103EB0001F0280FF1CC08091020182FF18C00E9477
:103EC000BA302091FE013091FF01AC01421B530B2F
:103ED00020912401309125014217530740F041E021
:103EE000BC018091FC019091FD010E948F2081E036
:103EF000DF91CF911F910F91FF90EF90DF90CF90C6
:103F00000895E4E0F2E0848195812AE030E0B9018F
:103F10000E940135609305018681809306018285A8
:103F20008093230184858093220186859785B9013A
:103F30000E94013560930301808980930401828986
:103F40008093210184898093200108958091040247
:103F5000909105029093250180932401089508957E
:103F60000F931F93CF93DF93C1E9D2E0FE0111823B
:103F700010821282339683E0E135F807C1F700E042
:103F800010E080919002082E000C990B0817190779
:103F900094F080911F01082E000C990B8017910757
:103FA00054F09E01409178026091770280917602F0
:103FB0000E94D51703C0198218821A820F5F1F4F03
:103FC000239600341105E9F60E94371780911E01EF
:103FD00090919002980F9093900220911F01280FCA
:103FE00020931F01121614F49F331CF081958093C7
:103FF0001E01DF91CF911F910F910895EF92FF92D3
:104000001F93CF93DF93EC0181E9E82E82E0F82E35
:1040100010E08C8197014091780260917702810FC6
:104020000E94D5171D5F83E0E80EF11C103C89F754
:104030000E9437179A818C8190FF02C08F5F01C068
:1040400081508C83DF91CF911F91FF90EF90089565
:10405000CF93DF93EC01E5E7F2E0438162818C814D
:104060000E946B188C818F5F8C83DF91CF910895B4
:10407000CF93DF93EC01EC81F0E0E651FB4F4491EC
:10408000E5E7F2E0628181810E946B188C818F5F8D
:104090008C83DF91CF910895009741F0EFE9FFE025
:1040A0003197F1F700C000000197F6CF08952091F5
:1040B0006503309166032817390771F09093660302
:1040C00080936503E0914E02F0914F02309721F00A
:1040D0000084F185E02D09940895209163033091C7
:1040E00064032817390771F0909364038093630386
:1040F000E0914E02F0914F02309721F00680F78157
:10410000E02D09940895E0914E02F0914F0230970E
:1041100021F00190F081E02D099480E00895FF9254
:104120000F931F93CF93DF938C01EB01F42E8091BB
:10413000020182FF3CC08B7F809302018091FE01CF
:104140009091FF019B01281B390B809124019091D4
:1041500025012817390750F48091FC010E94552C45
:10416000809102018D7F8093020116C080912B0403
:10417000826080932B048091FC010E94552C8091D9
:10418000020182608093020180911F0285FF04C0BA
:1041900086FD02C0F1101EC0809122029091230280
:1041A0000E944C208091FC010E94232C0AC0802F89
:1041B0000E94232C8091FC019091FD0108171907A2
:1041C00019F482E00E94D3310E941C32D093FF0187
:1041D000C093FE01DF91CF911F910F91FF90089541
:1041E000CF93DF93EC0181E0898B90912A048F813A
:1041F000892B80932A0490912B048885892B8093A6
:104200002B040E941C32EA81FB81CE010696309776
:1042100029F06C897D89DF91CF910994DF91CF914D
:104220000895EF92FF920F931F93CF93DF93FC01BA
:104230002285211136C0EC01E380F480F7E5FF1AF6
:1042400026E12E9DC0012F9D900D1124DC01A05769
:10425000BE4F1496ED91FC9115978A569E4F30975C
:1042600029F054966D917C915597099586E18E9D24
:1042700080018F9D100D112400571E4FF80187817A
:104280000E94DA31F80180850E94D3310E941C32ED
:10429000188219861B861E821D8210928F01109231
:1042A0008E01DF91CF911F910F91FF90EF900895B4
:1042B000E6E2F2E080E090E08330910531F0248185
:1042C00027FF148201963596F7CF9093FB018093D8
:1042D000FA010895CF939091F6019923C9F08823AC
:1042E00011F0C0E003C01092F60112C08091F601F7
:1042F000C817C8F7EC2FF0E0EE0FFF1FE851FE4F94
:10430000808191810E94D21D0E941C32CF5FEECF2E
:10431000CF9108950F931F93CF93DF93C42FD22F84
:10432000FC0182818823C9F0409300020E94BA30C8
:10433000909362038093610380E28C0F883008F0D1
:104340005BC0C77081E001C0880FCA95EAF7DF91B2
:10435000CF911F910F910C94B02B809100024813C4
:1043600034C080916103909162030E949F3020913C
:104370001C0230911D028217930738F510E21D0FC1
:10438000CD17B9F080E28C0F883040F4C77081E01F
:1043900001C0880FCA95EAF70E94C12B183028F592
:1043A00081E09D2F977001C0880F9A95EAF70E94CF
:1043B000B02B802F0E94CD2C1830F0F4D77081E004
:1043C00001C0880FDA95EAF70AC080E28C0F8830C6
:1043D00098F4C77081E001C0880FCA95EAF7DF91B1
:1043E000CF911F910F910C94C12B802FDF91CF9112
:1043F0001F910F910C94CD2CDF91CF911F910F91B4
:1044000008950F931F93CF93DF9304E012E0C7E06A
:10441000D2E0CE010E94B134F80181938F01219640
:10442000C932F2E0DF07A9F7C0E0D0E0FE01ED5DA0
:10443000FE4F85919491009711F0FC010995289603
:10444000C839D10599F7DF91CF911F910F91089548
:104450000F931F93CF93DF9304E012E0C7E0D2E005
:10446000CE010E94B134F80161918F01681719F0F3
:10447000CE010E94C5342196C932F2E0DF0781F7F0
:10448000DF91CF911F910F910895E4E0F2E0128E39
:10449000138E8FEA90E09183808325E0248F28E8B3
:1044A00033E1338322834CE251E05583448322E39A
:1044B00030E03783268325E030E0318720872AE00B
:1044C00030E03387228764E170E07587648757871F
:1044D000468744E650E0518B408B48E050E0538BD8
:1044E000428B48E250E0558B448B978B868B918FA3
:1044F000808F158E378F268F80E590E091A380A363
:104500000E9428220C940122CF93DF93CFE6D2E0C1
:1045100060E0CE010E94C5342196C11584E0D80721
:10452000B9F7DF91CF910895833080F49B01982FE4
:104530008AE0989FB00111246F5A7D4F4AE050E005
:10454000C9010E94A13480E090E008958FEF9FEFB1
:104550000895843080F49B01982F8AE0989FB001E1
:104560001124675D7D4F4AE050E0C9010E94A134EB
:1045700080E090E008958FEF9FEF08950F931F93D1
:10458000CF93DF93833058F5653048F5403138F5E7
:1045900021159CE5390731F4E0910701F0910801FC
:1045A000EF2BE9F08901C42FD0E0CC0FDD1F90E2A2
:1045B000699FC00DD11D112490EA899FC00DD11DA6
:1045C0001124612FCE0187960E94C534602FCE0141
:1045D0008896DF91CF911F910F910C94C534DF9194
:1045E000CF911F910F9108956F927F928F929F921A
:1045F000AF92BF92CF92DF92EF92FF920F931F93F1
:10460000CF93DF93CDB7DEB764970FB6F894DEBFD4
:104610000FBECDBFA0900701B090080181E090E0EF
:104620009093080180930701612CC12CD12C712C2F
:10463000E12CF12C00E010E046018E0C9F1CF401EF
:10464000E00FF11FEE0FFF1FE651FA4F2591349155
:10465000402F672D862D0E94BE220F5F1F4F003115
:10466000110569F780E1E80EF11C7394E5E07E1214
:10467000E1CFF0E5CF0ED11C639483E06812D7CF71
:104680000E9445221A8219821C821B821E821D8270
:1046900018861F828FEA90E09A87898709E212E0E4
:1046A0004AE050E0B801CE0101960E94E934065F6D
:1046B0001F4F0135E2E01E0799F78E01055F1F4F7E
:1046C0008AE0F80111928A95E9F74AE050E061E545
:1046D00072E0C8010E94E9344AE050E06BE572E004
:1046E000C8010E94E9344AE050E065E672E0C80182
:1046F0000E94E934B0920801A092070164960FB6B7
:10470000F894DEBF0FBECDBFDF91CF911F910F9107
:10471000FF90EF90DF90CF90BF90AF909F908F90E1
:104720007F906F9008950F931F93CF93DF93833003
:1047300008F56530F8F44031E8F4C42FD0E0CC0F30
:10474000DD1F20E2629FC00DD11D112430EA839F3E
:10475000C00DD11D1124CE0187960E94B13490E086
:10476000182F0027CE0188960E94B1349801282B7B
:10477000C90102C080E090E0DF91CF911F910F91BD
:104780000895462F20917C0230917D02232B91F4D5
:104790007E3F39F46E3F71F480915F039091600326
:1047A0000895833038F4753028F4603118F4672F99
:1047B0000C94932380E090E008958F929F92AF92A3
:1047C000BF92CF92DF92EF92FF920F931F93CF93FE
:1047D000DF93CDB7DEB72A970FB6F894DEBF0FBED2
:1047E000CDBF00E911E0E12CF12C87E0C82E86E274
:1047F000D82E92E3A92E96E2B92E2DE6822E25E23E
:10480000922EF801D182C082B382A28295828482E4
:10481000F58AE48ABE016F5F7F4F8E2D0E94A92228
:10482000892B29F489859A85F801938B828BFFEF78
:10483000EF1AFF0A0A5E1F4F84E0E816F10409F739
:104840002A960FB6F894DEBF0FBECDBFDF91CF9191
:104850001F910F91FF90EF90DF90CF90BF90AF909E
:104860009F908F9008959091750290FF04C0969547
:10487000981740F003C0811105C090E0961710F41E
:104880000C94A21961E00C945E19882311F0FA01CE
:1048900001C0FB01099460917502669570E04BE0E0
:1048A00050E083E191E00E943635892B19F481E0D4
:1048B000809374020E94BA30909354028093530202
:1048C0000895CF92DF92FF920F931F93CF93DF93C0
:1048D000CDB7DEB767970FB6F894DEBF0FBECDBF7A
:1048E000F42E4B8B052F5C8B162F6D8B7E8B8F8B55
:1048F000CE88DF88A601602F8F2D0E94CD338111D5
:1049000009C08091020290910302019690930302E4
:1049100080930202111110922B04FE013D9686E055
:10492000DF011D928A95E9F78091060290910702B6
:10493000892B11F10E94BA3020912604309127046E
:10494000821B930B20910602309107028217930776
:1049500040F08091280482FB992790F981E0892713
:1049600001C080E080FF03C082E00E944F330E94BC
:10497000023281110E94C831FD860E871F87D98AB5
:10498000C88A86E0FE013D96DE01179601900D92E1
:104990008A95E1F7CE0107960E946A2D811146C0E3
:1049A00086E0FE013796DE01119601900D928A9500
:1049B000E1F7DF80F8840A851B85A8016F2D8D2D16
:1049C0000E94CD33811132C02091C10330E0C90172
:1049D0000196877099274091F20350E0841795075C
:1049E000B9F0D982FA821D830C8396E0929FD001A0
:1049F000939FB00D1124AE53BC4FFE013196019030
:104A00000D929A95E1F78093C1030E94DC330EC0AA
:104A10000E940E2C1092C1031092F203EBEBF3E014
:104A200086E0DF011D928A95E9F719C016E08091B2
:104A3000F2039091C103891791F0189FC0011124CE
:104A40008E539C4F0E946A2D882349F08091F20377
:104A500090E00196877099278093F203E8CF6796DC
:104A60000FB6F894DEBF0FBECDBFDF91CF911F917F
:104A70000F91FF90DF90CF900895CF93DF9300D0F8
:104A800000D01F92CDB7DEB79093600380935F0391
:104A9000811520E2920748F40F900F900F900F902D
:104AA0000F90DF91CF910C94BC1D8EEF89838A8388
:104AB0001B820E94BA308160782F9D838C8349814C
:104AC0005A816B818D810E9461240F900F900F900D
:104AD0000F900F90DF91CF9108950F931F93CF9375
:104AE000DF938C01EB0165E573E08C2F0E94A92216
:104AF000892B09F046C080912202909123020E94E6
:104B00004C20DD27CF5ADC4F8881F80110821882B3
:104B1000833079F048F4813041F1823091F5809111
:104B200057039091580309C0843051F08530E9F063
:104B300028C08091590390915A030097B1F01BC08F
:104B400080915B0390915C030097A9F42091550339
:104B500030915603809157039091580321153105E8
:104B600041F0009741F4C90106C08091550390912E
:104B70005603009731F0DF91CF911F910F910C9464
:104B80003D25DF91CF911F910F910895CF93DF9332
:104B900000D000D01F92CDB7DEB790936003809312
:104BA0005F03811520E2920748F40F900F900F9059
:104BB0000F900F90DF91CF910C94D21D8EEF8983CF
:104BC0008A8381E08B830E94BA308160782F9D8335
:104BD0008C8349815A816B818D810E9461240F9061
:104BE0000F900F900F900F90DF91CF910895CF937A
:104BF000DF93EC010E94C62580912202909123024E
:104C00000E944C20CE01DF91CF910C943D250F9353
:104C10001F93CF93DF938C01862F65E573E00E948D
:104C2000A922892BD1F4C0915503D0915603209726
:104C3000A1F0F8018081833039F4CE010E94F7257C
:104C4000CE010E94F72502C0843038F0CE01DF91FA
:104C5000CF911F910F910C94F725DF91CF911F9168
:104C60000F9108950F931F93CF93DF938C01EB0166
:104C700065E573E08C2F0E94A922892B09F06DC095
:104C8000DD27F8018081813041F49185911115C0B3
:104C90009285992391F082E010C0823049F4F801A6
:104CA0008185811107C08285811106C083E005C01E
:104CB00086E003C085E001C084E0CF5ADC4F8883E2
:104CC0008330B1F028F4813071F0823031F045C08A
:104CD0008430A9F0853079F140C0809157039091DC
:104CE00058030097A1F5809155039091560320C079
:104CF0008091590390915A030097E9F028C0809160
:104D00005B0390915C03009711F58091550390919E
:104D10005603009749F00E94F72580915703909120
:104D20005803009781F013C0809157039091580366
:104D3000009799F00CC0809155039091560300970D
:104D400061F00E94F7258091550390915603DF9101
:104D5000CF911F910F910C94C625DF91CF911F9198
:104D60000F9108950F931F9380919603909197034D
:104D7000A0919803B09199038C019D0106701127B1
:104D800022273327BC01CD0106301105210531054D
:104D900011F4686001C0677F1F910F910C9420335C
:104DA0001F93CF93DF93CDB7DEB7AA970FB6F894D2
:104DB000DEBF0FBECDBFEEE8F3E08091F10081933E
:104DC00043E0E639F407C9F780918F03833009F493
:104DD00062C030F4813071F0823009F49CC0B3C0FD
:104DE0008A3009F488C08B3009F46DC0893009F02D
:104DF000AAC020C080918E03813A09F0A4C080919E
:104E0000E800877F8093E80080919203909193035C
:104E1000892B21F460E28AE693E003C060E080E041
:104E200090E070E00E943A348091E8008B778093A4
:104E3000E80089C080918E03813209F084C080919E
:104E4000920390919303009719F0029709F07BC0A9
:104E50008091E800877F8093E8008091E80082FDE0
:104E600005C080918C038111F8CF6DC02091F300B3
:104E70008091F20090E0922B029729F48091F1004A
:104E80008B7F813021F48091F100809369038091C0
:104E9000E8008B7754C080918E03813A09F053C0AB
:104EA0008091920390919303892B09F04CC08091DB
:104EB000E800877F8093E8008091E80080FFFCCFC6
:104EC0008091260137C080918E038132E1F5809177
:104ED000920390919303892BB1F58091E800877F2D
:104EE0008093E8000E94E63380919003809326012E
:104EF0000E940E2C28C080918E03813221F5809172
:104F0000E800877F8093E8000E94E6338091910358
:104F10008093680318C080918E03813AA1F4809138
:104F2000E800877F8093E8008091E80080FFFCCF55
:104F3000809168038093F1008091E8008E778093E0
:104F4000E8000E94E6338091E80083FFE9C1809188
:104F50008E0390918F03492F50E04A30510508F09D
:104F6000DFC1FA01E059FF4F0C942935803821F058
:104F7000823809F0D5C108C080918A0390918B03D3
:104F8000992389F082600FC0809192038F708730DF
:104F900008F0C6C18093E9008091EB0085FB88276B
:104FA00080F91092E9009091E800977F9093E800D3
:104FB0008093F1001092F1007CC1282F2D7F09F021
:104FC000AFC1882319F0823061F0AAC180919003AB
:104FD000813009F0A5C1933009F080E080938B0304
:104FE0002EC08091900381112AC0809192038F700E
:104FF0002FEF280F263008F093C18093E90020910D
:10500000EB0020FF1CC0933021F48091EB00806204
:1050100014C09091EB0090619093EB0021E030E0A0
:10502000A90102C0440F551F8A95E2F74093EA0098
:105030001092EA008091EB0088608093EB00109260
:10504000E9008091E800877F8093E8000E94E633C2
:1050500067C1811165C1109190031F778091E300B2
:105060008078812B8093E3008091E800877F809394
:10507000E8000E94E6338091E80080FFFCCF809139
:10508000E30080688093E300111102C082E001C058
:1050900083E080938C0344C18058823008F040C183
:1050A00020919003309191032C3D53E0350779F521
:1050B00083E08A838AE289834FB7F894DE011396EE
:1050C00020E03EE051E2E32FF0E050935700E491FE
:1050D00020FF03C0E295EF703F5FEF708E2F90E0EE
:1050E000EA3010F0C79601C0C0968D939D932F5F54
:1050F000243149F74FBF8091E800877F8093E80013
:105100006AE270E0CE0101960E943A34C0C08091FC
:10511000920390919303432F552743305105B1F0EB
:1051200068F44130510509F40AC14230510509F0D3
:10513000F7C08BE590E0E8E8F9E057C0413251054F
:1051400089F14232510509F43CC0EAC0C9019927EE
:1051500081309105B9F070F082309105D9F0039754
:1051600009F0DEC0E5EFF9E0E4918E2F90E0E5EF85
:10517000F9E038C0EFE2FAE0E4918E2F90E0EFE240
:10518000FAE030C0E3E2FAE0E4918E2F90E0E3E24F
:10519000FAE028C0E3E1FAE0E4918E2F90E0E3E149
:1051A000FAE020C08330910508F0BAC0880F991F3B
:1051B000FC01EC5AFE4F0190F081E02D89E090E077
:1051C00014C08330910508F0ABC0FC01EE0FFF1F47
:1051D000E25BFE4F0190F081E02DDC01A55BBE4F4C
:1051E0008C9190E0009709F49BC02091E800277F04
:1051F0002093E800209194033091950328173907F4
:1052000008F4C90140E0009789F120918C03222322
:1052100009F43DC02530D9F12091E80023FD37C0C5
:105220002091E80022FD2FC02091E80020FFEBCF65
:105230004091F3002091F20030E0342B009759F0B8
:105240002830310540F444914093F10031960197A4
:105250002F5F3F4FF3CF41E02830310509F040E0A8
:105260002091E8002E772093E800CDCF4111CDCFDB
:105270000AC080918C03882351F0853041F08091E1
:10528000E80083FD04C08091E80082FFF2CF8091A6
:10529000E8008B778093E80043C0803809F040C075
:1052A0008091E800877F8093E80080918D03809350
:1052B000F1008091E8008E77C7CE811131C08091D6
:1052C0009003909191039927029754F58091E800FB
:1052D000877F8093E8001091900310938D030E94C4
:1052E000E633111106C08091E30087FD02C081E022
:1052F00001C084E080938C0342E061EC81E00E9475
:10530000053442E261EC84E00E94053442E261EC43
:1053100082E00E94053442E260EC83E00E940534A2
:105320008091E80083FF10C08091E800877F809320
:10533000E8008091EB0080628093EB0005C082E181
:1053400090E0E3EEF9E051CFAA960FB6F894DEBFF5
:105350000FBECDBFDF91CF911F9108951F920F9285
:105360000FB60F9211242F933F934F935F936F9338
:105370007F938F939F93AF93BF93CF93DF93EF93DD
:10538000FF93C091E900CF708091EC00D82FD170CD
:1053900080FDD0E81092E9008091F000877F809333
:1053A000F00078940E94D0261092E9008091F000DD
:1053B00088608093F000CD2BCF70C093E900FF91FF
:1053C000EF91DF91CF91BF91AF919F918F917F919D
:1053D0006F915F914F913F912F910F900FBE0F9062
:1053E0001F901895E8EDF0E080818E7F8083109209
:1053F000E2001092DA001092E100A0EEB0E08C9191
:1054000081608C9380818F77808319BCA7EDB0E099
:105410008C918E7F8C9380818F7E80831092670326
:105420000895CF92DF92EF92FF920F931F93CF9345
:10543000DF93C8EDD0E088818F7E8883E7EDF0E0D0
:1054400080818160808384E082BF81E080936703F4
:1054500088818E7F888302EE10E0F801108210921E
:10546000DA0081EEC82ED12CF601108288818F7768
:10547000888388818068888388818F7D888319BC30
:1054800010928C0310928D0310928B0310928A035A
:1054900090EEE92EF12CF70180818B7F808388814B
:1054A0008160888342E060E080E00E940534F6017C
:1054B00080818E7F8083F8018081816080838081FC
:1054C00088608083F70180818E7F808388818061FE
:1054D0008883DF91CF911F910F91FF90EF90DF9024
:1054E000CF9008951F920F920FB60F9211242F9311
:1054F0003F934F935F936F937F938F939F93AF935C
:10550000BF93EF93FF938091E10082FF09C08091E8
:10551000E20082FF05C08091E1008B7F8093E10073
:105520008091DA0080FF2AC08091D80080FF26C0D9
:105530008091DA008E7F8093DA008091D90080FF1D
:1055400018C080E189BD82E189BD09B400FEFDCFAC
:1055500081E080938C038091670381110FC00E94CA
:10556000F2290E94112A8091E20084608093E20077
:1055700005C019BC10928C03109267038091E10062
:1055800080FF17C08091E20080FF13C08091E2008D
:105590008E7F8093E2008091E20080618093E20040
:1055A0008091D80080628093D80019BC85E08093F8
:1055B0008C038091E10084FF2EC08091E20084FF83
:1055C0002AC080E189BD82E189BD09B400FEFDCF1A
:1055D0008091D8008F7D8093D8008091E1008F7EEC
:1055E0008093E1008091E2008F7E8093E2008091C1
:1055F000E20081608093E20080918D03882311F0A6
:1056000084E007C08091E30087FD02C081E001C013
:1056100083E080938C038091E10083FF27C0809119
:10562000E20083FF23C08091E100877F8093E10047
:1056300082E080938C0310928D038091E1008E7F35
:105640008093E1008091E2008E7F8093E200809160
:10565000E20080618093E20042E060E080E00E942E
:1056600005348091F00088608093F000FF91EF9105
:10567000BF91AF919F918F917F916F915F914F916A
:105680003F912F910F900FBE0F901F901895209172
:10569000E4003091E50095E64091EC00842F8170A4
:1056A00040FF23C08091E80080FD1DC080918C03E5
:1056B000882399F0853099F08091EB0085FD11C029
:1056C0004091E4005091E5002417350729F39150EB
:1056D00011F09A01E1CF84E0089582E0089583E01B
:1056E000089581E0089580E008954091E80042FF28
:1056F000DDCF0895EF92FF920F931F93CF93DF9327
:105700007C018B010E94472B811119C0E701011513
:105710001105A1F08091E80085FD0AC08091E800A4
:105720008E778093E8000E94472B882381F307C07F
:1057300089918093F10001501109E9CF80E0DF9158
:10574000CF911F910F91FF90EF900895882339F02A
:1057500090912B04892B80932B040C941C32089578
:10576000882339F090912A04892B80932A040C9481
:105770001C320895882321F00E94D3310C941C32EE
:105780000895882321F00E94DA310C941C32089588
:10579000E92FE295EF704E2F50E0FA013297EE308C
:1057A000F105B0F4E658FF4F0C942935803F91F095
:1057B00018F4883E68F40EC0843F51F40BC0883E54
:1057C00048F0813F29F406C093FB882780F90895AB
:1057D00080E0089581E008950E94B8320E94C82BAD
:1057E000089580E090E00E946D2080E090E00E94AB
:1057F000572010922B04109229040E941C32EFE5CE
:10580000F2E086E0DF011D928A95E9F710925C02D2
:105810001092590210929A030C94AC1910922A0417
:1058200080912601882331F08091350287FF02C0E4
:105830008EE101C086E0EDE9F3E0DF011D928A957B
:10584000E9F70C94F12B882379F19CEF980F913AAA
:1058500030F4682F8BE993E00E94EF300DC090E2A6
:10586000980F983058F4877091E001C0990F8A958D
:10587000EAF7892F0E94DA310C941C329BE5980FCD
:10588000933020F480E090E00C946D2098E5980F20
:10589000973120F480E090E00C945720803F20F076
:1058A0000E94D6190C94AC190895CF93882309F45B
:1058B00072C0C82F8CEF8C0F813AC0F58091260101
:1058C0008823E1F08091350287FF18C0EC2FE69520
:1058D000E695E695F0E0E556FC4F8281282F30E012
:1058E0004C2F477081E090E002C0880F991F4A95C5
:1058F000E2F782239323892B61F412C0EDE9F3E0F0
:1059000083EA93E02191C21721F08E179F07D1F708
:1059100007C06C2F8BE993E00E94EF300E941C328D
:105920006C2F8BE993E00E94173110C080E28C0F3E
:10593000883078F4C77081E090E001C0880FCA9584
:10594000EAF790912A04892B80932A04CF910C9432
:105950001C32EBE5EC0FE33040F4F0E0E65AFE4F8A
:10596000808190E0CF910C946D20E8E5EC0FE73159
:1059700050F4F0E0EE0FFF1FE35AFE4F808191815B
:10598000CF910C945720C03F30F08C2F0E94E31A27
:10599000CF910C94AC19CF9108951F93CF93DF93BF
:1059A000182F893329F4C0912402D091250204C014
:1059B000C0912202D0912302812F0E94552C209762
:1059C00041F08FE99FE00197F1F700C000002197B7
:1059D000F6CF812FDF91CF911F910C94232CBF9292
:1059E000CF92DF92EF92FF920F931F93CF93DF93AB
:1059F0008091C00382958F7009F062C08091BD03D1
:105A0000882309F45DC0C091F20386E0B82E80912E
:105A1000C103C81709F454C0F090BB03E090BC0365
:105A2000C090BE03D090BF03A6016E2D8F2D0E94A3
:105A3000CD33D0E0811141C0BC9E8001BD9E100DD0
:105A40001124F801EE53FC4F51815E1136C04081A4
:105A50004F1133C08281811130C0E380F480EC1893
:105A6000FD0820E06091BD037091BE038091BF03EB
:105A70000E94931D80911C0290911D02E816F90668
:105A8000E0F48091C0038F7080618093C003F801BF
:105A9000E953FC4F80818F70806180838BEB93E0B2
:105AA0000E946305DF91CF911F910F91FF90EF90BE
:105AB000DF90CF90BF900C94DC332196C770A7CFB6
:105AC000DF91CF911F910F91FF90EF90DF90CF90DA
:105AD000BF9008954F925F926F927F928F929F92A4
